{
	"data": {
		"bytecode": {
			"linkReferences": {},
			"object": "60806040523480156200001157600080fd5b506001808190555060004690507f8cad95687ba82c2ce50e74f7b754645e5117c3a5bec8151c0726d5857980a8666040518060400160405280601681526020017f436861696e56657273657c52616d70536572766963650000000000000000000081525080519060200120823060405160200162000093949392919062000419565b60405160208183030381529060405280519060200120600881905550620000e17fb19546dff01e856fb3f010c267a7b1c60363cf8a4664e21cc89c26224620214e80620001b960201b60201c565b620001337fa49807205ce4d355092ef5a8a18f56e8913cf4a201fbe287825b095693c217757fb19546dff01e856fb3f010c267a7b1c60363cf8a4664e21cc89c26224620214e620001b960201b60201c565b620001657fb19546dff01e856fb3f010c267a7b1c60363cf8a4664e21cc89c26224620214e336200021c60201b60201c565b620001977fa49807205ce4d355092ef5a8a18f56e8913cf4a201fbe287825b095693c21775336200021c60201b60201c565b6001600960006101000a81548160ff0219169083151502179055505062000466565b6000620001cc836200030d60201b60201c565b905081600080858152602001908152602001600020600101819055508181847fbd79b86ffe0ab8e8776151514217cd7cacd52c909f66475c3af44e129f0b00ff60405160405180910390a4505050565b6200022e82826200032c60201b60201c565b6200030957600160008084815260200190815260200160002060000160008373ffffffffffffffffffffffffffffffffffffffff1673ffffffffffffffffffffffffffffffffffffffff16815260200190815260200160002060006101000a81548160ff021916908315150217905550620002ae6200039660201b60201c565b73ffffffffffffffffffffffffffffffffffffffff168173ffffffffffffffffffffffffffffffffffffffff16837f2f8788117e7eff1d82e926ec794901d17c78024a50270940304540a733656f0d60405160405180910390a45b5050565b6000806000838152602001908152602001600020600101549050919050565b600080600084815260200190815260200160002060000160008373ffffffffffffffffffffffffffffffffffffffff1673ffffffffffffffffffffffffffffffffffffffff16815260200190815260200160002060009054906101000a900460ff16905092915050565b600033905090565b6000819050919050565b620003b3816200039e565b82525050565b6000819050919050565b620003ce81620003b9565b82525050565b600073ffffffffffffffffffffffffffffffffffffffff82169050919050565b60006200040182620003d4565b9050919050565b6200041381620003f4565b82525050565b6000608082019050620004306000830187620003a8565b6200043f6020830186620003a8565b6200044e6040830185620003c3565b6200045d606083018462000408565b95945050505050565b615e0f80620004766000396000f3fe6080604052600436106101fd5760003560e01c80639590cf281161010d578063c0744c2d116100a0578063d64612741161006f578063d646127414610788578063e58378bb146107c5578063f141b52b146107f0578063f43af8b414610819578063f698da25146108425761021c565b8063c0744c2d146106cc578063c0993eea146106f7578063c274734e14610722578063d547741f1461075f5761021c565b8063a7ecd37e116100dc578063a7ecd37e14610624578063b65054cd1461064d578063b69ef8a814610664578063bd81579e1461068f5761021c565b80639590cf281461055457806399a1fff114610591578063a217fddf146105ce578063a26d1c5f146105f95761021c565b80634105a2031161019057806353c2ddf11161015f57806353c2ddf114610449578063736c0d5b1461047257806375b238fc146104af57806376cf396d146104da57806391d14854146105175761021c565b80634105a2031461039c578063489cd997146103c75780634a37326b146103f05780635297fc0f1461040c5761021c565b80632bf570d3116101cc5780632bf570d3146103035780632f2ff15d1461032e57806336568abe1461035757806338067ce4146103805761021c565b806301ffc9a7146102215780630e7a426f1461025e578063248a9ca31461029b57806327ff50a1146102d85761021c565b3661021c5734600a60008282546102149190613ea2565b925050819055005b600080fd5b34801561022d57600080fd5b5061024860048036038101906102439190613f42565b61086d565b6040516102559190613f8a565b60405180910390f35b34801561026a57600080fd5b50610285600480360381019061028091906140d2565b6108e7565b6040516102929190614218565b60405180910390f35b3480156102a757600080fd5b506102c260048036038101906102bd9190614270565b610aca565b6040516102cf91906142ac565b60405180910390f35b3480156102e457600080fd5b506102ed610ae9565b6040516102fa91906142ac565b60405180910390f35b34801561030f57600080fd5b50610318610b0d565b60405161032591906142ac565b60405180910390f35b34801561033a57600080fd5b50610355600480360381019061035091906142f3565b610b31565b005b34801561036357600080fd5b5061037e600480360381019061037991906142f3565b610b52565b005b61039a60048036038101906103959190614390565b610bd5565b005b3480156103a857600080fd5b506103b1611669565b6040516103be9190613f8a565b60405180910390f35b3480156103d357600080fd5b506103ee60048036038101906103e99190614432565b61167c565b005b61040a600480360381019061040591906144d4565b611e09565b005b34801561041857600080fd5b50610433600480360381019061042e9190614698565b612432565b6040516104409190614703565b60405180910390f35b34801561045557600080fd5b50610470600480360381019061046b919061471e565b61246d565b005b34801561047e57600080fd5b5061049960048036038101906104949190614771565b61258b565b6040516104a69190613f8a565b60405180910390f35b3480156104bb57600080fd5b506104c46125ab565b6040516104d191906142ac565b60405180910390f35b3480156104e657600080fd5b5061050160048036038101906104fc91906140d2565b6125cf565b60405161050e9190614218565b60405180910390f35b34801561052357600080fd5b5061053e600480360381019061053991906142f3565b6127a4565b60405161054b9190613f8a565b60405180910390f35b34801561056057600080fd5b5061057b60048036038101906105769190614771565b61280e565b6040516105889190613f8a565b60405180910390f35b34801561059d57600080fd5b506105b860048036038101906105b39190614698565b61282e565b6040516105c59190614703565b60405180910390f35b3480156105da57600080fd5b506105e3612869565b6040516105f091906142ac565b60405180910390f35b34801561060557600080fd5b5061060e612870565b60405161061b91906142ac565b60405180910390f35b34801561063057600080fd5b5061064b60048036038101906106469190614771565b612894565b005b34801561065957600080fd5b50610662612966565b005b34801561067057600080fd5b506106796129bd565b6040516106869190614703565b60405180910390f35b34801561069b57600080fd5b506106b660048036038101906106b19190614771565b6129c3565b6040516106c39190613f8a565b60405180910390f35b3480156106d857600080fd5b506106e16129e3565b6040516106ee91906142ac565b60405180910390f35b34801561070357600080fd5b5061070c612a07565b60405161071991906142ac565b60405180910390f35b34801561072e57600080fd5b506107496004803603810190610744919061479e565b612a2b565b6040516107569190613f8a565b60405180910390f35b34801561076b57600080fd5b50610786600480360381019061078191906142f3565b612d9a565b005b34801561079457600080fd5b506107af60048036038101906107aa9190614698565b612dbb565b6040516107bc9190614703565b60405180910390f35b3480156107d157600080fd5b506107da612df6565b6040516107e791906142ac565b60405180910390f35b3480156107fc57600080fd5b5061081760048036038101906108129190614771565b612e1a565b005b34801561082557600080fd5b50610840600480360381019061083b9190614810565b612eec565b005b34801561084e57600080fd5b506108576138d6565b60405161086491906142ac565b60405180910390f35b60007f7965db0b000000000000000000000000000000000000000000000000000000007bffffffffffffffffffffffffffffffffffffffffffffffffffffffff1916827bffffffffffffffffffffffffffffffffffffffffffffffffffffffff191614806108e057506108df826138dc565b5b9050919050565b60606006600086866001898990506108ff9190614893565b81811061090f5761090e6148c7565b5b90506020020160208101906109249190614771565b73ffffffffffffffffffffffffffffffffffffffff1673ffffffffffffffffffffffffffffffffffffffff16815260200190815260200160002060009054906101000a900460ff166109ab576040517f08c379a00000000000000000000000000000000000000000000000000000000081526004016109a290614979565b60405180910390fd5b8115610a3b578573ffffffffffffffffffffffffffffffffffffffff1663d06ca61f8487876040518463ffffffff1660e01b81526004016109ee93929190614a5c565b600060405180830381865afa158015610a0b573d6000803e3d6000fd5b505050506040513d6000823e3d601f19601f82011682018060405250810190610a349190614b66565b9050610ac1565b8573ffffffffffffffffffffffffffffffffffffffff16631f00ca748487876040518463ffffffff1660e01b8152600401610a7893929190614a5c565b600060405180830381865afa158015610a95573d6000803e3d6000fd5b505050506040513d6000823e3d601f19601f82011682018060405250810190610abe9190614b66565b90505b95945050505050565b6000806000838152602001908152602001600020600101549050919050565b7fc3ac32c0a18c6df298d6c34f1d387c7503049c673b1ba8dc711bf455de7c84a581565b7f6233bdaad55fd96c2011d270806774059f67f032fa475f70e0ff1c153fe9d19681565b610b3a82610aca565b610b4381613946565b610b4d838361395a565b505050565b610b5a613a3a565b73ffffffffffffffffffffffffffffffffffffffff168173ffffffffffffffffffffffffffffffffffffffff1614610bc7576040517f08c379a0000000000000000000000000000000000000000000000000000000008152600401610bbe90614c21565b60405180910390fd5b610bd18282613a42565b5050565b610bdd613b23565b600960009054906101000a900460ff16610c2c576040517f08c379a0000000000000000000000000000000000000000000000000000000008152600401610c2390614c8d565b60405180910390fd5b60066000858060200190610c409190614cbc565b6000818110610c5257610c516148c7565b5b9050602002016020810190610c679190614771565b73ffffffffffffffffffffffffffffffffffffffff1673ffffffffffffffffffffffffffffffffffffffff16815260200190815260200160002060009054906101000a900460ff16610cee576040517f08c379a0000000000000000000000000000000000000000000000000000000008152600401610ce590614979565b60405180910390fd5b60006003858060800190610d029190614d1f565b604051610d10929190614db2565b90815260200160405180910390206000868060200190610d309190614cbc565b6000818110610d4257610d416148c7565b5b9050602002016020810190610d579190614771565b73ffffffffffffffffffffffffffffffffffffffff1673ffffffffffffffffffffffffffffffffffffffff1681526020019081526020016000205414610dd2576040517f08c379a0000000000000000000000000000000000000000000000000000000008152600401610dc990614e17565b60405180910390fd5b6000846040013511610e19576040517f08c379a0000000000000000000000000000000000000000000000000000000008152600401610e1090614e83565b60405180910390fd5b60007fc3ac32c0a18c6df298d6c34f1d387c7503049c673b1ba8dc711bf455de7c84a5856000016020810190610e4f9190614ea3565b868060200190610e5f9190614cbc565b604051602001610e70929190614f5f565b6040516020818303038152906040528051906020012087604001358860600135898060800190610ea09190614d1f565b604051610eae929190614fa8565b6040518091039020604051602001610ecb96959493929190615020565b6040516020818303038152906040528051906020012090506000600160085483604051602001610efc9291906150ee565b6040516020818303038152906040528051906020012086868660405160008152602001604052604051610f329493929190615134565b6020604051602081039080840390855afa158015610f54573d6000803e3d6000fd5b505050602060405103519050600073ffffffffffffffffffffffffffffffffffffffff168173ffffffffffffffffffffffffffffffffffffffff1614158015610fe65750600560008273ffffffffffffffffffffffffffffffffffffffff1673ffffffffffffffffffffffffffffffffffffffff16815260200190815260200160002060009054906101000a900460ff165b611025576040517f08c379a000000000000000000000000000000000000000000000000000000000815260040161101c906151c5565b60405180910390fd5b6000606087600001602081019061103c9190614ea3565b73ffffffffffffffffffffffffffffffffffffffff1663ad5c46486040518163ffffffff1660e01b8152600401602060405180830381865afa158015611086573d6000803e3d6000fd5b505050506040513d601f19601f820116820180604052508101906110aa91906151fa565b73ffffffffffffffffffffffffffffffffffffffff168880602001906110d09190614cbc565b60008181106110e2576110e16148c7565b5b90506020020160208101906110f79190614771565b73ffffffffffffffffffffffffffffffffffffffff160361121e578760400135341015611159576040517f08c379a000000000000000000000000000000000000000000000000000000000815260040161115090615273565b60405180910390fd5b87600001602081019061116c9190614ea3565b73ffffffffffffffffffffffffffffffffffffffff16637ff36ab5348a606001358b806020019061119d9190614cbc565b30600f426111ab9190613ea2565b6040518763ffffffff1660e01b81526004016111cb9594939291906152a2565b60006040518083038185885af11580156111e9573d6000803e3d6000fd5b50505050506040513d6000823e3d601f19601f820116820180604052508101906112139190614b66565b9050600191506114e6565b87806020019061122e9190614cbc565b60008181106112405761123f6148c7565b5b90506020020160208101906112559190614771565b73ffffffffffffffffffffffffffffffffffffffff166323b872dd33308b604001356040518463ffffffff1660e01b8152600401611295939291906152f0565b6020604051808303816000875af11580156112b4573d6000803e3d6000fd5b505050506040513d601f19601f820116820180604052508101906112d8919061533c565b611317576040517f08c379a000000000000000000000000000000000000000000000000000000000815260040161130e906153db565b60405180910390fd5b8780602001906113279190614cbc565b6000818110611339576113386148c7565b5b905060200201602081019061134e9190614771565b73ffffffffffffffffffffffffffffffffffffffff1663095ea7b389600001602081019061137c9190614ea3565b8a604001356040518363ffffffff1660e01b815260040161139e9291906153fb565b6020604051808303816000875af11580156113bd573d6000803e3d6000fd5b505050506040513d601f19601f820116820180604052508101906113e1919061533c565b611420576040517f08c379a000000000000000000000000000000000000000000000000000000000815260040161141790615470565b60405180910390fd5b8760000160208101906114339190614ea3565b73ffffffffffffffffffffffffffffffffffffffff166338ed173989604001358a606001358b80602001906114689190614cbc565b30600f426114769190613ea2565b6040518763ffffffff1660e01b815260040161149796959493929190615490565b6000604051808303816000875af11580156114b6573d6000803e3d6000fd5b505050506040513d6000823e3d601f19601f820116820180604052508101906114df9190614b66565b9050600191505b81611526576040517f08c379a000000000000000000000000000000000000000000000000000000000815260040161151d90615538565b60405180910390fd5b8760400135600389806080019061153d9190614d1f565b60405161154b929190614db2565b908152602001604051809103902060008a806020019061156b9190614cbc565b600081811061157d5761157c6148c7565b5b90506020020160208101906115929190614771565b73ffffffffffffffffffffffffffffffffffffffff1673ffffffffffffffffffffffffffffffffffffffff168152602001908152602001600020819055507fde8ab502eca1dc6e36e4facdf241a6e506c0cf46c24980293ddf6268da3255998880602001906116019190614cbc565b6000818110611613576116126148c7565b5b90506020020160208101906116289190614771565b8960400135838b806080019061163e9190614d1f565b60405161164f959493929190615585565b60405180910390a150505050611663613b72565b50505050565b600960009054906101000a900460ff1681565b611684613b23565b600960009054906101000a900460ff166116d3576040517f08c379a00000000000000000000000000000000000000000000000000000000081526004016116ca90614c8d565b60405180910390fd5b600660008560200160208101906116ea9190614771565b73ffffffffffffffffffffffffffffffffffffffff1673ffffffffffffffffffffffffffffffffffffffff16815260200190815260200160002060009054906101000a900460ff16611771576040517f08c379a000000000000000000000000000000000000000000000000000000000815260040161176890614979565b60405180910390fd5b600060028580606001906117859190614d1f565b604051611793929190614db2565b908152602001604051809103902060008660200160208101906117b69190614771565b73ffffffffffffffffffffffffffffffffffffffff1673ffffffffffffffffffffffffffffffffffffffff1681526020019081526020016000205414611831576040517f08c379a000000000000000000000000000000000000000000000000000000000815260040161182890614e17565b60405180910390fd5b60007fe4e7f79e1b816a8339a2c34d2d40c092e0f7b0ae1141e64b225671b4af030f7d8560000160208101906118679190614771565b86602001602081019061187a9190614771565b876040013588806060019061188f9190614d1f565b60405161189d929190614fa8565b60405180910390206040516020016118b99594939291906155da565b60405160208183030381529060405280519060200120905060006001600854836040516020016118ea9291906150ee565b60405160208183030381529060405280519060200120868686604051600081526020016040526040516119209493929190615134565b6020604051602081039080840390855afa158015611942573d6000803e3d6000fd5b505050602060405103519050600073ffffffffffffffffffffffffffffffffffffffff168173ffffffffffffffffffffffffffffffffffffffff16141580156119d45750600560008273ffffffffffffffffffffffffffffffffffffffff1673ffffffffffffffffffffffffffffffffffffffff16815260200190815260200160002060009054906101000a900460ff165b611a13576040517f08c379a0000000000000000000000000000000000000000000000000000000008152600401611a0a906151c5565b60405180910390fd5b60008073ffffffffffffffffffffffffffffffffffffffff16876020016020810190611a3f9190614771565b73ffffffffffffffffffffffffffffffffffffffff1603611b42578660400135600a541015611aa3576040517f08c379a0000000000000000000000000000000000000000000000000000000008152600401611a9a90615679565b60405180910390fd5b8660400135600a54611ab59190614893565b600a81905550866000016020810190611ace9190614771565b73ffffffffffffffffffffffffffffffffffffffff168760400135604051611af5906156bf565b60006040518083038185875af1925050503d8060008114611b32576040519150601f19603f3d011682016040523d82523d6000602084013e611b37565b606091505b505080915050611cbd565b8660400135876020016020810190611b5a9190614771565b73ffffffffffffffffffffffffffffffffffffffff166370a08231306040518263ffffffff1660e01b8152600401611b9291906156d4565b602060405180830381865afa158015611baf573d6000803e3d6000fd5b505050506040513d601f19601f82011682018060405250810190611bd391906156ef565b1015611c14576040517f08c379a0000000000000000000000000000000000000000000000000000000008152600401611c0b90615679565b60405180910390fd5b866020016020810190611c279190614771565b73ffffffffffffffffffffffffffffffffffffffff1663a9059cbb886000016020810190611c559190614771565b89604001356040518363ffffffff1660e01b8152600401611c779291906153fb565b6020604051808303816000875af1158015611c96573d6000803e3d6000fd5b505050506040513d601f19601f82011682018060405250810190611cba919061533c565b90505b80611cfd576040517f08c379a0000000000000000000000000000000000000000000000000000000008152600401611cf490615538565b60405180910390fd5b86604001356002888060600190611d149190614d1f565b604051611d22929190614db2565b90815260200160405180910390206000896020016020810190611d459190614771565b73ffffffffffffffffffffffffffffffffffffffff1673ffffffffffffffffffffffffffffffffffffffff168152602001908152602001600020819055507f0325f11443fd5933e69141c212f23e164610182b2b88a76e4120ef0fd9824f15876020016020810190611db79190614771565b8860400135896000016020810190611dcf9190614771565b8a8060600190611ddf9190614d1f565b604051611df095949392919061571c565b60405180910390a1505050611e03613b72565b50505050565b611e11613b23565b600960009054906101000a900460ff16611e60576040517f08c379a0000000000000000000000000000000000000000000000000000000008152600401611e5790614c8d565b60405180910390fd5b60066000856000016020810190611e779190614771565b73ffffffffffffffffffffffffffffffffffffffff1673ffffffffffffffffffffffffffffffffffffffff16815260200190815260200160002060009054906101000a900460ff16611efe576040517f08c379a0000000000000000000000000000000000000000000000000000000008152600401611ef590614979565b60405180910390fd5b60006004858060400190611f129190614d1f565b604051611f20929190614db2565b90815260200160405180910390206000866000016020810190611f439190614771565b73ffffffffffffffffffffffffffffffffffffffff1673ffffffffffffffffffffffffffffffffffffffff1681526020019081526020016000205414611fbe576040517f08c379a0000000000000000000000000000000000000000000000000000000008152600401611fb590614e17565b60405180910390fd5b6000846020013511612005576040517f08c379a0000000000000000000000000000000000000000000000000000000008152600401611ffc90614e83565b60405180910390fd5b60007f6233bdaad55fd96c2011d270806774059f67f032fa475f70e0ff1c153fe9d19685600001602081019061203b9190614771565b86602001358780604001906120509190614d1f565b60405161205e929190614fa8565b6040518091039020604051602001612079949392919061576a565b60405160208183030381529060405280519060200120905060006001600854836040516020016120aa9291906150ee565b60405160208183030381529060405280519060200120868686604051600081526020016040526040516120e09493929190615134565b6020604051602081039080840390855afa158015612102573d6000803e3d6000fd5b505050602060405103519050600073ffffffffffffffffffffffffffffffffffffffff168173ffffffffffffffffffffffffffffffffffffffff16141580156121945750600560008273ffffffffffffffffffffffffffffffffffffffff1673ffffffffffffffffffffffffffffffffffffffff16815260200190815260200160002060009054906101000a900460ff165b6121d3576040517f08c379a00000000000000000000000000000000000000000000000000000000081526004016121ca906151c5565b60405180910390fd5b600073ffffffffffffffffffffffffffffffffffffffff168660000160208101906121fe9190614771565b73ffffffffffffffffffffffffffffffffffffffff1603612265578560200135341015612260576040517f08c379a000000000000000000000000000000000000000000000000000000000815260040161225790615273565b60405180910390fd5b61233b565b8560000160208101906122789190614771565b73ffffffffffffffffffffffffffffffffffffffff166323b872dd333089602001356040518463ffffffff1660e01b81526004016122b8939291906152f0565b6020604051808303816000875af11580156122d7573d6000803e3d6000fd5b505050506040513d601f19601f820116820180604052508101906122fb919061533c565b61233a576040517f08c379a0000000000000000000000000000000000000000000000000000000008152600401612331906157fb565b60405180910390fd5b5b856020013560048780604001906123529190614d1f565b604051612360929190614db2565b908152602001604051809103902060008860000160208101906123839190614771565b73ffffffffffffffffffffffffffffffffffffffff1673ffffffffffffffffffffffffffffffffffffffff168152602001908152602001600020819055507f59d22f0ec9589b7a809ac3ab066e0dc96f05443380d1e565b7cc68a99de969758660000160208101906123f59190614771565b876020013588806040019061240a9190614d1f565b60405161241a949392919061581b565b60405180910390a1505061242c613b72565b50505050565b600382805160208101820180518482526020830160208501208183528095505050505050602052806000526040600020600091509150505481565b7fa49807205ce4d355092ef5a8a18f56e8913cf4a201fbe287825b095693c2177561249781613946565b600073ffffffffffffffffffffffffffffffffffffffff168373ffffffffffffffffffffffffffffffffffffffff1603612506576040517f08c379a00000000000000000000000000000000000000000000000000000000081526004016124fd906158a7565b60405180910390fd5b8373ffffffffffffffffffffffffffffffffffffffff1663095ea7b384846040518363ffffffff1660e01b81526004016125419291906153fb565b6020604051808303816000875af1158015612560573d6000803e3d6000fd5b505050506040513d601f19601f82011682018060405250810190612584919061533c565b5050505050565b60056020528060005260406000206000915054906101000a900460ff1681565b7fa49807205ce4d355092ef5a8a18f56e8913cf4a201fbe287825b095693c2177581565b606060066000868660008181106125e9576125e86148c7565b5b90506020020160208101906125fe9190614771565b73ffffffffffffffffffffffffffffffffffffffff1673ffffffffffffffffffffffffffffffffffffffff16815260200190815260200160002060009054906101000a900460ff16612685576040517f08c379a000000000000000000000000000000000000000000000000000000000815260040161267c90614979565b60405180910390fd5b8115612715578573ffffffffffffffffffffffffffffffffffffffff1663d06ca61f8487876040518463ffffffff1660e01b81526004016126c893929190614a5c565b600060405180830381865afa1580156126e5573d6000803e3d6000fd5b505050506040513d6000823e3d601f19601f8201168201806040525081019061270e9190614b66565b905061279b565b8573ffffffffffffffffffffffffffffffffffffffff16631f00ca748487876040518463ffffffff1660e01b815260040161275293929190614a5c565b600060405180830381865afa15801561276f573d6000803e3d6000fd5b505050506040513d6000823e3d601f19601f820116820180604052508101906127989190614b66565b90505b95945050505050565b600080600084815260200190815260200160002060000160008373ffffffffffffffffffffffffffffffffffffffff1673ffffffffffffffffffffffffffffffffffffffff16815260200190815260200160002060009054906101000a900460ff16905092915050565b60076020528060005260406000206000915054906101000a900460ff1681565b600282805160208101820180518482526020830160208501208183528095505050505050602052806000526040600020600091509150505481565b6000801b81565b7fc7ef086ebac56f7e2a320076691a1d8b60903518618208753ff37fd1bdaf789281565b7fb19546dff01e856fb3f010c267a7b1c60363cf8a4664e21cc89c26224620214e6128be81613946565b600560008373ffffffffffffffffffffffffffffffffffffffff1673ffffffffffffffffffffffffffffffffffffffff16815260200190815260200160002060009054906101000a900460ff1615600560008473ffffffffffffffffffffffffffffffffffffffff1673ffffffffffffffffffffffffffffffffffffffff16815260200190815260200160002060006101000a81548160ff0219169083151502179055505050565b7fb19546dff01e856fb3f010c267a7b1c60363cf8a4664e21cc89c26224620214e61299081613946565b600960009054906101000a900460ff1615600960006101000a81548160ff02191690831515021790555050565b600a5481565b60066020528060005260406000206000915054906101000a900460ff1681565b7fe4e7f79e1b816a8339a2c34d2d40c092e0f7b0ae1141e64b225671b4af030f7d81565b7f8cad95687ba82c2ce50e74f7b754645e5117c3a5bec8151c0726d5857980a86681565b60007fb19546dff01e856fb3f010c267a7b1c60363cf8a4664e21cc89c26224620214e612a5781613946565b600073ffffffffffffffffffffffffffffffffffffffff168373ffffffffffffffffffffffffffffffffffffffff1603612ac6576040517f08c379a0000000000000000000000000000000000000000000000000000000008152600401612abd90615913565b60405180910390fd5b600760008473ffffffffffffffffffffffffffffffffffffffff1673ffffffffffffffffffffffffffffffffffffffff16815260200190815260200160002060009054906101000a900460ff16612b52576040517f08c379a0000000000000000000000000000000000000000000000000000000008152600401612b49906159a5565b60405180910390fd5b60008073ffffffffffffffffffffffffffffffffffffffff168673ffffffffffffffffffffffffffffffffffffffff1603612c515784600a541015612bcc576040517f08c379a0000000000000000000000000000000000000000000000000000000008152600401612bc390615679565b60405180910390fd5b84600a54612bda9190614893565b600a819055508373ffffffffffffffffffffffffffffffffffffffff1685604051612c04906156bf565b60006040518083038185875af1925050503d8060008114612c41576040519150601f19603f3d011682016040523d82523d6000602084013e612c46565b606091505b505080915050612d8e565b848673ffffffffffffffffffffffffffffffffffffffff166370a08231306040518263ffffffff1660e01b8152600401612c8b91906156d4565b602060405180830381865afa158015612ca8573d6000803e3d6000fd5b505050506040513d601f19601f82011682018060405250810190612ccc91906156ef565b1015612d0d576040517f08c379a0000000000000000000000000000000000000000000000000000000008152600401612d0490615a11565b60405180910390fd5b8573ffffffffffffffffffffffffffffffffffffffff1663a9059cbb85876040518363ffffffff1660e01b8152600401612d489291906153fb565b6020604051808303816000875af1158015612d67573d6000803e3d6000fd5b505050506040513d601f19601f82011682018060405250810190612d8b919061533c565b90505b80925050509392505050565b612da382610aca565b612dac81613946565b612db68383613a42565b505050565b600482805160208101820180518482526020830160208501208183528095505050505050602052806000526040600020600091509150505481565b7fb19546dff01e856fb3f010c267a7b1c60363cf8a4664e21cc89c26224620214e81565b7fa49807205ce4d355092ef5a8a18f56e8913cf4a201fbe287825b095693c21775612e4481613946565b600660008373ffffffffffffffffffffffffffffffffffffffff1673ffffffffffffffffffffffffffffffffffffffff16815260200190815260200160002060009054906101000a900460ff1615600660008473ffffffffffffffffffffffffffffffffffffffff1673ffffffffffffffffffffffffffffffffffffffff16815260200190815260200160002060006101000a81548160ff0219169083151502179055505050565b612ef4613b23565b600960009054906101000a900460ff16612f43576040517f08c379a0000000000000000000000000000000000000000000000000000000008152600401612f3a90614c8d565b60405180910390fd5b60066000858060400190612f579190614cbc565b6001888060400190612f699190614cbc565b9050612f759190614893565b818110612f8557612f846148c7565b5b9050602002016020810190612f9a9190614771565b73ffffffffffffffffffffffffffffffffffffffff1673ffffffffffffffffffffffffffffffffffffffff16815260200190815260200160002060009054906101000a900460ff16613021576040517f08c379a000000000000000000000000000000000000000000000000000000000815260040161301890614979565b60405180910390fd5b60006003858060a001906130359190614d1f565b604051613043929190614db2565b908152602001604051809103902060008680604001906130639190614cbc565b60018980604001906130759190614cbc565b90506130819190614893565b818110613091576130906148c7565b5b90506020020160208101906130a69190614771565b73ffffffffffffffffffffffffffffffffffffffff1673ffffffffffffffffffffffffffffffffffffffff1681526020019081526020016000205414613121576040517f08c379a000000000000000000000000000000000000000000000000000000000815260040161311890614e17565b60405180910390fd5b60007fc7ef086ebac56f7e2a320076691a1d8b60903518618208753ff37fd1bdaf78928560000160208101906131579190614771565b86602001602081019061316a9190614ea3565b87806040019061317a9190614cbc565b60405160200161318b929190614f5f565b60405160208183030381529060405280519060200120886060013589608001358a8060a001906131bb9190614d1f565b6040516131c9929190614fa8565b60405180910390206040516020016131e79796959493929190615a31565b60405160208183030381529060405280519060200120905060006001600854836040516020016132189291906150ee565b604051602081830303815290604052805190602001208686866040516000815260200160405260405161324e9493929190615134565b6020604051602081039080840390855afa158015613270573d6000803e3d6000fd5b505050602060405103519050600073ffffffffffffffffffffffffffffffffffffffff168173ffffffffffffffffffffffffffffffffffffffff16141580156133025750600560008273ffffffffffffffffffffffffffffffffffffffff1673ffffffffffffffffffffffffffffffffffffffff16815260200190815260200160002060009054906101000a900460ff165b613341576040517f08c379a0000000000000000000000000000000000000000000000000000000008152600401613338906151c5565b60405180910390fd5b600060608780604001906133559190614cbc565b6000818110613367576133666148c7565b5b905060200201602081019061337c9190614771565b73ffffffffffffffffffffffffffffffffffffffff1663095ea7b38960200160208101906133aa9190614ea3565b8a606001356040518363ffffffff1660e01b81526004016133cc9291906153fb565b6020604051808303816000875af11580156133eb573d6000803e3d6000fd5b505050506040513d601f19601f8201168201806040525081019061340f919061533c565b61344e576040517f08c379a000000000000000000000000000000000000000000000000000000000815260040161344590615470565b60405180910390fd5b8760200160208101906134619190614ea3565b73ffffffffffffffffffffffffffffffffffffffff1663ad5c46486040518163ffffffff1660e01b8152600401602060405180830381865afa1580156134ab573d6000803e3d6000fd5b505050506040513d601f19601f820116820180604052508101906134cf91906151fa565b73ffffffffffffffffffffffffffffffffffffffff168880604001906134f59190614cbc565b60018b80604001906135079190614cbc565b90506135139190614893565b818110613523576135226148c7565b5b90506020020160208101906135389190614771565b73ffffffffffffffffffffffffffffffffffffffff160361362f578760200160208101906135669190614ea3565b73ffffffffffffffffffffffffffffffffffffffff166318cbafe589606001358a608001358b806040019061359b9190614cbc565b8d60000160208101906135ae9190614771565b600f426135bb9190613ea2565b6040518763ffffffff1660e01b81526004016135dc96959493929190615490565b6000604051808303816000875af11580156135fb573d6000803e3d6000fd5b505050506040513d6000823e3d601f19601f820116820180604052508101906136249190614b66565b905060019150613707565b8760200160208101906136429190614ea3565b73ffffffffffffffffffffffffffffffffffffffff166338ed173989606001358a608001358b80604001906136779190614cbc565b8d600001602081019061368a9190614771565b600f426136979190613ea2565b6040518763ffffffff1660e01b81526004016136b896959493929190615490565b6000604051808303816000875af11580156136d7573d6000803e3d6000fd5b505050506040513d6000823e3d601f19601f820116820180604052508101906137009190614b66565b9050600191505b81613747576040517f08c379a000000000000000000000000000000000000000000000000000000000815260040161373e90615538565b60405180910390fd5b87606001356003898060a0019061375e9190614d1f565b60405161376c929190614db2565b908152602001604051809103902060008a806040019061378c9190614cbc565b60018d806040019061379e9190614cbc565b90506137aa9190614893565b8181106137ba576137b96148c7565b5b90506020020160208101906137cf9190614771565b73ffffffffffffffffffffffffffffffffffffffff1673ffffffffffffffffffffffffffffffffffffffff168152602001908152602001600020819055507f82fbf955e054e1eb2d30310d1f458663c12ea37f58476b487ed83247d309375088806040019061383e9190614cbc565b60018b80604001906138509190614cbc565b905061385c9190614893565b81811061386c5761386b6148c7565b5b90506020020160208101906138819190614771565b8960600135838b600001602081019061389a9190614771565b8c8060a001906138aa9190614d1f565b6040516138bc96959493929190615aa0565b60405180910390a1505050506138d0613b72565b50505050565b60085481565b60007f01ffc9a7000000000000000000000000000000000000000000000000000000007bffffffffffffffffffffffffffffffffffffffffffffffffffffffff1916827bffffffffffffffffffffffffffffffffffffffffffffffffffffffff1916149050919050565b61395781613952613a3a565b613b7b565b50565b61396482826127a4565b613a3657600160008084815260200190815260200160002060000160008373ffffffffffffffffffffffffffffffffffffffff1673ffffffffffffffffffffffffffffffffffffffff16815260200190815260200160002060006101000a81548160ff0219169083151502179055506139db613a3a565b73ffffffffffffffffffffffffffffffffffffffff168173ffffffffffffffffffffffffffffffffffffffff16837f2f8788117e7eff1d82e926ec794901d17c78024a50270940304540a733656f0d60405160405180910390a45b5050565b600033905090565b613a4c82826127a4565b15613b1f57600080600084815260200190815260200160002060000160008373ffffffffffffffffffffffffffffffffffffffff1673ffffffffffffffffffffffffffffffffffffffff16815260200190815260200160002060006101000a81548160ff021916908315150217905550613ac4613a3a565b73ffffffffffffffffffffffffffffffffffffffff168173ffffffffffffffffffffffffffffffffffffffff16837ff6391f5c32d9c69d2a47ea670b442974b53935d1edc7fd64eb21e047a839171b60405160405180910390a45b5050565b600260015403613b68576040517f08c379a0000000000000000000000000000000000000000000000000000000008152600401613b5f90615b4f565b60405180910390fd5b6002600181905550565b60018081905550565b613b8582826127a4565b613bfc57613b9281613c00565b613ba08360001c6020613c2d565b604051602001613bb1929190615c6d565b6040516020818303038152906040526040517f08c379a0000000000000000000000000000000000000000000000000000000008152600401613bf39190615ce0565b60405180910390fd5b5050565b6060613c268273ffffffffffffffffffffffffffffffffffffffff16601460ff16613c2d565b9050919050565b606060006002836002613c409190615d02565b613c4a9190613ea2565b67ffffffffffffffff811115613c6357613c6261456d565b5b6040519080825280601f01601f191660200182016040528015613c955781602001600182028036833780820191505090505b5090507f300000000000000000000000000000000000000000000000000000000000000081600081518110613ccd57613ccc6148c7565b5b60200101907effffffffffffffffffffffffffffffffffffffffffffffffffffffffffffff1916908160001a9053507f780000000000000000000000000000000000000000000000000000000000000081600181518110613d3157613d306148c7565b5b60200101907effffffffffffffffffffffffffffffffffffffffffffffffffffffffffffff1916908160001a90535060006001846002613d719190615d02565b613d7b9190613ea2565b90505b6001811115613e1b577f3031323334353637383961626364656600000000000000000000000000000000600f861660108110613dbd57613dbc6148c7565b5b1a60f81b828281518110613dd457613dd36148c7565b5b60200101907effffffffffffffffffffffffffffffffffffffffffffffffffffffffffffff1916908160001a905350600485901c945080613e1490615d44565b9050613d7e565b5060008414613e5f576040517f08c379a0000000000000000000000000000000000000000000000000000000008152600401613e5690615db9565b60405180910390fd5b8091505092915050565b6000819050919050565b7f4e487b7100000000000000000000000000000000000000000000000000000000600052601160045260246000fd5b6000613ead82613e69565b9150613eb883613e69565b9250828201905080821115613ed057613ecf613e73565b5b92915050565b6000604051905090565b600080fd5b600080fd5b60007fffffffff0000000000000000000000000000000000000000000000000000000082169050919050565b613f1f81613eea565b8114613f2a57600080fd5b50565b600081359050613f3c81613f16565b92915050565b600060208284031215613f5857613f57613ee0565b5b6000613f6684828501613f2d565b91505092915050565b60008115159050919050565b613f8481613f6f565b82525050565b6000602082019050613f9f6000830184613f7b565b92915050565b600073ffffffffffffffffffffffffffffffffffffffff82169050919050565b6000613fd082613fa5565b9050919050565b6000613fe282613fc5565b9050919050565b613ff281613fd7565b8114613ffd57600080fd5b50565b60008135905061400f81613fe9565b92915050565b600080fd5b600080fd5b600080fd5b60008083601f84011261403a57614039614015565b5b8235905067ffffffffffffffff8111156140575761405661401a565b5b6020830191508360208202830111156140735761407261401f565b5b9250929050565b61408381613e69565b811461408e57600080fd5b50565b6000813590506140a08161407a565b92915050565b6140af81613f6f565b81146140ba57600080fd5b50565b6000813590506140cc816140a6565b92915050565b6000806000806000608086880312156140ee576140ed613ee0565b5b60006140fc88828901614000565b955050602086013567ffffffffffffffff81111561411d5761411c613ee5565b5b61412988828901614024565b9450945050604061413c88828901614091565b925050606061414d888289016140bd565b9150509295509295909350565b600081519050919050565b600082825260208201905092915050565b6000819050602082019050919050565b61418f81613e69565b82525050565b60006141a18383614186565b60208301905092915050565b6000602082019050919050565b60006141c58261415a565b6141cf8185614165565b93506141da83614176565b8060005b8381101561420b5781516141f28882614195565b97506141fd836141ad565b9250506001810190506141de565b5085935050505092915050565b6000602082019050818103600083015261423281846141ba565b905092915050565b6000819050919050565b61424d8161423a565b811461425857600080fd5b50565b60008135905061426a81614244565b92915050565b60006020828403121561428657614285613ee0565b5b60006142948482850161425b565b91505092915050565b6142a68161423a565b82525050565b60006020820190506142c1600083018461429d565b92915050565b6142d081613fc5565b81146142db57600080fd5b50565b6000813590506142ed816142c7565b92915050565b6000806040838503121561430a57614309613ee0565b5b60006143188582860161425b565b9250506020614329858286016142de565b9150509250929050565b600080fd5b600060a0828403121561434e5761434d614333565b5b81905092915050565b600060ff82169050919050565b61436d81614357565b811461437857600080fd5b50565b60008135905061438a81614364565b92915050565b600080600080608085870312156143aa576143a9613ee0565b5b600085013567ffffffffffffffff8111156143c8576143c7613ee5565b5b6143d487828801614338565b94505060206143e58782880161437b565b93505060406143f68782880161425b565b92505060606144078782880161425b565b91505092959194509250565b60006080828403121561442957614428614333565b5b81905092915050565b6000806000806080858703121561444c5761444b613ee0565b5b600085013567ffffffffffffffff81111561446a57614469613ee5565b5b61447687828801614413565b94505060206144878782880161437b565b93505060406144988782880161425b565b92505060606144a98782880161425b565b91505092959194509250565b6000606082840312156144cb576144ca614333565b5b81905092915050565b600080600080608085870312156144ee576144ed613ee0565b5b600085013567ffffffffffffffff81111561450c5761450b613ee5565b5b614518878288016144b5565b94505060206145298782880161437b565b935050604061453a8782880161425b565b925050606061454b8782880161425b565b91505092959194509250565b600080fd5b6000601f19601f8301169050919050565b7f4e487b7100000000000000000000000000000000000000000000000000000000600052604160045260246000fd5b6145a58261455c565b810181811067ffffffffffffffff821117156145c4576145c361456d565b5b80604052505050565b60006145d7613ed6565b90506145e3828261459c565b919050565b600067ffffffffffffffff8211156146035761460261456d565b5b61460c8261455c565b9050602081019050919050565b82818337600083830152505050565b600061463b614636846145e8565b6145cd565b90508281526020810184848401111561465757614656614557565b5b614662848285614619565b509392505050565b600082601f83011261467f5761467e614015565b5b813561468f848260208601614628565b91505092915050565b600080604083850312156146af576146ae613ee0565b5b600083013567ffffffffffffffff8111156146cd576146cc613ee5565b5b6146d98582860161466a565b92505060206146ea858286016142de565b9150509250929050565b6146fd81613e69565b82525050565b600060208201905061471860008301846146f4565b92915050565b60008060006060848603121561473757614736613ee0565b5b6000614745868287016142de565b9350506020614756868287016142de565b925050604061476786828701614091565b9150509250925092565b60006020828403121561478757614786613ee0565b5b6000614795848285016142de565b91505092915050565b6000806000606084860312156147b7576147b6613ee0565b5b60006147c5868287016142de565b93505060206147d686828701614091565b92505060406147e7868287016142de565b9150509250925092565b600060c0828403121561480757614806614333565b5b81905092915050565b6000806000806080858703121561482a57614829613ee0565b5b600085013567ffffffffffffffff81111561484857614847613ee5565b5b614854878288016147f1565b94505060206148658782880161437b565b93505060406148768782880161425b565b92505060606148878782880161425b565b91505092959194509250565b600061489e82613e69565b91506148a983613e69565b92508282039050818111156148c1576148c0613e73565b5b92915050565b7f4e487b7100000000000000000000000000000000000000000000000000000000600052603260045260246000fd5b600082825260208201905092915050565b7f52616d70536572766963653a206173736574206973206e6f7420737570706f7260008201527f7465640000000000000000000000000000000000000000000000000000000000602082015250565b60006149636023836148f6565b915061496e82614907565b604082019050919050565b6000602082019050818103600083015261499281614956565b9050919050565b600082825260208201905092915050565b6000819050919050565b6149bd81613fc5565b82525050565b60006149cf83836149b4565b60208301905092915050565b60006149ea60208401846142de565b905092915050565b6000602082019050919050565b6000614a0b8385614999565b9350614a16826149aa565b8060005b85811015614a4f57614a2c82846149db565b614a3688826149c3565b9750614a41836149f2565b925050600181019050614a1a565b5085925050509392505050565b6000604082019050614a7160008301866146f4565b8181036020830152614a848184866149ff565b9050949350505050565b600067ffffffffffffffff821115614aa957614aa861456d565b5b602082029050602081019050919050565b600081519050614ac98161407a565b92915050565b6000614ae2614add84614a8e565b6145cd565b90508083825260208201905060208402830185811115614b0557614b0461401f565b5b835b81811015614b2e5780614b1a8882614aba565b845260208401935050602081019050614b07565b5050509392505050565b600082601f830112614b4d57614b4c614015565b5b8151614b5d848260208601614acf565b91505092915050565b600060208284031215614b7c57614b7b613ee0565b5b600082015167ffffffffffffffff811115614b9a57614b99613ee5565b5b614ba684828501614b38565b91505092915050565b7f416363657373436f6e74726f6c3a2063616e206f6e6c792072656e6f756e636560008201527f20726f6c657320666f722073656c660000000000000000000000000000000000602082015250565b6000614c0b602f836148f6565b9150614c1682614baf565b604082019050919050565b60006020820190508181036000830152614c3a81614bfe565b9050919050565b7f52616d70536572766963653a2053657276696365206973206f66660000000000600082015250565b6000614c77601b836148f6565b9150614c8282614c41565b602082019050919050565b60006020820190508181036000830152614ca681614c6a565b9050919050565b600080fd5b600080fd5b600080fd5b60008083356001602003843603038112614cd957614cd8614cad565b5b80840192508235915067ffffffffffffffff821115614cfb57614cfa614cb2565b5b602083019250602082023603831315614d1757614d16614cb7565b5b509250929050565b60008083356001602003843603038112614d3c57614d3b614cad565b5b80840192508235915067ffffffffffffffff821115614d5e57614d5d614cb2565b5b602083019250600182023603831315614d7a57614d79614cb7565b5b509250929050565b600081905092915050565b6000614d998385614d82565b9350614da6838584614619565b82840190509392505050565b6000614dbf828486614d8d565b91508190509392505050565b7f52616d70536572766963653a2074786964206973206578697374656400000000600082015250565b6000614e01601c836148f6565b9150614e0c82614dcb565b602082019050919050565b60006020820190508181036000830152614e3081614df4565b9050919050565b7f52616d70536572766963653a20616d6f756e7420697320696e76616c69640000600082015250565b6000614e6d601e836148f6565b9150614e7882614e37565b602082019050919050565b60006020820190508181036000830152614e9c81614e60565b9050919050565b600060208284031215614eb957614eb8613ee0565b5b6000614ec784828501614000565b91505092915050565b600081905092915050565b614ee481613fc5565b82525050565b6000614ef68383614edb565b60208301905092915050565b6000614f0e8385614ed0565b9350614f19826149aa565b8060005b85811015614f5257614f2f82846149db565b614f398882614eea565b9750614f44836149f2565b925050600181019050614f1d565b5085925050509392505050565b6000614f6c828486614f02565b91508190509392505050565b600081905092915050565b6000614f8f8385614f78565b9350614f9c838584614619565b82840190509392505050565b6000614fb5828486614f83565b91508190509392505050565b6000819050919050565b6000614fe6614fe1614fdc84613fa5565b614fc1565b613fa5565b9050919050565b6000614ff882614fcb565b9050919050565b600061500a82614fed565b9050919050565b61501a81614fff565b82525050565b600060c082019050615035600083018961429d565b6150426020830188615011565b61504f604083018761429d565b61505c60608301866146f4565b61506960808301856146f4565b61507660a083018461429d565b979650505050505050565b7f1901000000000000000000000000000000000000000000000000000000000000600082015250565b60006150b7600283614d82565b91506150c282615081565b600282019050919050565b6000819050919050565b6150e86150e38261423a565b6150cd565b82525050565b60006150f9826150aa565b915061510582856150d7565b60208201915061511582846150d7565b6020820191508190509392505050565b61512e81614357565b82525050565b6000608082019050615149600083018761429d565b6151566020830186615125565b615163604083018561429d565b615170606083018461429d565b95945050505050565b7f52616d70536572766963653a20696e76616c6964207369676e61747572650000600082015250565b60006151af601e836148f6565b91506151ba82615179565b602082019050919050565b600060208201905081810360008301526151de816151a2565b9050919050565b6000815190506151f4816142c7565b92915050565b6000602082840312156152105761520f613ee0565b5b600061521e848285016151e5565b91505092915050565b7f52616d70536572766963653a20616d6f756e742069732077726f6e6700000000600082015250565b600061525d601c836148f6565b915061526882615227565b602082019050919050565b6000602082019050818103600083015261528c81615250565b9050919050565b61529c81613fc5565b82525050565b60006080820190506152b760008301886146f4565b81810360208301526152ca8186886149ff565b90506152d96040830185615293565b6152e660608301846146f4565b9695505050505050565b60006060820190506153056000830186615293565b6153126020830185615293565b61531f60408301846146f4565b949350505050565b600081519050615336816140a6565b92915050565b60006020828403121561535257615351613ee0565b5b600061536084828501615327565b91505092915050565b7f52616d70536572766963653a204661696c6564205472616e7366657272696e6760008201527f2066726f6d2063616c6c65720000000000000000000000000000000000000000602082015250565b60006153c5602c836148f6565b91506153d082615369565b604082019050919050565b600060208201905081810360008301526153f4816153b8565b9050919050565b60006040820190506154106000830185615293565b61541d60208301846146f4565b9392505050565b7f52616d70536572766963653a204661696c656420617070726f76616c00000000600082015250565b600061545a601c836148f6565b915061546582615424565b602082019050919050565b600060208201905081810360008301526154898161544d565b9050919050565b600060a0820190506154a560008301896146f4565b6154b260208301886146f4565b81810360408301526154c58186886149ff565b90506154d46060830185615293565b6154e160808301846146f4565b979650505050505050565b7f52616d70536572766963653a204661696c65642050726f63657373696e670000600082015250565b6000615522601e836148f6565b915061552d826154ec565b602082019050919050565b6000602082019050818103600083015261555181615515565b9050919050565b600061556483856148f6565b9350615571838584614619565b61557a8361455c565b840190509392505050565b600060808201905061559a6000830188615293565b6155a760208301876146f4565b81810360408301526155b981866141ba565b905081810360608301526155ce818486615558565b90509695505050505050565b600060a0820190506155ef600083018861429d565b6155fc6020830187615293565b6156096040830186615293565b61561660608301856146f4565b615623608083018461429d565b9695505050505050565b7f52616d70536572766963653a206173736574206973206e6f7420656e6f756768600082015250565b60006156636020836148f6565b915061566e8261562d565b602082019050919050565b6000602082019050818103600083015261569281615656565b9050919050565b50565b60006156a9600083614f78565b91506156b482615699565b600082019050919050565b60006156ca8261569c565b9150819050919050565b60006020820190506156e96000830184615293565b92915050565b60006020828403121561570557615704613ee0565b5b600061571384828501614aba565b91505092915050565b60006080820190506157316000830188615293565b61573e60208301876146f4565b61574b6040830186615293565b818103606083015261575e818486615558565b90509695505050505050565b600060808201905061577f600083018761429d565b61578c6020830186615293565b61579960408301856146f4565b6157a6606083018461429d565b95945050505050565b7f52616d70536572766963653a204661696c6564205472616e7366657272696e67600082015250565b60006157e56020836148f6565b91506157f0826157af565b602082019050919050565b60006020820190508181036000830152615814816157d8565b9050919050565b60006060820190506158306000830187615293565b61583d60208301866146f4565b8181036040830152615850818486615558565b905095945050505050565b7f52616d70536572766963653a2077726f6e6720726f7574657200000000000000600082015250565b60006158916019836148f6565b915061589c8261585b565b602082019050919050565b600060208201905081810360008301526158c081615884565b9050919050565b7f52616d70536572766963653a20696e76616c6964207175657279000000000000600082015250565b60006158fd601a836148f6565b9150615908826158c7565b602082019050919050565b6000602082019050818103600083015261592c816158f0565b9050919050565b7f457363726f77536572766963653a2061646472657373206e6f7420696e20616460008201527f6472657373426f6f6b0000000000000000000000000000000000000000000000602082015250565b600061598f6029836148f6565b915061599a82615933565b604082019050919050565b600060208201905081810360008301526159be81615982565b9050919050565b7f52616d70536572766963653a20546f6b656e206973206e6f7420656e6f756768600082015250565b60006159fb6020836148f6565b9150615a06826159c5565b602082019050919050565b60006020820190508181036000830152615a2a816159ee565b9050919050565b600060e082019050615a46600083018a61429d565b615a536020830189615293565b615a606040830188615011565b615a6d606083018761429d565b615a7a60808301866146f4565b615a8760a08301856146f4565b615a9460c083018461429d565b98975050505050505050565b600060a082019050615ab56000830189615293565b615ac260208301886146f4565b8181036040830152615ad481876141ba565b9050615ae36060830186615293565b8181036080830152615af6818486615558565b9050979650505050505050565b7f5265656e7472616e637947756172643a207265656e7472616e742063616c6c00600082015250565b6000615b39601f836148f6565b9150615b4482615b03565b602082019050919050565b60006020820190508181036000830152615b6881615b2c565b9050919050565b7f416363657373436f6e74726f6c3a206163636f756e7420000000000000000000600082015250565b6000615ba5601783614d82565b9150615bb082615b6f565b601782019050919050565b600081519050919050565b60005b83811015615be4578082015181840152602081019050615bc9565b60008484015250505050565b6000615bfb82615bbb565b615c058185614d82565b9350615c15818560208601615bc6565b80840191505092915050565b7f206973206d697373696e6720726f6c6520000000000000000000000000000000600082015250565b6000615c57601183614d82565b9150615c6282615c21565b601182019050919050565b6000615c7882615b98565b9150615c848285615bf0565b9150615c8f82615c4a565b9150615c9b8284615bf0565b91508190509392505050565b6000615cb282615bbb565b615cbc81856148f6565b9350615ccc818560208601615bc6565b615cd58161455c565b840191505092915050565b60006020820190508181036000830152615cfa8184615ca7565b905092915050565b6000615d0d82613e69565b9150615d1883613e69565b9250828202615d2681613e69565b91508282048414831517615d3d57615d3c613e73565b5b5092915050565b6000615d4f82613e69565b915060008203615d6257615d61613e73565b5b600182039050919050565b7f537472696e67733a20686578206c656e67746820696e73756666696369656e74600082015250565b6000615da36020836148f6565b9150615dae82615d6d565b602082019050919050565b60006020820190508181036000830152615dd281615d96565b905091905056fea264697066735822122003bc482f88383af2f5fd5ea99970492f42eea0bb028f134d102e26e267a4753764736f6c63430008120033",
			"opcodes": "PUSH1 0x80 PUSH1 0x40 MSTORE CALLVALUE DUP1 ISZERO PUSH3 0x11 JUMPI PUSH1 0x0 DUP1 REVERT JUMPDEST POP PUSH1 0x1 DUP1 DUP2 SWAP1 SSTORE POP PUSH1 0x0 CHAINID SWAP1 POP PUSH32 0x8CAD95687BA82C2CE50E74F7B754645E5117C3A5BEC8151C0726D5857980A866 PUSH1 0x40 MLOAD DUP1 PUSH1 0x40 ADD PUSH1 0x40 MSTORE DUP1 PUSH1 0x16 DUP2 MSTORE PUSH1 0x20 ADD PUSH32 0x436861696E56657273657C52616D705365727669636500000000000000000000 DUP2 MSTORE POP DUP1 MLOAD SWAP1 PUSH1 0x20 ADD KECCAK256 DUP3 ADDRESS PUSH1 0x40 MLOAD PUSH1 0x20 ADD PUSH3 0x93 SWAP5 SWAP4 SWAP3 SWAP2 SWAP1 PUSH3 0x419 JUMP JUMPDEST PUSH1 0x40 MLOAD PUSH1 0x20 DUP2 DUP4 SUB SUB DUP2 MSTORE SWAP1 PUSH1 0x40 MSTORE DUP1 MLOAD SWAP1 PUSH1 0x20 ADD KECCAK256 PUSH1 0x8 DUP2 SWAP1 SSTORE POP PUSH3 0xE1 PUSH32 0xB19546DFF01E856FB3F010C267A7B1C60363CF8A4664E21CC89C26224620214E DUP1 PUSH3 0x1B9 PUSH1 0x20 SHL PUSH1 0x20 SHR JUMP JUMPDEST PUSH3 0x133 PUSH32 0xA49807205CE4D355092EF5A8A18F56E8913CF4A201FBE287825B095693C21775 PUSH32 0xB19546DFF01E856FB3F010C267A7B1C60363CF8A4664E21CC89C26224620214E PUSH3 0x1B9 PUSH1 0x20 SHL PUSH1 0x20 SHR JUMP JUMPDEST PUSH3 0x165 PUSH32 0xB19546DFF01E856FB3F010C267A7B1C60363CF8A4664E21CC89C26224620214E CALLER PUSH3 0x21C PUSH1 0x20 SHL PUSH1 0x20 SHR JUMP JUMPDEST PUSH3 0x197 PUSH32 0xA49807205CE4D355092EF5A8A18F56E8913CF4A201FBE287825B095693C21775 CALLER PUSH3 0x21C PUSH1 0x20 SHL PUSH1 0x20 SHR JUMP JUMPDEST PUSH1 0x1 PUSH1 0x9 PUSH1 0x0 PUSH2 0x100 EXP DUP2 SLOAD DUP2 PUSH1 0xFF MUL NOT AND SWAP1 DUP4 ISZERO ISZERO MUL OR SWAP1 SSTORE POP POP PUSH3 0x466 JUMP JUMPDEST PUSH1 0x0 PUSH3 0x1CC DUP4 PUSH3 0x30D PUSH1 0x20 SHL PUSH1 0x20 SHR JUMP JUMPDEST SWAP1 POP DUP2 PUSH1 0x0 DUP1 DUP6 DUP2 MSTORE PUSH1 0x20 ADD SWAP1 DUP2 MSTORE PUSH1 0x20 ADD PUSH1 0x0 KECCAK256 PUSH1 0x1 ADD DUP2 SWAP1 SSTORE POP DUP2 DUP2 DUP5 PUSH32 0xBD79B86FFE0AB8E8776151514217CD7CACD52C909F66475C3AF44E129F0B00FF PUSH1 0x40 MLOAD PUSH1 0x40 MLOAD DUP1 SWAP2 SUB SWAP1 LOG4 POP POP POP JUMP JUMPDEST PUSH3 0x22E DUP3 DUP3 PUSH3 0x32C PUSH1 0x20 SHL PUSH1 0x20 SHR JUMP JUMPDEST PUSH3 0x309 JUMPI PUSH1 0x1 PUSH1 0x0 DUP1 DUP5 DUP2 MSTORE PUSH1 0x20 ADD SWAP1 DUP2 MSTORE PUSH1 0x20 ADD PUSH1 0x0 KECCAK256 PUSH1 0x0 ADD PUSH1 0x0 DUP4 PUSH20 0xFFFFFFFFFFFFFFFFFFFFFFFFFFFFFFFFFFFFFFFF AND PUSH20 0xFFFFFFFFFFFFFFFFFFFFFFFFFFFFFFFFFFFFFFFF AND DUP2 MSTORE PUSH1 0x20 ADD SWAP1 DUP2 MSTORE PUSH1 0x20 ADD PUSH1 0x0 KECCAK256 PUSH1 0x0 PUSH2 0x100 EXP DUP2 SLOAD DUP2 PUSH1 0xFF MUL NOT AND SWAP1 DUP4 ISZERO ISZERO MUL OR SWAP1 SSTORE POP PUSH3 0x2AE PUSH3 0x396 PUSH1 0x20 SHL PUSH1 0x20 SHR JUMP JUMPDEST PUSH20 0xFFFFFFFFFFFFFFFFFFFFFFFFFFFFFFFFFFFFFFFF AND DUP2 PUSH20 0xFFFFFFFFFFFFFFFFFFFFFFFFFFFFFFFFFFFFFFFF AND DUP4 PUSH32 0x2F8788117E7EFF1D82E926EC794901D17C78024A50270940304540A733656F0D PUSH1 0x40 MLOAD PUSH1 0x40 MLOAD DUP1 SWAP2 SUB SWAP1 LOG4 JUMPDEST POP POP JUMP JUMPDEST PUSH1 0x0 DUP1 PUSH1 0x0 DUP4 DUP2 MSTORE PUSH1 0x20 ADD SWAP1 DUP2 MSTORE PUSH1 0x20 ADD PUSH1 0x0 KECCAK256 PUSH1 0x1 ADD SLOAD SWAP1 POP SWAP2 SWAP1 POP JUMP JUMPDEST PUSH1 0x0 DUP1 PUSH1 0x0 DUP5 DUP2 MSTORE PUSH1 0x20 ADD SWAP1 DUP2 MSTORE PUSH1 0x20 ADD PUSH1 0x0 KECCAK256 PUSH1 0x0 ADD PUSH1 0x0 DUP4 PUSH20 0xFFFFFFFFFFFFFFFFFFFFFFFFFFFFFFFFFFFFFFFF AND PUSH20 0xFFFFFFFFFFFFFFFFFFFFFFFFFFFFFFFFFFFFFFFF AND DUP2 MSTORE PUSH1 0x20 ADD SWAP1 DUP2 MSTORE PUSH1 0x20 ADD PUSH1 0x0 KECCAK256 PUSH1 0x0 SWAP1 SLOAD SWAP1 PUSH2 0x100 EXP SWAP1 DIV PUSH1 0xFF AND SWAP1 POP SWAP3 SWAP2 POP POP JUMP JUMPDEST PUSH1 0x0 CALLER SWAP1 POP SWAP1 JUMP JUMPDEST PUSH1 0x0 DUP2 SWAP1 POP SWAP2 SWAP1 POP JUMP JUMPDEST PUSH3 0x3B3 DUP2 PUSH3 0x39E JUMP JUMPDEST DUP3 MSTORE POP POP JUMP JUMPDEST PUSH1 0x0 DUP2 SWAP1 POP SWAP2 SWAP1 POP JUMP JUMPDEST PUSH3 0x3CE DUP2 PUSH3 0x3B9 JUMP JUMPDEST DUP3 MSTORE POP POP JUMP JUMPDEST PUSH1 0x0 PUSH20 0xFFFFFFFFFFFFFFFFFFFFFFFFFFFFFFFFFFFFFFFF DUP3 AND SWAP1 POP SWAP2 SWAP1 POP JUMP JUMPDEST PUSH1 0x0 PUSH3 0x401 DUP3 PUSH3 0x3D4 JUMP JUMPDEST SWAP1 POP SWAP2 SWAP1 POP JUMP JUMPDEST PUSH3 0x413 DUP2 PUSH3 0x3F4 JUMP JUMPDEST DUP3 MSTORE POP POP JUMP JUMPDEST PUSH1 0x0 PUSH1 0x80 DUP3 ADD SWAP1 POP PUSH3 0x430 PUSH1 0x0 DUP4 ADD DUP8 PUSH3 0x3A8 JUMP JUMPDEST PUSH3 0x43F PUSH1 0x20 DUP4 ADD DUP7 PUSH3 0x3A8 JUMP JUMPDEST PUSH3 0x44E PUSH1 0x40 DUP4 ADD DUP6 PUSH3 0x3C3 JUMP JUMPDEST PUSH3 0x45D PUSH1 0x60 DUP4 ADD DUP5 PUSH3 0x408 JUMP JUMPDEST SWAP6 SWAP5 POP POP POP POP POP JUMP JUMPDEST PUSH2 0x5E0F DUP1 PUSH3 0x476 PUSH1 0x0 CODECOPY PUSH1 0x0 RETURN INVALID PUSH1 0x80 PUSH1 0x40 MSTORE PUSH1 0x4 CALLDATASIZE LT PUSH2 0x1FD JUMPI PUSH1 0x0 CALLDATALOAD PUSH1 0xE0 SHR DUP1 PUSH4 0x9590CF28 GT PUSH2 0x10D JUMPI DUP1 PUSH4 0xC0744C2D GT PUSH2 0xA0 JUMPI DUP1 PUSH4 0xD6461274 GT PUSH2 0x6F JUMPI DUP1 PUSH4 0xD6461274 EQ PUSH2 0x788 JUMPI DUP1 PUSH4 0xE58378BB EQ PUSH2 0x7C5 JUMPI DUP1 PUSH4 0xF141B52B EQ PUSH2 0x7F0 JUMPI DUP1 PUSH4 0xF43AF8B4 EQ PUSH2 0x819 JUMPI DUP1 PUSH4 0xF698DA25 EQ PUSH2 0x842 JUMPI PUSH2 0x21C JUMP JUMPDEST DUP1 PUSH4 0xC0744C2D EQ PUSH2 0x6CC JUMPI DUP1 PUSH4 0xC0993EEA EQ PUSH2 0x6F7 JUMPI DUP1 PUSH4 0xC274734E EQ PUSH2 0x722 JUMPI DUP1 PUSH4 0xD547741F EQ PUSH2 0x75F JUMPI PUSH2 0x21C JUMP JUMPDEST DUP1 PUSH4 0xA7ECD37E GT PUSH2 0xDC JUMPI DUP1 PUSH4 0xA7ECD37E EQ PUSH2 0x624 JUMPI DUP1 PUSH4 0xB65054CD EQ PUSH2 0x64D JUMPI DUP1 PUSH4 0xB69EF8A8 EQ PUSH2 0x664 JUMPI DUP1 PUSH4 0xBD81579E EQ PUSH2 0x68F JUMPI PUSH2 0x21C JUMP JUMPDEST DUP1 PUSH4 0x9590CF28 EQ PUSH2 0x554 JUMPI DUP1 PUSH4 0x99A1FFF1 EQ PUSH2 0x591 JUMPI DUP1 PUSH4 0xA217FDDF EQ PUSH2 0x5CE JUMPI DUP1 PUSH4 0xA26D1C5F EQ PUSH2 0x5F9 JUMPI PUSH2 0x21C JUMP JUMPDEST DUP1 PUSH4 0x4105A203 GT PUSH2 0x190 JUMPI DUP1 PUSH4 0x53C2DDF1 GT PUSH2 0x15F JUMPI DUP1 PUSH4 0x53C2DDF1 EQ PUSH2 0x449 JUMPI DUP1 PUSH4 0x736C0D5B EQ PUSH2 0x472 JUMPI DUP1 PUSH4 0x75B238FC EQ PUSH2 0x4AF JUMPI DUP1 PUSH4 0x76CF396D EQ PUSH2 0x4DA JUMPI DUP1 PUSH4 0x91D14854 EQ PUSH2 0x517 JUMPI PUSH2 0x21C JUMP JUMPDEST DUP1 PUSH4 0x4105A203 EQ PUSH2 0x39C JUMPI DUP1 PUSH4 0x489CD997 EQ PUSH2 0x3C7 JUMPI DUP1 PUSH4 0x4A37326B EQ PUSH2 0x3F0 JUMPI DUP1 PUSH4 0x5297FC0F EQ PUSH2 0x40C JUMPI PUSH2 0x21C JUMP JUMPDEST DUP1 PUSH4 0x2BF570D3 GT PUSH2 0x1CC JUMPI DUP1 PUSH4 0x2BF570D3 EQ PUSH2 0x303 JUMPI DUP1 PUSH4 0x2F2FF15D EQ PUSH2 0x32E JUMPI DUP1 PUSH4 0x36568ABE EQ PUSH2 0x357 JUMPI DUP1 PUSH4 0x38067CE4 EQ PUSH2 0x380 JUMPI PUSH2 0x21C JUMP JUMPDEST DUP1 PUSH4 0x1FFC9A7 EQ PUSH2 0x221 JUMPI DUP1 PUSH4 0xE7A426F EQ PUSH2 0x25E JUMPI DUP1 PUSH4 0x248A9CA3 EQ PUSH2 0x29B JUMPI DUP1 PUSH4 0x27FF50A1 EQ PUSH2 0x2D8 JUMPI PUSH2 0x21C JUMP JUMPDEST CALLDATASIZE PUSH2 0x21C JUMPI CALLVALUE PUSH1 0xA PUSH1 0x0 DUP3 DUP3 SLOAD PUSH2 0x214 SWAP2 SWAP1 PUSH2 0x3EA2 JUMP JUMPDEST SWAP3 POP POP DUP2 SWAP1 SSTORE STOP JUMPDEST PUSH1 0x0 DUP1 REVERT JUMPDEST CALLVALUE DUP1 ISZERO PUSH2 0x22D JUMPI PUSH1 0x0 DUP1 REVERT JUMPDEST POP PUSH2 0x248 PUSH1 0x4 DUP1 CALLDATASIZE SUB DUP2 ADD SWAP1 PUSH2 0x243 SWAP2 SWAP1 PUSH2 0x3F42 JUMP JUMPDEST PUSH2 0x86D JUMP JUMPDEST PUSH1 0x40 MLOAD PUSH2 0x255 SWAP2 SWAP1 PUSH2 0x3F8A JUMP JUMPDEST PUSH1 0x40 MLOAD DUP1 SWAP2 SUB SWAP1 RETURN JUMPDEST CALLVALUE DUP1 ISZERO PUSH2 0x26A JUMPI PUSH1 0x0 DUP1 REVERT JUMPDEST POP PUSH2 0x285 PUSH1 0x4 DUP1 CALLDATASIZE SUB DUP2 ADD SWAP1 PUSH2 0x280 SWAP2 SWAP1 PUSH2 0x40D2 JUMP JUMPDEST PUSH2 0x8E7 JUMP JUMPDEST PUSH1 0x40 MLOAD PUSH2 0x292 SWAP2 SWAP1 PUSH2 0x4218 JUMP JUMPDEST PUSH1 0x40 MLOAD DUP1 SWAP2 SUB SWAP1 RETURN JUMPDEST CALLVALUE DUP1 ISZERO PUSH2 0x2A7 JUMPI PUSH1 0x0 DUP1 REVERT JUMPDEST POP PUSH2 0x2C2 PUSH1 0x4 DUP1 CALLDATASIZE SUB DUP2 ADD SWAP1 PUSH2 0x2BD SWAP2 SWAP1 PUSH2 0x4270 JUMP JUMPDEST PUSH2 0xACA JUMP JUMPDEST PUSH1 0x40 MLOAD PUSH2 0x2CF SWAP2 SWAP1 PUSH2 0x42AC JUMP JUMPDEST PUSH1 0x40 MLOAD DUP1 SWAP2 SUB SWAP1 RETURN JUMPDEST CALLVALUE DUP1 ISZERO PUSH2 0x2E4 JUMPI PUSH1 0x0 DUP1 REVERT JUMPDEST POP PUSH2 0x2ED PUSH2 0xAE9 JUMP JUMPDEST PUSH1 0x40 MLOAD PUSH2 0x2FA SWAP2 SWAP1 PUSH2 0x42AC JUMP JUMPDEST PUSH1 0x40 MLOAD DUP1 SWAP2 SUB SWAP1 RETURN JUMPDEST CALLVALUE DUP1 ISZERO PUSH2 0x30F JUMPI PUSH1 0x0 DUP1 REVERT JUMPDEST POP PUSH2 0x318 PUSH2 0xB0D JUMP JUMPDEST PUSH1 0x40 MLOAD PUSH2 0x325 SWAP2 SWAP1 PUSH2 0x42AC JUMP JUMPDEST PUSH1 0x40 MLOAD DUP1 SWAP2 SUB SWAP1 RETURN JUMPDEST CALLVALUE DUP1 ISZERO PUSH2 0x33A JUMPI PUSH1 0x0 DUP1 REVERT JUMPDEST POP PUSH2 0x355 PUSH1 0x4 DUP1 CALLDATASIZE SUB DUP2 ADD SWAP1 PUSH2 0x350 SWAP2 SWAP1 PUSH2 0x42F3 JUMP JUMPDEST PUSH2 0xB31 JUMP JUMPDEST STOP JUMPDEST CALLVALUE DUP1 ISZERO PUSH2 0x363 JUMPI PUSH1 0x0 DUP1 REVERT JUMPDEST POP PUSH2 0x37E PUSH1 0x4 DUP1 CALLDATASIZE SUB DUP2 ADD SWAP1 PUSH2 0x379 SWAP2 SWAP1 PUSH2 0x42F3 JUMP JUMPDEST PUSH2 0xB52 JUMP JUMPDEST STOP JUMPDEST PUSH2 0x39A PUSH1 0x4 DUP1 CALLDATASIZE SUB DUP2 ADD SWAP1 PUSH2 0x395 SWAP2 SWAP1 PUSH2 0x4390 JUMP JUMPDEST PUSH2 0xBD5 JUMP JUMPDEST STOP JUMPDEST CALLVALUE DUP1 ISZERO PUSH2 0x3A8 JUMPI PUSH1 0x0 DUP1 REVERT JUMPDEST POP PUSH2 0x3B1 PUSH2 0x1669 JUMP JUMPDEST PUSH1 0x40 MLOAD PUSH2 0x3BE SWAP2 SWAP1 PUSH2 0x3F8A JUMP JUMPDEST PUSH1 0x40 MLOAD DUP1 SWAP2 SUB SWAP1 RETURN JUMPDEST CALLVALUE DUP1 ISZERO PUSH2 0x3D3 JUMPI PUSH1 0x0 DUP1 REVERT JUMPDEST POP PUSH2 0x3EE PUSH1 0x4 DUP1 CALLDATASIZE SUB DUP2 ADD SWAP1 PUSH2 0x3E9 SWAP2 SWAP1 PUSH2 0x4432 JUMP JUMPDEST PUSH2 0x167C JUMP JUMPDEST STOP JUMPDEST PUSH2 0x40A PUSH1 0x4 DUP1 CALLDATASIZE SUB DUP2 ADD SWAP1 PUSH2 0x405 SWAP2 SWAP1 PUSH2 0x44D4 JUMP JUMPDEST PUSH2 0x1E09 JUMP JUMPDEST STOP JUMPDEST CALLVALUE DUP1 ISZERO PUSH2 0x418 JUMPI PUSH1 0x0 DUP1 REVERT JUMPDEST POP PUSH2 0x433 PUSH1 0x4 DUP1 CALLDATASIZE SUB DUP2 ADD SWAP1 PUSH2 0x42E SWAP2 SWAP1 PUSH2 0x4698 JUMP JUMPDEST PUSH2 0x2432 JUMP JUMPDEST PUSH1 0x40 MLOAD PUSH2 0x440 SWAP2 SWAP1 PUSH2 0x4703 JUMP JUMPDEST PUSH1 0x40 MLOAD DUP1 SWAP2 SUB SWAP1 RETURN JUMPDEST CALLVALUE DUP1 ISZERO PUSH2 0x455 JUMPI PUSH1 0x0 DUP1 REVERT JUMPDEST POP PUSH2 0x470 PUSH1 0x4 DUP1 CALLDATASIZE SUB DUP2 ADD SWAP1 PUSH2 0x46B SWAP2 SWAP1 PUSH2 0x471E JUMP JUMPDEST PUSH2 0x246D JUMP JUMPDEST STOP JUMPDEST CALLVALUE DUP1 ISZERO PUSH2 0x47E JUMPI PUSH1 0x0 DUP1 REVERT JUMPDEST POP PUSH2 0x499 PUSH1 0x4 DUP1 CALLDATASIZE SUB DUP2 ADD SWAP1 PUSH2 0x494 SWAP2 SWAP1 PUSH2 0x4771 JUMP JUMPDEST PUSH2 0x258B JUMP JUMPDEST PUSH1 0x40 MLOAD PUSH2 0x4A6 SWAP2 SWAP1 PUSH2 0x3F8A JUMP JUMPDEST PUSH1 0x40 MLOAD DUP1 SWAP2 SUB SWAP1 RETURN JUMPDEST CALLVALUE DUP1 ISZERO PUSH2 0x4BB JUMPI PUSH1 0x0 DUP1 REVERT JUMPDEST POP PUSH2 0x4C4 PUSH2 0x25AB JUMP JUMPDEST PUSH1 0x40 MLOAD PUSH2 0x4D1 SWAP2 SWAP1 PUSH2 0x42AC JUMP JUMPDEST PUSH1 0x40 MLOAD DUP1 SWAP2 SUB SWAP1 RETURN JUMPDEST CALLVALUE DUP1 ISZERO PUSH2 0x4E6 JUMPI PUSH1 0x0 DUP1 REVERT JUMPDEST POP PUSH2 0x501 PUSH1 0x4 DUP1 CALLDATASIZE SUB DUP2 ADD SWAP1 PUSH2 0x4FC SWAP2 SWAP1 PUSH2 0x40D2 JUMP JUMPDEST PUSH2 0x25CF JUMP JUMPDEST PUSH1 0x40 MLOAD PUSH2 0x50E SWAP2 SWAP1 PUSH2 0x4218 JUMP JUMPDEST PUSH1 0x40 MLOAD DUP1 SWAP2 SUB SWAP1 RETURN JUMPDEST CALLVALUE DUP1 ISZERO PUSH2 0x523 JUMPI PUSH1 0x0 DUP1 REVERT JUMPDEST POP PUSH2 0x53E PUSH1 0x4 DUP1 CALLDATASIZE SUB DUP2 ADD SWAP1 PUSH2 0x539 SWAP2 SWAP1 PUSH2 0x42F3 JUMP JUMPDEST PUSH2 0x27A4 JUMP JUMPDEST PUSH1 0x40 MLOAD PUSH2 0x54B SWAP2 SWAP1 PUSH2 0x3F8A JUMP JUMPDEST PUSH1 0x40 MLOAD DUP1 SWAP2 SUB SWAP1 RETURN JUMPDEST CALLVALUE DUP1 ISZERO PUSH2 0x560 JUMPI PUSH1 0x0 DUP1 REVERT JUMPDEST POP PUSH2 0x57B PUSH1 0x4 DUP1 CALLDATASIZE SUB DUP2 ADD SWAP1 PUSH2 0x576 SWAP2 SWAP1 PUSH2 0x4771 JUMP JUMPDEST PUSH2 0x280E JUMP JUMPDEST PUSH1 0x40 MLOAD PUSH2 0x588 SWAP2 SWAP1 PUSH2 0x3F8A JUMP JUMPDEST PUSH1 0x40 MLOAD DUP1 SWAP2 SUB SWAP1 RETURN JUMPDEST CALLVALUE DUP1 ISZERO PUSH2 0x59D JUMPI PUSH1 0x0 DUP1 REVERT JUMPDEST POP PUSH2 0x5B8 PUSH1 0x4 DUP1 CALLDATASIZE SUB DUP2 ADD SWAP1 PUSH2 0x5B3 SWAP2 SWAP1 PUSH2 0x4698 JUMP JUMPDEST PUSH2 0x282E JUMP JUMPDEST PUSH1 0x40 MLOAD PUSH2 0x5C5 SWAP2 SWAP1 PUSH2 0x4703 JUMP JUMPDEST PUSH1 0x40 MLOAD DUP1 SWAP2 SUB SWAP1 RETURN JUMPDEST CALLVALUE DUP1 ISZERO PUSH2 0x5DA JUMPI PUSH1 0x0 DUP1 REVERT JUMPDEST POP PUSH2 0x5E3 PUSH2 0x2869 JUMP JUMPDEST PUSH1 0x40 MLOAD PUSH2 0x5F0 SWAP2 SWAP1 PUSH2 0x42AC JUMP JUMPDEST PUSH1 0x40 MLOAD DUP1 SWAP2 SUB SWAP1 RETURN JUMPDEST CALLVALUE DUP1 ISZERO PUSH2 0x605 JUMPI PUSH1 0x0 DUP1 REVERT JUMPDEST POP PUSH2 0x60E PUSH2 0x2870 JUMP JUMPDEST PUSH1 0x40 MLOAD PUSH2 0x61B SWAP2 SWAP1 PUSH2 0x42AC JUMP JUMPDEST PUSH1 0x40 MLOAD DUP1 SWAP2 SUB SWAP1 RETURN JUMPDEST CALLVALUE DUP1 ISZERO PUSH2 0x630 JUMPI PUSH1 0x0 DUP1 REVERT JUMPDEST POP PUSH2 0x64B PUSH1 0x4 DUP1 CALLDATASIZE SUB DUP2 ADD SWAP1 PUSH2 0x646 SWAP2 SWAP1 PUSH2 0x4771 JUMP JUMPDEST PUSH2 0x2894 JUMP JUMPDEST STOP JUMPDEST CALLVALUE DUP1 ISZERO PUSH2 0x659 JUMPI PUSH1 0x0 DUP1 REVERT JUMPDEST POP PUSH2 0x662 PUSH2 0x2966 JUMP JUMPDEST STOP JUMPDEST CALLVALUE DUP1 ISZERO PUSH2 0x670 JUMPI PUSH1 0x0 DUP1 REVERT JUMPDEST POP PUSH2 0x679 PUSH2 0x29BD JUMP JUMPDEST PUSH1 0x40 MLOAD PUSH2 0x686 SWAP2 SWAP1 PUSH2 0x4703 JUMP JUMPDEST PUSH1 0x40 MLOAD DUP1 SWAP2 SUB SWAP1 RETURN JUMPDEST CALLVALUE DUP1 ISZERO PUSH2 0x69B JUMPI PUSH1 0x0 DUP1 REVERT JUMPDEST POP PUSH2 0x6B6 PUSH1 0x4 DUP1 CALLDATASIZE SUB DUP2 ADD SWAP1 PUSH2 0x6B1 SWAP2 SWAP1 PUSH2 0x4771 JUMP JUMPDEST PUSH2 0x29C3 JUMP JUMPDEST PUSH1 0x40 MLOAD PUSH2 0x6C3 SWAP2 SWAP1 PUSH2 0x3F8A JUMP JUMPDEST PUSH1 0x40 MLOAD DUP1 SWAP2 SUB SWAP1 RETURN JUMPDEST CALLVALUE DUP1 ISZERO PUSH2 0x6D8 JUMPI PUSH1 0x0 DUP1 REVERT JUMPDEST POP PUSH2 0x6E1 PUSH2 0x29E3 JUMP JUMPDEST PUSH1 0x40 MLOAD PUSH2 0x6EE SWAP2 SWAP1 PUSH2 0x42AC JUMP JUMPDEST PUSH1 0x40 MLOAD DUP1 SWAP2 SUB SWAP1 RETURN JUMPDEST CALLVALUE DUP1 ISZERO PUSH2 0x703 JUMPI PUSH1 0x0 DUP1 REVERT JUMPDEST POP PUSH2 0x70C PUSH2 0x2A07 JUMP JUMPDEST PUSH1 0x40 MLOAD PUSH2 0x719 SWAP2 SWAP1 PUSH2 0x42AC JUMP JUMPDEST PUSH1 0x40 MLOAD DUP1 SWAP2 SUB SWAP1 RETURN JUMPDEST CALLVALUE DUP1 ISZERO PUSH2 0x72E JUMPI PUSH1 0x0 DUP1 REVERT JUMPDEST POP PUSH2 0x749 PUSH1 0x4 DUP1 CALLDATASIZE SUB DUP2 ADD SWAP1 PUSH2 0x744 SWAP2 SWAP1 PUSH2 0x479E JUMP JUMPDEST PUSH2 0x2A2B JUMP JUMPDEST PUSH1 0x40 MLOAD PUSH2 0x756 SWAP2 SWAP1 PUSH2 0x3F8A JUMP JUMPDEST PUSH1 0x40 MLOAD DUP1 SWAP2 SUB SWAP1 RETURN JUMPDEST CALLVALUE DUP1 ISZERO PUSH2 0x76B JUMPI PUSH1 0x0 DUP1 REVERT JUMPDEST POP PUSH2 0x786 PUSH1 0x4 DUP1 CALLDATASIZE SUB DUP2 ADD SWAP1 PUSH2 0x781 SWAP2 SWAP1 PUSH2 0x42F3 JUMP JUMPDEST PUSH2 0x2D9A JUMP JUMPDEST STOP JUMPDEST CALLVALUE DUP1 ISZERO PUSH2 0x794 JUMPI PUSH1 0x0 DUP1 REVERT JUMPDEST POP PUSH2 0x7AF PUSH1 0x4 DUP1 CALLDATASIZE SUB DUP2 ADD SWAP1 PUSH2 0x7AA SWAP2 SWAP1 PUSH2 0x4698 JUMP JUMPDEST PUSH2 0x2DBB JUMP JUMPDEST PUSH1 0x40 MLOAD PUSH2 0x7BC SWAP2 SWAP1 PUSH2 0x4703 JUMP JUMPDEST PUSH1 0x40 MLOAD DUP1 SWAP2 SUB SWAP1 RETURN JUMPDEST CALLVALUE DUP1 ISZERO PUSH2 0x7D1 JUMPI PUSH1 0x0 DUP1 REVERT JUMPDEST POP PUSH2 0x7DA PUSH2 0x2DF6 JUMP JUMPDEST PUSH1 0x40 MLOAD PUSH2 0x7E7 SWAP2 SWAP1 PUSH2 0x42AC JUMP JUMPDEST PUSH1 0x40 MLOAD DUP1 SWAP2 SUB SWAP1 RETURN JUMPDEST CALLVALUE DUP1 ISZERO PUSH2 0x7FC JUMPI PUSH1 0x0 DUP1 REVERT JUMPDEST POP PUSH2 0x817 PUSH1 0x4 DUP1 CALLDATASIZE SUB DUP2 ADD SWAP1 PUSH2 0x812 SWAP2 SWAP1 PUSH2 0x4771 JUMP JUMPDEST PUSH2 0x2E1A JUMP JUMPDEST STOP JUMPDEST CALLVALUE DUP1 ISZERO PUSH2 0x825 JUMPI PUSH1 0x0 DUP1 REVERT JUMPDEST POP PUSH2 0x840 PUSH1 0x4 DUP1 CALLDATASIZE SUB DUP2 ADD SWAP1 PUSH2 0x83B SWAP2 SWAP1 PUSH2 0x4810 JUMP JUMPDEST PUSH2 0x2EEC JUMP JUMPDEST STOP JUMPDEST CALLVALUE DUP1 ISZERO PUSH2 0x84E JUMPI PUSH1 0x0 DUP1 REVERT JUMPDEST POP PUSH2 0x857 PUSH2 0x38D6 JUMP JUMPDEST PUSH1 0x40 MLOAD PUSH2 0x864 SWAP2 SWAP1 PUSH2 0x42AC JUMP JUMPDEST PUSH1 0x40 MLOAD DUP1 SWAP2 SUB SWAP1 RETURN JUMPDEST PUSH1 0x0 PUSH32 0x7965DB0B00000000000000000000000000000000000000000000000000000000 PUSH28 0xFFFFFFFFFFFFFFFFFFFFFFFFFFFFFFFFFFFFFFFFFFFFFFFFFFFFFFFF NOT AND DUP3 PUSH28 0xFFFFFFFFFFFFFFFFFFFFFFFFFFFFFFFFFFFFFFFFFFFFFFFFFFFFFFFF NOT AND EQ DUP1 PUSH2 0x8E0 JUMPI POP PUSH2 0x8DF DUP3 PUSH2 0x38DC JUMP JUMPDEST JUMPDEST SWAP1 POP SWAP2 SWAP1 POP JUMP JUMPDEST PUSH1 0x60 PUSH1 0x6 PUSH1 0x0 DUP7 DUP7 PUSH1 0x1 DUP10 DUP10 SWAP1 POP PUSH2 0x8FF SWAP2 SWAP1 PUSH2 0x4893 JUMP JUMPDEST DUP2 DUP2 LT PUSH2 0x90F JUMPI PUSH2 0x90E PUSH2 0x48C7 JUMP JUMPDEST JUMPDEST SWAP1 POP PUSH1 0x20 MUL ADD PUSH1 0x20 DUP2 ADD SWAP1 PUSH2 0x924 SWAP2 SWAP1 PUSH2 0x4771 JUMP JUMPDEST PUSH20 0xFFFFFFFFFFFFFFFFFFFFFFFFFFFFFFFFFFFFFFFF AND PUSH20 0xFFFFFFFFFFFFFFFFFFFFFFFFFFFFFFFFFFFFFFFF AND DUP2 MSTORE PUSH1 0x20 ADD SWAP1 DUP2 MSTORE PUSH1 0x20 ADD PUSH1 0x0 KECCAK256 PUSH1 0x0 SWAP1 SLOAD SWAP1 PUSH2 0x100 EXP SWAP1 DIV PUSH1 0xFF AND PUSH2 0x9AB JUMPI PUSH1 0x40 MLOAD PUSH32 0x8C379A000000000000000000000000000000000000000000000000000000000 DUP2 MSTORE PUSH1 0x4 ADD PUSH2 0x9A2 SWAP1 PUSH2 0x4979 JUMP JUMPDEST PUSH1 0x40 MLOAD DUP1 SWAP2 SUB SWAP1 REVERT JUMPDEST DUP2 ISZERO PUSH2 0xA3B JUMPI DUP6 PUSH20 0xFFFFFFFFFFFFFFFFFFFFFFFFFFFFFFFFFFFFFFFF AND PUSH4 0xD06CA61F DUP5 DUP8 DUP8 PUSH1 0x40 MLOAD DUP5 PUSH4 0xFFFFFFFF AND PUSH1 0xE0 SHL DUP2 MSTORE PUSH1 0x4 ADD PUSH2 0x9EE SWAP4 SWAP3 SWAP2 SWAP1 PUSH2 0x4A5C JUMP JUMPDEST PUSH1 0x0 PUSH1 0x40 MLOAD DUP1 DUP4 SUB DUP2 DUP7 GAS STATICCALL ISZERO DUP1 ISZERO PUSH2 0xA0B JUMPI RETURNDATASIZE PUSH1 0x0 DUP1 RETURNDATACOPY RETURNDATASIZE PUSH1 0x0 REVERT JUMPDEST POP POP POP POP PUSH1 0x40 MLOAD RETURNDATASIZE PUSH1 0x0 DUP3 RETURNDATACOPY RETURNDATASIZE PUSH1 0x1F NOT PUSH1 0x1F DUP3 ADD AND DUP3 ADD DUP1 PUSH1 0x40 MSTORE POP DUP2 ADD SWAP1 PUSH2 0xA34 SWAP2 SWAP1 PUSH2 0x4B66 JUMP JUMPDEST SWAP1 POP PUSH2 0xAC1 JUMP JUMPDEST DUP6 PUSH20 0xFFFFFFFFFFFFFFFFFFFFFFFFFFFFFFFFFFFFFFFF AND PUSH4 0x1F00CA74 DUP5 DUP8 DUP8 PUSH1 0x40 MLOAD DUP5 PUSH4 0xFFFFFFFF AND PUSH1 0xE0 SHL DUP2 MSTORE PUSH1 0x4 ADD PUSH2 0xA78 SWAP4 SWAP3 SWAP2 SWAP1 PUSH2 0x4A5C JUMP JUMPDEST PUSH1 0x0 PUSH1 0x40 MLOAD DUP1 DUP4 SUB DUP2 DUP7 GAS STATICCALL ISZERO DUP1 ISZERO PUSH2 0xA95 JUMPI RETURNDATASIZE PUSH1 0x0 DUP1 RETURNDATACOPY RETURNDATASIZE PUSH1 0x0 REVERT JUMPDEST POP POP POP POP PUSH1 0x40 MLOAD RETURNDATASIZE PUSH1 0x0 DUP3 RETURNDATACOPY RETURNDATASIZE PUSH1 0x1F NOT PUSH1 0x1F DUP3 ADD AND DUP3 ADD DUP1 PUSH1 0x40 MSTORE POP DUP2 ADD SWAP1 PUSH2 0xABE SWAP2 SWAP1 PUSH2 0x4B66 JUMP JUMPDEST SWAP1 POP JUMPDEST SWAP6 SWAP5 POP POP POP POP POP JUMP JUMPDEST PUSH1 0x0 DUP1 PUSH1 0x0 DUP4 DUP2 MSTORE PUSH1 0x20 ADD SWAP1 DUP2 MSTORE PUSH1 0x20 ADD PUSH1 0x0 KECCAK256 PUSH1 0x1 ADD SLOAD SWAP1 POP SWAP2 SWAP1 POP JUMP JUMPDEST PUSH32 0xC3AC32C0A18C6DF298D6C34F1D387C7503049C673B1BA8DC711BF455DE7C84A5 DUP2 JUMP JUMPDEST PUSH32 0x6233BDAAD55FD96C2011D270806774059F67F032FA475F70E0FF1C153FE9D196 DUP2 JUMP JUMPDEST PUSH2 0xB3A DUP3 PUSH2 0xACA JUMP JUMPDEST PUSH2 0xB43 DUP2 PUSH2 0x3946 JUMP JUMPDEST PUSH2 0xB4D DUP4 DUP4 PUSH2 0x395A JUMP JUMPDEST POP POP POP JUMP JUMPDEST PUSH2 0xB5A PUSH2 0x3A3A JUMP JUMPDEST PUSH20 0xFFFFFFFFFFFFFFFFFFFFFFFFFFFFFFFFFFFFFFFF AND DUP2 PUSH20 0xFFFFFFFFFFFFFFFFFFFFFFFFFFFFFFFFFFFFFFFF AND EQ PUSH2 0xBC7 JUMPI PUSH1 0x40 MLOAD PUSH32 0x8C379A000000000000000000000000000000000000000000000000000000000 DUP2 MSTORE PUSH1 0x4 ADD PUSH2 0xBBE SWAP1 PUSH2 0x4C21 JUMP JUMPDEST PUSH1 0x40 MLOAD DUP1 SWAP2 SUB SWAP1 REVERT JUMPDEST PUSH2 0xBD1 DUP3 DUP3 PUSH2 0x3A42 JUMP JUMPDEST POP POP JUMP JUMPDEST PUSH2 0xBDD PUSH2 0x3B23 JUMP JUMPDEST PUSH1 0x9 PUSH1 0x0 SWAP1 SLOAD SWAP1 PUSH2 0x100 EXP SWAP1 DIV PUSH1 0xFF AND PUSH2 0xC2C JUMPI PUSH1 0x40 MLOAD PUSH32 0x8C379A000000000000000000000000000000000000000000000000000000000 DUP2 MSTORE PUSH1 0x4 ADD PUSH2 0xC23 SWAP1 PUSH2 0x4C8D JUMP JUMPDEST PUSH1 0x40 MLOAD DUP1 SWAP2 SUB SWAP1 REVERT JUMPDEST PUSH1 0x6 PUSH1 0x0 DUP6 DUP1 PUSH1 0x20 ADD SWAP1 PUSH2 0xC40 SWAP2 SWAP1 PUSH2 0x4CBC JUMP JUMPDEST PUSH1 0x0 DUP2 DUP2 LT PUSH2 0xC52 JUMPI PUSH2 0xC51 PUSH2 0x48C7 JUMP JUMPDEST JUMPDEST SWAP1 POP PUSH1 0x20 MUL ADD PUSH1 0x20 DUP2 ADD SWAP1 PUSH2 0xC67 SWAP2 SWAP1 PUSH2 0x4771 JUMP JUMPDEST PUSH20 0xFFFFFFFFFFFFFFFFFFFFFFFFFFFFFFFFFFFFFFFF AND PUSH20 0xFFFFFFFFFFFFFFFFFFFFFFFFFFFFFFFFFFFFFFFF AND DUP2 MSTORE PUSH1 0x20 ADD SWAP1 DUP2 MSTORE PUSH1 0x20 ADD PUSH1 0x0 KECCAK256 PUSH1 0x0 SWAP1 SLOAD SWAP1 PUSH2 0x100 EXP SWAP1 DIV PUSH1 0xFF AND PUSH2 0xCEE JUMPI PUSH1 0x40 MLOAD PUSH32 0x8C379A000000000000000000000000000000000000000000000000000000000 DUP2 MSTORE PUSH1 0x4 ADD PUSH2 0xCE5 SWAP1 PUSH2 0x4979 JUMP JUMPDEST PUSH1 0x40 MLOAD DUP1 SWAP2 SUB SWAP1 REVERT JUMPDEST PUSH1 0x0 PUSH1 0x3 DUP6 DUP1 PUSH1 0x80 ADD SWAP1 PUSH2 0xD02 SWAP2 SWAP1 PUSH2 0x4D1F JUMP JUMPDEST PUSH1 0x40 MLOAD PUSH2 0xD10 SWAP3 SWAP2 SWAP1 PUSH2 0x4DB2 JUMP JUMPDEST SWAP1 DUP2 MSTORE PUSH1 0x20 ADD PUSH1 0x40 MLOAD DUP1 SWAP2 SUB SWAP1 KECCAK256 PUSH1 0x0 DUP7 DUP1 PUSH1 0x20 ADD SWAP1 PUSH2 0xD30 SWAP2 SWAP1 PUSH2 0x4CBC JUMP JUMPDEST PUSH1 0x0 DUP2 DUP2 LT PUSH2 0xD42 JUMPI PUSH2 0xD41 PUSH2 0x48C7 JUMP JUMPDEST JUMPDEST SWAP1 POP PUSH1 0x20 MUL ADD PUSH1 0x20 DUP2 ADD SWAP1 PUSH2 0xD57 SWAP2 SWAP1 PUSH2 0x4771 JUMP JUMPDEST PUSH20 0xFFFFFFFFFFFFFFFFFFFFFFFFFFFFFFFFFFFFFFFF AND PUSH20 0xFFFFFFFFFFFFFFFFFFFFFFFFFFFFFFFFFFFFFFFF AND DUP2 MSTORE PUSH1 0x20 ADD SWAP1 DUP2 MSTORE PUSH1 0x20 ADD PUSH1 0x0 KECCAK256 SLOAD EQ PUSH2 0xDD2 JUMPI PUSH1 0x40 MLOAD PUSH32 0x8C379A000000000000000000000000000000000000000000000000000000000 DUP2 MSTORE PUSH1 0x4 ADD PUSH2 0xDC9 SWAP1 PUSH2 0x4E17 JUMP JUMPDEST PUSH1 0x40 MLOAD DUP1 SWAP2 SUB SWAP1 REVERT JUMPDEST PUSH1 0x0 DUP5 PUSH1 0x40 ADD CALLDATALOAD GT PUSH2 0xE19 JUMPI PUSH1 0x40 MLOAD PUSH32 0x8C379A000000000000000000000000000000000000000000000000000000000 DUP2 MSTORE PUSH1 0x4 ADD PUSH2 0xE10 SWAP1 PUSH2 0x4E83 JUMP JUMPDEST PUSH1 0x40 MLOAD DUP1 SWAP2 SUB SWAP1 REVERT JUMPDEST PUSH1 0x0 PUSH32 0xC3AC32C0A18C6DF298D6C34F1D387C7503049C673B1BA8DC711BF455DE7C84A5 DUP6 PUSH1 0x0 ADD PUSH1 0x20 DUP2 ADD SWAP1 PUSH2 0xE4F SWAP2 SWAP1 PUSH2 0x4EA3 JUMP JUMPDEST DUP7 DUP1 PUSH1 0x20 ADD SWAP1 PUSH2 0xE5F SWAP2 SWAP1 PUSH2 0x4CBC JUMP JUMPDEST PUSH1 0x40 MLOAD PUSH1 0x20 ADD PUSH2 0xE70 SWAP3 SWAP2 SWAP1 PUSH2 0x4F5F JUMP JUMPDEST PUSH1 0x40 MLOAD PUSH1 0x20 DUP2 DUP4 SUB SUB DUP2 MSTORE SWAP1 PUSH1 0x40 MSTORE DUP1 MLOAD SWAP1 PUSH1 0x20 ADD KECCAK256 DUP8 PUSH1 0x40 ADD CALLDATALOAD DUP9 PUSH1 0x60 ADD CALLDATALOAD DUP10 DUP1 PUSH1 0x80 ADD SWAP1 PUSH2 0xEA0 SWAP2 SWAP1 PUSH2 0x4D1F JUMP JUMPDEST PUSH1 0x40 MLOAD PUSH2 0xEAE SWAP3 SWAP2 SWAP1 PUSH2 0x4FA8 JUMP JUMPDEST PUSH1 0x40 MLOAD DUP1 SWAP2 SUB SWAP1 KECCAK256 PUSH1 0x40 MLOAD PUSH1 0x20 ADD PUSH2 0xECB SWAP7 SWAP6 SWAP5 SWAP4 SWAP3 SWAP2 SWAP1 PUSH2 0x5020 JUMP JUMPDEST PUSH1 0x40 MLOAD PUSH1 0x20 DUP2 DUP4 SUB SUB DUP2 MSTORE SWAP1 PUSH1 0x40 MSTORE DUP1 MLOAD SWAP1 PUSH1 0x20 ADD KECCAK256 SWAP1 POP PUSH1 0x0 PUSH1 0x1 PUSH1 0x8 SLOAD DUP4 PUSH1 0x40 MLOAD PUSH1 0x20 ADD PUSH2 0xEFC SWAP3 SWAP2 SWAP1 PUSH2 0x50EE JUMP JUMPDEST PUSH1 0x40 MLOAD PUSH1 0x20 DUP2 DUP4 SUB SUB DUP2 MSTORE SWAP1 PUSH1 0x40 MSTORE DUP1 MLOAD SWAP1 PUSH1 0x20 ADD KECCAK256 DUP7 DUP7 DUP7 PUSH1 0x40 MLOAD PUSH1 0x0 DUP2 MSTORE PUSH1 0x20 ADD PUSH1 0x40 MSTORE PUSH1 0x40 MLOAD PUSH2 0xF32 SWAP5 SWAP4 SWAP3 SWAP2 SWAP1 PUSH2 0x5134 JUMP JUMPDEST PUSH1 0x20 PUSH1 0x40 MLOAD PUSH1 0x20 DUP2 SUB SWAP1 DUP1 DUP5 SUB SWAP1 DUP6 GAS STATICCALL ISZERO DUP1 ISZERO PUSH2 0xF54 JUMPI RETURNDATASIZE PUSH1 0x0 DUP1 RETURNDATACOPY RETURNDATASIZE PUSH1 0x0 REVERT JUMPDEST POP POP POP PUSH1 0x20 PUSH1 0x40 MLOAD SUB MLOAD SWAP1 POP PUSH1 0x0 PUSH20 0xFFFFFFFFFFFFFFFFFFFFFFFFFFFFFFFFFFFFFFFF AND DUP2 PUSH20 0xFFFFFFFFFFFFFFFFFFFFFFFFFFFFFFFFFFFFFFFF AND EQ ISZERO DUP1 ISZERO PUSH2 0xFE6 JUMPI POP PUSH1 0x5 PUSH1 0x0 DUP3 PUSH20 0xFFFFFFFFFFFFFFFFFFFFFFFFFFFFFFFFFFFFFFFF AND PUSH20 0xFFFFFFFFFFFFFFFFFFFFFFFFFFFFFFFFFFFFFFFF AND DUP2 MSTORE PUSH1 0x20 ADD SWAP1 DUP2 MSTORE PUSH1 0x20 ADD PUSH1 0x0 KECCAK256 PUSH1 0x0 SWAP1 SLOAD SWAP1 PUSH2 0x100 EXP SWAP1 DIV PUSH1 0xFF AND JUMPDEST PUSH2 0x1025 JUMPI PUSH1 0x40 MLOAD PUSH32 0x8C379A000000000000000000000000000000000000000000000000000000000 DUP2 MSTORE PUSH1 0x4 ADD PUSH2 0x101C SWAP1 PUSH2 0x51C5 JUMP JUMPDEST PUSH1 0x40 MLOAD DUP1 SWAP2 SUB SWAP1 REVERT JUMPDEST PUSH1 0x0 PUSH1 0x60 DUP8 PUSH1 0x0 ADD PUSH1 0x20 DUP2 ADD SWAP1 PUSH2 0x103C SWAP2 SWAP1 PUSH2 0x4EA3 JUMP JUMPDEST PUSH20 0xFFFFFFFFFFFFFFFFFFFFFFFFFFFFFFFFFFFFFFFF AND PUSH4 0xAD5C4648 PUSH1 0x40 MLOAD DUP2 PUSH4 0xFFFFFFFF AND PUSH1 0xE0 SHL DUP2 MSTORE PUSH1 0x4 ADD PUSH1 0x20 PUSH1 0x40 MLOAD DUP1 DUP4 SUB DUP2 DUP7 GAS STATICCALL ISZERO DUP1 ISZERO PUSH2 0x1086 JUMPI RETURNDATASIZE PUSH1 0x0 DUP1 RETURNDATACOPY RETURNDATASIZE PUSH1 0x0 REVERT JUMPDEST POP POP POP POP PUSH1 0x40 MLOAD RETURNDATASIZE PUSH1 0x1F NOT PUSH1 0x1F DUP3 ADD AND DUP3 ADD DUP1 PUSH1 0x40 MSTORE POP DUP2 ADD SWAP1 PUSH2 0x10AA SWAP2 SWAP1 PUSH2 0x51FA JUMP JUMPDEST PUSH20 0xFFFFFFFFFFFFFFFFFFFFFFFFFFFFFFFFFFFFFFFF AND DUP9 DUP1 PUSH1 0x20 ADD SWAP1 PUSH2 0x10D0 SWAP2 SWAP1 PUSH2 0x4CBC JUMP JUMPDEST PUSH1 0x0 DUP2 DUP2 LT PUSH2 0x10E2 JUMPI PUSH2 0x10E1 PUSH2 0x48C7 JUMP JUMPDEST JUMPDEST SWAP1 POP PUSH1 0x20 MUL ADD PUSH1 0x20 DUP2 ADD SWAP1 PUSH2 0x10F7 SWAP2 SWAP1 PUSH2 0x4771 JUMP JUMPDEST PUSH20 0xFFFFFFFFFFFFFFFFFFFFFFFFFFFFFFFFFFFFFFFF AND SUB PUSH2 0x121E JUMPI DUP8 PUSH1 0x40 ADD CALLDATALOAD CALLVALUE LT ISZERO PUSH2 0x1159 JUMPI PUSH1 0x40 MLOAD PUSH32 0x8C379A000000000000000000000000000000000000000000000000000000000 DUP2 MSTORE PUSH1 0x4 ADD PUSH2 0x1150 SWAP1 PUSH2 0x5273 JUMP JUMPDEST PUSH1 0x40 MLOAD DUP1 SWAP2 SUB SWAP1 REVERT JUMPDEST DUP8 PUSH1 0x0 ADD PUSH1 0x20 DUP2 ADD SWAP1 PUSH2 0x116C SWAP2 SWAP1 PUSH2 0x4EA3 JUMP JUMPDEST PUSH20 0xFFFFFFFFFFFFFFFFFFFFFFFFFFFFFFFFFFFFFFFF AND PUSH4 0x7FF36AB5 CALLVALUE DUP11 PUSH1 0x60 ADD CALLDATALOAD DUP12 DUP1 PUSH1 0x20 ADD SWAP1 PUSH2 0x119D SWAP2 SWAP1 PUSH2 0x4CBC JUMP JUMPDEST ADDRESS PUSH1 0xF TIMESTAMP PUSH2 0x11AB SWAP2 SWAP1 PUSH2 0x3EA2 JUMP JUMPDEST PUSH1 0x40 MLOAD DUP8 PUSH4 0xFFFFFFFF AND PUSH1 0xE0 SHL DUP2 MSTORE PUSH1 0x4 ADD PUSH2 0x11CB SWAP6 SWAP5 SWAP4 SWAP3 SWAP2 SWAP1 PUSH2 0x52A2 JUMP JUMPDEST PUSH1 0x0 PUSH1 0x40 MLOAD DUP1 DUP4 SUB DUP2 DUP6 DUP9 GAS CALL ISZERO DUP1 ISZERO PUSH2 0x11E9 JUMPI RETURNDATASIZE PUSH1 0x0 DUP1 RETURNDATACOPY RETURNDATASIZE PUSH1 0x0 REVERT JUMPDEST POP POP POP POP POP PUSH1 0x40 MLOAD RETURNDATASIZE PUSH1 0x0 DUP3 RETURNDATACOPY RETURNDATASIZE PUSH1 0x1F NOT PUSH1 0x1F DUP3 ADD AND DUP3 ADD DUP1 PUSH1 0x40 MSTORE POP DUP2 ADD SWAP1 PUSH2 0x1213 SWAP2 SWAP1 PUSH2 0x4B66 JUMP JUMPDEST SWAP1 POP PUSH1 0x1 SWAP2 POP PUSH2 0x14E6 JUMP JUMPDEST DUP8 DUP1 PUSH1 0x20 ADD SWAP1 PUSH2 0x122E SWAP2 SWAP1 PUSH2 0x4CBC JUMP JUMPDEST PUSH1 0x0 DUP2 DUP2 LT PUSH2 0x1240 JUMPI PUSH2 0x123F PUSH2 0x48C7 JUMP JUMPDEST JUMPDEST SWAP1 POP PUSH1 0x20 MUL ADD PUSH1 0x20 DUP2 ADD SWAP1 PUSH2 0x1255 SWAP2 SWAP1 PUSH2 0x4771 JUMP JUMPDEST PUSH20 0xFFFFFFFFFFFFFFFFFFFFFFFFFFFFFFFFFFFFFFFF AND PUSH4 0x23B872DD CALLER ADDRESS DUP12 PUSH1 0x40 ADD CALLDATALOAD PUSH1 0x40 MLOAD DUP5 PUSH4 0xFFFFFFFF AND PUSH1 0xE0 SHL DUP2 MSTORE PUSH1 0x4 ADD PUSH2 0x1295 SWAP4 SWAP3 SWAP2 SWAP1 PUSH2 0x52F0 JUMP JUMPDEST PUSH1 0x20 PUSH1 0x40 MLOAD DUP1 DUP4 SUB DUP2 PUSH1 0x0 DUP8 GAS CALL ISZERO DUP1 ISZERO PUSH2 0x12B4 JUMPI RETURNDATASIZE PUSH1 0x0 DUP1 RETURNDATACOPY RETURNDATASIZE PUSH1 0x0 REVERT JUMPDEST POP POP POP POP PUSH1 0x40 MLOAD RETURNDATASIZE PUSH1 0x1F NOT PUSH1 0x1F DUP3 ADD AND DUP3 ADD DUP1 PUSH1 0x40 MSTORE POP DUP2 ADD SWAP1 PUSH2 0x12D8 SWAP2 SWAP1 PUSH2 0x533C JUMP JUMPDEST PUSH2 0x1317 JUMPI PUSH1 0x40 MLOAD PUSH32 0x8C379A000000000000000000000000000000000000000000000000000000000 DUP2 MSTORE PUSH1 0x4 ADD PUSH2 0x130E SWAP1 PUSH2 0x53DB JUMP JUMPDEST PUSH1 0x40 MLOAD DUP1 SWAP2 SUB SWAP1 REVERT JUMPDEST DUP8 DUP1 PUSH1 0x20 ADD SWAP1 PUSH2 0x1327 SWAP2 SWAP1 PUSH2 0x4CBC JUMP JUMPDEST PUSH1 0x0 DUP2 DUP2 LT PUSH2 0x1339 JUMPI PUSH2 0x1338 PUSH2 0x48C7 JUMP JUMPDEST JUMPDEST SWAP1 POP PUSH1 0x20 MUL ADD PUSH1 0x20 DUP2 ADD SWAP1 PUSH2 0x134E SWAP2 SWAP1 PUSH2 0x4771 JUMP JUMPDEST PUSH20 0xFFFFFFFFFFFFFFFFFFFFFFFFFFFFFFFFFFFFFFFF AND PUSH4 0x95EA7B3 DUP10 PUSH1 0x0 ADD PUSH1 0x20 DUP2 ADD SWAP1 PUSH2 0x137C SWAP2 SWAP1 PUSH2 0x4EA3 JUMP JUMPDEST DUP11 PUSH1 0x40 ADD CALLDATALOAD PUSH1 0x40 MLOAD DUP4 PUSH4 0xFFFFFFFF AND PUSH1 0xE0 SHL DUP2 MSTORE PUSH1 0x4 ADD PUSH2 0x139E SWAP3 SWAP2 SWAP1 PUSH2 0x53FB JUMP JUMPDEST PUSH1 0x20 PUSH1 0x40 MLOAD DUP1 DUP4 SUB DUP2 PUSH1 0x0 DUP8 GAS CALL ISZERO DUP1 ISZERO PUSH2 0x13BD JUMPI RETURNDATASIZE PUSH1 0x0 DUP1 RETURNDATACOPY RETURNDATASIZE PUSH1 0x0 REVERT JUMPDEST POP POP POP POP PUSH1 0x40 MLOAD RETURNDATASIZE PUSH1 0x1F NOT PUSH1 0x1F DUP3 ADD AND DUP3 ADD DUP1 PUSH1 0x40 MSTORE POP DUP2 ADD SWAP1 PUSH2 0x13E1 SWAP2 SWAP1 PUSH2 0x533C JUMP JUMPDEST PUSH2 0x1420 JUMPI PUSH1 0x40 MLOAD PUSH32 0x8C379A000000000000000000000000000000000000000000000000000000000 DUP2 MSTORE PUSH1 0x4 ADD PUSH2 0x1417 SWAP1 PUSH2 0x5470 JUMP JUMPDEST PUSH1 0x40 MLOAD DUP1 SWAP2 SUB SWAP1 REVERT JUMPDEST DUP8 PUSH1 0x0 ADD PUSH1 0x20 DUP2 ADD SWAP1 PUSH2 0x1433 SWAP2 SWAP1 PUSH2 0x4EA3 JUMP JUMPDEST PUSH20 0xFFFFFFFFFFFFFFFFFFFFFFFFFFFFFFFFFFFFFFFF AND PUSH4 0x38ED1739 DUP10 PUSH1 0x40 ADD CALLDATALOAD DUP11 PUSH1 0x60 ADD CALLDATALOAD DUP12 DUP1 PUSH1 0x20 ADD SWAP1 PUSH2 0x1468 SWAP2 SWAP1 PUSH2 0x4CBC JUMP JUMPDEST ADDRESS PUSH1 0xF TIMESTAMP PUSH2 0x1476 SWAP2 SWAP1 PUSH2 0x3EA2 JUMP JUMPDEST PUSH1 0x40 MLOAD DUP8 PUSH4 0xFFFFFFFF AND PUSH1 0xE0 SHL DUP2 MSTORE PUSH1 0x4 ADD PUSH2 0x1497 SWAP7 SWAP6 SWAP5 SWAP4 SWAP3 SWAP2 SWAP1 PUSH2 0x5490 JUMP JUMPDEST PUSH1 0x0 PUSH1 0x40 MLOAD DUP1 DUP4 SUB DUP2 PUSH1 0x0 DUP8 GAS CALL ISZERO DUP1 ISZERO PUSH2 0x14B6 JUMPI RETURNDATASIZE PUSH1 0x0 DUP1 RETURNDATACOPY RETURNDATASIZE PUSH1 0x0 REVERT JUMPDEST POP POP POP POP PUSH1 0x40 MLOAD RETURNDATASIZE PUSH1 0x0 DUP3 RETURNDATACOPY RETURNDATASIZE PUSH1 0x1F NOT PUSH1 0x1F DUP3 ADD AND DUP3 ADD DUP1 PUSH1 0x40 MSTORE POP DUP2 ADD SWAP1 PUSH2 0x14DF SWAP2 SWAP1 PUSH2 0x4B66 JUMP JUMPDEST SWAP1 POP PUSH1 0x1 SWAP2 POP JUMPDEST DUP2 PUSH2 0x1526 JUMPI PUSH1 0x40 MLOAD PUSH32 0x8C379A000000000000000000000000000000000000000000000000000000000 DUP2 MSTORE PUSH1 0x4 ADD PUSH2 0x151D SWAP1 PUSH2 0x5538 JUMP JUMPDEST PUSH1 0x40 MLOAD DUP1 SWAP2 SUB SWAP1 REVERT JUMPDEST DUP8 PUSH1 0x40 ADD CALLDATALOAD PUSH1 0x3 DUP10 DUP1 PUSH1 0x80 ADD SWAP1 PUSH2 0x153D SWAP2 SWAP1 PUSH2 0x4D1F JUMP JUMPDEST PUSH1 0x40 MLOAD PUSH2 0x154B SWAP3 SWAP2 SWAP1 PUSH2 0x4DB2 JUMP JUMPDEST SWAP1 DUP2 MSTORE PUSH1 0x20 ADD PUSH1 0x40 MLOAD DUP1 SWAP2 SUB SWAP1 KECCAK256 PUSH1 0x0 DUP11 DUP1 PUSH1 0x20 ADD SWAP1 PUSH2 0x156B SWAP2 SWAP1 PUSH2 0x4CBC JUMP JUMPDEST PUSH1 0x0 DUP2 DUP2 LT PUSH2 0x157D JUMPI PUSH2 0x157C PUSH2 0x48C7 JUMP JUMPDEST JUMPDEST SWAP1 POP PUSH1 0x20 MUL ADD PUSH1 0x20 DUP2 ADD SWAP1 PUSH2 0x1592 SWAP2 SWAP1 PUSH2 0x4771 JUMP JUMPDEST PUSH20 0xFFFFFFFFFFFFFFFFFFFFFFFFFFFFFFFFFFFFFFFF AND PUSH20 0xFFFFFFFFFFFFFFFFFFFFFFFFFFFFFFFFFFFFFFFF AND DUP2 MSTORE PUSH1 0x20 ADD SWAP1 DUP2 MSTORE PUSH1 0x20 ADD PUSH1 0x0 KECCAK256 DUP2 SWAP1 SSTORE POP PUSH32 0xDE8AB502ECA1DC6E36E4FACDF241A6E506C0CF46C24980293DDF6268DA325599 DUP9 DUP1 PUSH1 0x20 ADD SWAP1 PUSH2 0x1601 SWAP2 SWAP1 PUSH2 0x4CBC JUMP JUMPDEST PUSH1 0x0 DUP2 DUP2 LT PUSH2 0x1613 JUMPI PUSH2 0x1612 PUSH2 0x48C7 JUMP JUMPDEST JUMPDEST SWAP1 POP PUSH1 0x20 MUL ADD PUSH1 0x20 DUP2 ADD SWAP1 PUSH2 0x1628 SWAP2 SWAP1 PUSH2 0x4771 JUMP JUMPDEST DUP10 PUSH1 0x40 ADD CALLDATALOAD DUP4 DUP12 DUP1 PUSH1 0x80 ADD SWAP1 PUSH2 0x163E SWAP2 SWAP1 PUSH2 0x4D1F JUMP JUMPDEST PUSH1 0x40 MLOAD PUSH2 0x164F SWAP6 SWAP5 SWAP4 SWAP3 SWAP2 SWAP1 PUSH2 0x5585 JUMP JUMPDEST PUSH1 0x40 MLOAD DUP1 SWAP2 SUB SWAP1 LOG1 POP POP POP POP PUSH2 0x1663 PUSH2 0x3B72 JUMP JUMPDEST POP POP POP POP JUMP JUMPDEST PUSH1 0x9 PUSH1 0x0 SWAP1 SLOAD SWAP1 PUSH2 0x100 EXP SWAP1 DIV PUSH1 0xFF AND DUP2 JUMP JUMPDEST PUSH2 0x1684 PUSH2 0x3B23 JUMP JUMPDEST PUSH1 0x9 PUSH1 0x0 SWAP1 SLOAD SWAP1 PUSH2 0x100 EXP SWAP1 DIV PUSH1 0xFF AND PUSH2 0x16D3 JUMPI PUSH1 0x40 MLOAD PUSH32 0x8C379A000000000000000000000000000000000000000000000000000000000 DUP2 MSTORE PUSH1 0x4 ADD PUSH2 0x16CA SWAP1 PUSH2 0x4C8D JUMP JUMPDEST PUSH1 0x40 MLOAD DUP1 SWAP2 SUB SWAP1 REVERT JUMPDEST PUSH1 0x6 PUSH1 0x0 DUP6 PUSH1 0x20 ADD PUSH1 0x20 DUP2 ADD SWAP1 PUSH2 0x16EA SWAP2 SWAP1 PUSH2 0x4771 JUMP JUMPDEST PUSH20 0xFFFFFFFFFFFFFFFFFFFFFFFFFFFFFFFFFFFFFFFF AND PUSH20 0xFFFFFFFFFFFFFFFFFFFFFFFFFFFFFFFFFFFFFFFF AND DUP2 MSTORE PUSH1 0x20 ADD SWAP1 DUP2 MSTORE PUSH1 0x20 ADD PUSH1 0x0 KECCAK256 PUSH1 0x0 SWAP1 SLOAD SWAP1 PUSH2 0x100 EXP SWAP1 DIV PUSH1 0xFF AND PUSH2 0x1771 JUMPI PUSH1 0x40 MLOAD PUSH32 0x8C379A000000000000000000000000000000000000000000000000000000000 DUP2 MSTORE PUSH1 0x4 ADD PUSH2 0x1768 SWAP1 PUSH2 0x4979 JUMP JUMPDEST PUSH1 0x40 MLOAD DUP1 SWAP2 SUB SWAP1 REVERT JUMPDEST PUSH1 0x0 PUSH1 0x2 DUP6 DUP1 PUSH1 0x60 ADD SWAP1 PUSH2 0x1785 SWAP2 SWAP1 PUSH2 0x4D1F JUMP JUMPDEST PUSH1 0x40 MLOAD PUSH2 0x1793 SWAP3 SWAP2 SWAP1 PUSH2 0x4DB2 JUMP JUMPDEST SWAP1 DUP2 MSTORE PUSH1 0x20 ADD PUSH1 0x40 MLOAD DUP1 SWAP2 SUB SWAP1 KECCAK256 PUSH1 0x0 DUP7 PUSH1 0x20 ADD PUSH1 0x20 DUP2 ADD SWAP1 PUSH2 0x17B6 SWAP2 SWAP1 PUSH2 0x4771 JUMP JUMPDEST PUSH20 0xFFFFFFFFFFFFFFFFFFFFFFFFFFFFFFFFFFFFFFFF AND PUSH20 0xFFFFFFFFFFFFFFFFFFFFFFFFFFFFFFFFFFFFFFFF AND DUP2 MSTORE PUSH1 0x20 ADD SWAP1 DUP2 MSTORE PUSH1 0x20 ADD PUSH1 0x0 KECCAK256 SLOAD EQ PUSH2 0x1831 JUMPI PUSH1 0x40 MLOAD PUSH32 0x8C379A000000000000000000000000000000000000000000000000000000000 DUP2 MSTORE PUSH1 0x4 ADD PUSH2 0x1828 SWAP1 PUSH2 0x4E17 JUMP JUMPDEST PUSH1 0x40 MLOAD DUP1 SWAP2 SUB SWAP1 REVERT JUMPDEST PUSH1 0x0 PUSH32 0xE4E7F79E1B816A8339A2C34D2D40C092E0F7B0AE1141E64B225671B4AF030F7D DUP6 PUSH1 0x0 ADD PUSH1 0x20 DUP2 ADD SWAP1 PUSH2 0x1867 SWAP2 SWAP1 PUSH2 0x4771 JUMP JUMPDEST DUP7 PUSH1 0x20 ADD PUSH1 0x20 DUP2 ADD SWAP1 PUSH2 0x187A SWAP2 SWAP1 PUSH2 0x4771 JUMP JUMPDEST DUP8 PUSH1 0x40 ADD CALLDATALOAD DUP9 DUP1 PUSH1 0x60 ADD SWAP1 PUSH2 0x188F SWAP2 SWAP1 PUSH2 0x4D1F JUMP JUMPDEST PUSH1 0x40 MLOAD PUSH2 0x189D SWAP3 SWAP2 SWAP1 PUSH2 0x4FA8 JUMP JUMPDEST PUSH1 0x40 MLOAD DUP1 SWAP2 SUB SWAP1 KECCAK256 PUSH1 0x40 MLOAD PUSH1 0x20 ADD PUSH2 0x18B9 SWAP6 SWAP5 SWAP4 SWAP3 SWAP2 SWAP1 PUSH2 0x55DA JUMP JUMPDEST PUSH1 0x40 MLOAD PUSH1 0x20 DUP2 DUP4 SUB SUB DUP2 MSTORE SWAP1 PUSH1 0x40 MSTORE DUP1 MLOAD SWAP1 PUSH1 0x20 ADD KECCAK256 SWAP1 POP PUSH1 0x0 PUSH1 0x1 PUSH1 0x8 SLOAD DUP4 PUSH1 0x40 MLOAD PUSH1 0x20 ADD PUSH2 0x18EA SWAP3 SWAP2 SWAP1 PUSH2 0x50EE JUMP JUMPDEST PUSH1 0x40 MLOAD PUSH1 0x20 DUP2 DUP4 SUB SUB DUP2 MSTORE SWAP1 PUSH1 0x40 MSTORE DUP1 MLOAD SWAP1 PUSH1 0x20 ADD KECCAK256 DUP7 DUP7 DUP7 PUSH1 0x40 MLOAD PUSH1 0x0 DUP2 MSTORE PUSH1 0x20 ADD PUSH1 0x40 MSTORE PUSH1 0x40 MLOAD PUSH2 0x1920 SWAP5 SWAP4 SWAP3 SWAP2 SWAP1 PUSH2 0x5134 JUMP JUMPDEST PUSH1 0x20 PUSH1 0x40 MLOAD PUSH1 0x20 DUP2 SUB SWAP1 DUP1 DUP5 SUB SWAP1 DUP6 GAS STATICCALL ISZERO DUP1 ISZERO PUSH2 0x1942 JUMPI RETURNDATASIZE PUSH1 0x0 DUP1 RETURNDATACOPY RETURNDATASIZE PUSH1 0x0 REVERT JUMPDEST POP POP POP PUSH1 0x20 PUSH1 0x40 MLOAD SUB MLOAD SWAP1 POP PUSH1 0x0 PUSH20 0xFFFFFFFFFFFFFFFFFFFFFFFFFFFFFFFFFFFFFFFF AND DUP2 PUSH20 0xFFFFFFFFFFFFFFFFFFFFFFFFFFFFFFFFFFFFFFFF AND EQ ISZERO DUP1 ISZERO PUSH2 0x19D4 JUMPI POP PUSH1 0x5 PUSH1 0x0 DUP3 PUSH20 0xFFFFFFFFFFFFFFFFFFFFFFFFFFFFFFFFFFFFFFFF AND PUSH20 0xFFFFFFFFFFFFFFFFFFFFFFFFFFFFFFFFFFFFFFFF AND DUP2 MSTORE PUSH1 0x20 ADD SWAP1 DUP2 MSTORE PUSH1 0x20 ADD PUSH1 0x0 KECCAK256 PUSH1 0x0 SWAP1 SLOAD SWAP1 PUSH2 0x100 EXP SWAP1 DIV PUSH1 0xFF AND JUMPDEST PUSH2 0x1A13 JUMPI PUSH1 0x40 MLOAD PUSH32 0x8C379A000000000000000000000000000000000000000000000000000000000 DUP2 MSTORE PUSH1 0x4 ADD PUSH2 0x1A0A SWAP1 PUSH2 0x51C5 JUMP JUMPDEST PUSH1 0x40 MLOAD DUP1 SWAP2 SUB SWAP1 REVERT JUMPDEST PUSH1 0x0 DUP1 PUSH20 0xFFFFFFFFFFFFFFFFFFFFFFFFFFFFFFFFFFFFFFFF AND DUP8 PUSH1 0x20 ADD PUSH1 0x20 DUP2 ADD SWAP1 PUSH2 0x1A3F SWAP2 SWAP1 PUSH2 0x4771 JUMP JUMPDEST PUSH20 0xFFFFFFFFFFFFFFFFFFFFFFFFFFFFFFFFFFFFFFFF AND SUB PUSH2 0x1B42 JUMPI DUP7 PUSH1 0x40 ADD CALLDATALOAD PUSH1 0xA SLOAD LT ISZERO PUSH2 0x1AA3 JUMPI PUSH1 0x40 MLOAD PUSH32 0x8C379A000000000000000000000000000000000000000000000000000000000 DUP2 MSTORE PUSH1 0x4 ADD PUSH2 0x1A9A SWAP1 PUSH2 0x5679 JUMP JUMPDEST PUSH1 0x40 MLOAD DUP1 SWAP2 SUB SWAP1 REVERT JUMPDEST DUP7 PUSH1 0x40 ADD CALLDATALOAD PUSH1 0xA SLOAD PUSH2 0x1AB5 SWAP2 SWAP1 PUSH2 0x4893 JUMP JUMPDEST PUSH1 0xA DUP2 SWAP1 SSTORE POP DUP7 PUSH1 0x0 ADD PUSH1 0x20 DUP2 ADD SWAP1 PUSH2 0x1ACE SWAP2 SWAP1 PUSH2 0x4771 JUMP JUMPDEST PUSH20 0xFFFFFFFFFFFFFFFFFFFFFFFFFFFFFFFFFFFFFFFF AND DUP8 PUSH1 0x40 ADD CALLDATALOAD PUSH1 0x40 MLOAD PUSH2 0x1AF5 SWAP1 PUSH2 0x56BF JUMP JUMPDEST PUSH1 0x0 PUSH1 0x40 MLOAD DUP1 DUP4 SUB DUP2 DUP6 DUP8 GAS CALL SWAP3 POP POP POP RETURNDATASIZE DUP1 PUSH1 0x0 DUP2 EQ PUSH2 0x1B32 JUMPI PUSH1 0x40 MLOAD SWAP2 POP PUSH1 0x1F NOT PUSH1 0x3F RETURNDATASIZE ADD AND DUP3 ADD PUSH1 0x40 MSTORE RETURNDATASIZE DUP3 MSTORE RETURNDATASIZE PUSH1 0x0 PUSH1 0x20 DUP5 ADD RETURNDATACOPY PUSH2 0x1B37 JUMP JUMPDEST PUSH1 0x60 SWAP2 POP JUMPDEST POP POP DUP1 SWAP2 POP POP PUSH2 0x1CBD JUMP JUMPDEST DUP7 PUSH1 0x40 ADD CALLDATALOAD DUP8 PUSH1 0x20 ADD PUSH1 0x20 DUP2 ADD SWAP1 PUSH2 0x1B5A SWAP2 SWAP1 PUSH2 0x4771 JUMP JUMPDEST PUSH20 0xFFFFFFFFFFFFFFFFFFFFFFFFFFFFFFFFFFFFFFFF AND PUSH4 0x70A08231 ADDRESS PUSH1 0x40 MLOAD DUP3 PUSH4 0xFFFFFFFF AND PUSH1 0xE0 SHL DUP2 MSTORE PUSH1 0x4 ADD PUSH2 0x1B92 SWAP2 SWAP1 PUSH2 0x56D4 JUMP JUMPDEST PUSH1 0x20 PUSH1 0x40 MLOAD DUP1 DUP4 SUB DUP2 DUP7 GAS STATICCALL ISZERO DUP1 ISZERO PUSH2 0x1BAF JUMPI RETURNDATASIZE PUSH1 0x0 DUP1 RETURNDATACOPY RETURNDATASIZE PUSH1 0x0 REVERT JUMPDEST POP POP POP POP PUSH1 0x40 MLOAD RETURNDATASIZE PUSH1 0x1F NOT PUSH1 0x1F DUP3 ADD AND DUP3 ADD DUP1 PUSH1 0x40 MSTORE POP DUP2 ADD SWAP1 PUSH2 0x1BD3 SWAP2 SWAP1 PUSH2 0x56EF JUMP JUMPDEST LT ISZERO PUSH2 0x1C14 JUMPI PUSH1 0x40 MLOAD PUSH32 0x8C379A000000000000000000000000000000000000000000000000000000000 DUP2 MSTORE PUSH1 0x4 ADD PUSH2 0x1C0B SWAP1 PUSH2 0x5679 JUMP JUMPDEST PUSH1 0x40 MLOAD DUP1 SWAP2 SUB SWAP1 REVERT JUMPDEST DUP7 PUSH1 0x20 ADD PUSH1 0x20 DUP2 ADD SWAP1 PUSH2 0x1C27 SWAP2 SWAP1 PUSH2 0x4771 JUMP JUMPDEST PUSH20 0xFFFFFFFFFFFFFFFFFFFFFFFFFFFFFFFFFFFFFFFF AND PUSH4 0xA9059CBB DUP9 PUSH1 0x0 ADD PUSH1 0x20 DUP2 ADD SWAP1 PUSH2 0x1C55 SWAP2 SWAP1 PUSH2 0x4771 JUMP JUMPDEST DUP10 PUSH1 0x40 ADD CALLDATALOAD PUSH1 0x40 MLOAD DUP4 PUSH4 0xFFFFFFFF AND PUSH1 0xE0 SHL DUP2 MSTORE PUSH1 0x4 ADD PUSH2 0x1C77 SWAP3 SWAP2 SWAP1 PUSH2 0x53FB JUMP JUMPDEST PUSH1 0x20 PUSH1 0x40 MLOAD DUP1 DUP4 SUB DUP2 PUSH1 0x0 DUP8 GAS CALL ISZERO DUP1 ISZERO PUSH2 0x1C96 JUMPI RETURNDATASIZE PUSH1 0x0 DUP1 RETURNDATACOPY RETURNDATASIZE PUSH1 0x0 REVERT JUMPDEST POP POP POP POP PUSH1 0x40 MLOAD RETURNDATASIZE PUSH1 0x1F NOT PUSH1 0x1F DUP3 ADD AND DUP3 ADD DUP1 PUSH1 0x40 MSTORE POP DUP2 ADD SWAP1 PUSH2 0x1CBA SWAP2 SWAP1 PUSH2 0x533C JUMP JUMPDEST SWAP1 POP JUMPDEST DUP1 PUSH2 0x1CFD JUMPI PUSH1 0x40 MLOAD PUSH32 0x8C379A000000000000000000000000000000000000000000000000000000000 DUP2 MSTORE PUSH1 0x4 ADD PUSH2 0x1CF4 SWAP1 PUSH2 0x5538 JUMP JUMPDEST PUSH1 0x40 MLOAD DUP1 SWAP2 SUB SWAP1 REVERT JUMPDEST DUP7 PUSH1 0x40 ADD CALLDATALOAD PUSH1 0x2 DUP9 DUP1 PUSH1 0x60 ADD SWAP1 PUSH2 0x1D14 SWAP2 SWAP1 PUSH2 0x4D1F JUMP JUMPDEST PUSH1 0x40 MLOAD PUSH2 0x1D22 SWAP3 SWAP2 SWAP1 PUSH2 0x4DB2 JUMP JUMPDEST SWAP1 DUP2 MSTORE PUSH1 0x20 ADD PUSH1 0x40 MLOAD DUP1 SWAP2 SUB SWAP1 KECCAK256 PUSH1 0x0 DUP10 PUSH1 0x20 ADD PUSH1 0x20 DUP2 ADD SWAP1 PUSH2 0x1D45 SWAP2 SWAP1 PUSH2 0x4771 JUMP JUMPDEST PUSH20 0xFFFFFFFFFFFFFFFFFFFFFFFFFFFFFFFFFFFFFFFF AND PUSH20 0xFFFFFFFFFFFFFFFFFFFFFFFFFFFFFFFFFFFFFFFF AND DUP2 MSTORE PUSH1 0x20 ADD SWAP1 DUP2 MSTORE PUSH1 0x20 ADD PUSH1 0x0 KECCAK256 DUP2 SWAP1 SSTORE POP PUSH32 0x325F11443FD5933E69141C212F23E164610182B2B88A76E4120EF0FD9824F15 DUP8 PUSH1 0x20 ADD PUSH1 0x20 DUP2 ADD SWAP1 PUSH2 0x1DB7 SWAP2 SWAP1 PUSH2 0x4771 JUMP JUMPDEST DUP9 PUSH1 0x40 ADD CALLDATALOAD DUP10 PUSH1 0x0 ADD PUSH1 0x20 DUP2 ADD SWAP1 PUSH2 0x1DCF SWAP2 SWAP1 PUSH2 0x4771 JUMP JUMPDEST DUP11 DUP1 PUSH1 0x60 ADD SWAP1 PUSH2 0x1DDF SWAP2 SWAP1 PUSH2 0x4D1F JUMP JUMPDEST PUSH1 0x40 MLOAD PUSH2 0x1DF0 SWAP6 SWAP5 SWAP4 SWAP3 SWAP2 SWAP1 PUSH2 0x571C JUMP JUMPDEST PUSH1 0x40 MLOAD DUP1 SWAP2 SUB SWAP1 LOG1 POP POP POP PUSH2 0x1E03 PUSH2 0x3B72 JUMP JUMPDEST POP POP POP POP JUMP JUMPDEST PUSH2 0x1E11 PUSH2 0x3B23 JUMP JUMPDEST PUSH1 0x9 PUSH1 0x0 SWAP1 SLOAD SWAP1 PUSH2 0x100 EXP SWAP1 DIV PUSH1 0xFF AND PUSH2 0x1E60 JUMPI PUSH1 0x40 MLOAD PUSH32 0x8C379A000000000000000000000000000000000000000000000000000000000 DUP2 MSTORE PUSH1 0x4 ADD PUSH2 0x1E57 SWAP1 PUSH2 0x4C8D JUMP JUMPDEST PUSH1 0x40 MLOAD DUP1 SWAP2 SUB SWAP1 REVERT JUMPDEST PUSH1 0x6 PUSH1 0x0 DUP6 PUSH1 0x0 ADD PUSH1 0x20 DUP2 ADD SWAP1 PUSH2 0x1E77 SWAP2 SWAP1 PUSH2 0x4771 JUMP JUMPDEST PUSH20 0xFFFFFFFFFFFFFFFFFFFFFFFFFFFFFFFFFFFFFFFF AND PUSH20 0xFFFFFFFFFFFFFFFFFFFFFFFFFFFFFFFFFFFFFFFF AND DUP2 MSTORE PUSH1 0x20 ADD SWAP1 DUP2 MSTORE PUSH1 0x20 ADD PUSH1 0x0 KECCAK256 PUSH1 0x0 SWAP1 SLOAD SWAP1 PUSH2 0x100 EXP SWAP1 DIV PUSH1 0xFF AND PUSH2 0x1EFE JUMPI PUSH1 0x40 MLOAD PUSH32 0x8C379A000000000000000000000000000000000000000000000000000000000 DUP2 MSTORE PUSH1 0x4 ADD PUSH2 0x1EF5 SWAP1 PUSH2 0x4979 JUMP JUMPDEST PUSH1 0x40 MLOAD DUP1 SWAP2 SUB SWAP1 REVERT JUMPDEST PUSH1 0x0 PUSH1 0x4 DUP6 DUP1 PUSH1 0x40 ADD SWAP1 PUSH2 0x1F12 SWAP2 SWAP1 PUSH2 0x4D1F JUMP JUMPDEST PUSH1 0x40 MLOAD PUSH2 0x1F20 SWAP3 SWAP2 SWAP1 PUSH2 0x4DB2 JUMP JUMPDEST SWAP1 DUP2 MSTORE PUSH1 0x20 ADD PUSH1 0x40 MLOAD DUP1 SWAP2 SUB SWAP1 KECCAK256 PUSH1 0x0 DUP7 PUSH1 0x0 ADD PUSH1 0x20 DUP2 ADD SWAP1 PUSH2 0x1F43 SWAP2 SWAP1 PUSH2 0x4771 JUMP JUMPDEST PUSH20 0xFFFFFFFFFFFFFFFFFFFFFFFFFFFFFFFFFFFFFFFF AND PUSH20 0xFFFFFFFFFFFFFFFFFFFFFFFFFFFFFFFFFFFFFFFF AND DUP2 MSTORE PUSH1 0x20 ADD SWAP1 DUP2 MSTORE PUSH1 0x20 ADD PUSH1 0x0 KECCAK256 SLOAD EQ PUSH2 0x1FBE JUMPI PUSH1 0x40 MLOAD PUSH32 0x8C379A000000000000000000000000000000000000000000000000000000000 DUP2 MSTORE PUSH1 0x4 ADD PUSH2 0x1FB5 SWAP1 PUSH2 0x4E17 JUMP JUMPDEST PUSH1 0x40 MLOAD DUP1 SWAP2 SUB SWAP1 REVERT JUMPDEST PUSH1 0x0 DUP5 PUSH1 0x20 ADD CALLDATALOAD GT PUSH2 0x2005 JUMPI PUSH1 0x40 MLOAD PUSH32 0x8C379A000000000000000000000000000000000000000000000000000000000 DUP2 MSTORE PUSH1 0x4 ADD PUSH2 0x1FFC SWAP1 PUSH2 0x4E83 JUMP JUMPDEST PUSH1 0x40 MLOAD DUP1 SWAP2 SUB SWAP1 REVERT JUMPDEST PUSH1 0x0 PUSH32 0x6233BDAAD55FD96C2011D270806774059F67F032FA475F70E0FF1C153FE9D196 DUP6 PUSH1 0x0 ADD PUSH1 0x20 DUP2 ADD SWAP1 PUSH2 0x203B SWAP2 SWAP1 PUSH2 0x4771 JUMP JUMPDEST DUP7 PUSH1 0x20 ADD CALLDATALOAD DUP8 DUP1 PUSH1 0x40 ADD SWAP1 PUSH2 0x2050 SWAP2 SWAP1 PUSH2 0x4D1F JUMP JUMPDEST PUSH1 0x40 MLOAD PUSH2 0x205E SWAP3 SWAP2 SWAP1 PUSH2 0x4FA8 JUMP JUMPDEST PUSH1 0x40 MLOAD DUP1 SWAP2 SUB SWAP1 KECCAK256 PUSH1 0x40 MLOAD PUSH1 0x20 ADD PUSH2 0x2079 SWAP5 SWAP4 SWAP3 SWAP2 SWAP1 PUSH2 0x576A JUMP JUMPDEST PUSH1 0x40 MLOAD PUSH1 0x20 DUP2 DUP4 SUB SUB DUP2 MSTORE SWAP1 PUSH1 0x40 MSTORE DUP1 MLOAD SWAP1 PUSH1 0x20 ADD KECCAK256 SWAP1 POP PUSH1 0x0 PUSH1 0x1 PUSH1 0x8 SLOAD DUP4 PUSH1 0x40 MLOAD PUSH1 0x20 ADD PUSH2 0x20AA SWAP3 SWAP2 SWAP1 PUSH2 0x50EE JUMP JUMPDEST PUSH1 0x40 MLOAD PUSH1 0x20 DUP2 DUP4 SUB SUB DUP2 MSTORE SWAP1 PUSH1 0x40 MSTORE DUP1 MLOAD SWAP1 PUSH1 0x20 ADD KECCAK256 DUP7 DUP7 DUP7 PUSH1 0x40 MLOAD PUSH1 0x0 DUP2 MSTORE PUSH1 0x20 ADD PUSH1 0x40 MSTORE PUSH1 0x40 MLOAD PUSH2 0x20E0 SWAP5 SWAP4 SWAP3 SWAP2 SWAP1 PUSH2 0x5134 JUMP JUMPDEST PUSH1 0x20 PUSH1 0x40 MLOAD PUSH1 0x20 DUP2 SUB SWAP1 DUP1 DUP5 SUB SWAP1 DUP6 GAS STATICCALL ISZERO DUP1 ISZERO PUSH2 0x2102 JUMPI RETURNDATASIZE PUSH1 0x0 DUP1 RETURNDATACOPY RETURNDATASIZE PUSH1 0x0 REVERT JUMPDEST POP POP POP PUSH1 0x20 PUSH1 0x40 MLOAD SUB MLOAD SWAP1 POP PUSH1 0x0 PUSH20 0xFFFFFFFFFFFFFFFFFFFFFFFFFFFFFFFFFFFFFFFF AND DUP2 PUSH20 0xFFFFFFFFFFFFFFFFFFFFFFFFFFFFFFFFFFFFFFFF AND EQ ISZERO DUP1 ISZERO PUSH2 0x2194 JUMPI POP PUSH1 0x5 PUSH1 0x0 DUP3 PUSH20 0xFFFFFFFFFFFFFFFFFFFFFFFFFFFFFFFFFFFFFFFF AND PUSH20 0xFFFFFFFFFFFFFFFFFFFFFFFFFFFFFFFFFFFFFFFF AND DUP2 MSTORE PUSH1 0x20 ADD SWAP1 DUP2 MSTORE PUSH1 0x20 ADD PUSH1 0x0 KECCAK256 PUSH1 0x0 SWAP1 SLOAD SWAP1 PUSH2 0x100 EXP SWAP1 DIV PUSH1 0xFF AND JUMPDEST PUSH2 0x21D3 JUMPI PUSH1 0x40 MLOAD PUSH32 0x8C379A000000000000000000000000000000000000000000000000000000000 DUP2 MSTORE PUSH1 0x4 ADD PUSH2 0x21CA SWAP1 PUSH2 0x51C5 JUMP JUMPDEST PUSH1 0x40 MLOAD DUP1 SWAP2 SUB SWAP1 REVERT JUMPDEST PUSH1 0x0 PUSH20 0xFFFFFFFFFFFFFFFFFFFFFFFFFFFFFFFFFFFFFFFF AND DUP7 PUSH1 0x0 ADD PUSH1 0x20 DUP2 ADD SWAP1 PUSH2 0x21FE SWAP2 SWAP1 PUSH2 0x4771 JUMP JUMPDEST PUSH20 0xFFFFFFFFFFFFFFFFFFFFFFFFFFFFFFFFFFFFFFFF AND SUB PUSH2 0x2265 JUMPI DUP6 PUSH1 0x20 ADD CALLDATALOAD CALLVALUE LT ISZERO PUSH2 0x2260 JUMPI PUSH1 0x40 MLOAD PUSH32 0x8C379A000000000000000000000000000000000000000000000000000000000 DUP2 MSTORE PUSH1 0x4 ADD PUSH2 0x2257 SWAP1 PUSH2 0x5273 JUMP JUMPDEST PUSH1 0x40 MLOAD DUP1 SWAP2 SUB SWAP1 REVERT JUMPDEST PUSH2 0x233B JUMP JUMPDEST DUP6 PUSH1 0x0 ADD PUSH1 0x20 DUP2 ADD SWAP1 PUSH2 0x2278 SWAP2 SWAP1 PUSH2 0x4771 JUMP JUMPDEST PUSH20 0xFFFFFFFFFFFFFFFFFFFFFFFFFFFFFFFFFFFFFFFF AND PUSH4 0x23B872DD CALLER ADDRESS DUP10 PUSH1 0x20 ADD CALLDATALOAD PUSH1 0x40 MLOAD DUP5 PUSH4 0xFFFFFFFF AND PUSH1 0xE0 SHL DUP2 MSTORE PUSH1 0x4 ADD PUSH2 0x22B8 SWAP4 SWAP3 SWAP2 SWAP1 PUSH2 0x52F0 JUMP JUMPDEST PUSH1 0x20 PUSH1 0x40 MLOAD DUP1 DUP4 SUB DUP2 PUSH1 0x0 DUP8 GAS CALL ISZERO DUP1 ISZERO PUSH2 0x22D7 JUMPI RETURNDATASIZE PUSH1 0x0 DUP1 RETURNDATACOPY RETURNDATASIZE PUSH1 0x0 REVERT JUMPDEST POP POP POP POP PUSH1 0x40 MLOAD RETURNDATASIZE PUSH1 0x1F NOT PUSH1 0x1F DUP3 ADD AND DUP3 ADD DUP1 PUSH1 0x40 MSTORE POP DUP2 ADD SWAP1 PUSH2 0x22FB SWAP2 SWAP1 PUSH2 0x533C JUMP JUMPDEST PUSH2 0x233A JUMPI PUSH1 0x40 MLOAD PUSH32 0x8C379A000000000000000000000000000000000000000000000000000000000 DUP2 MSTORE PUSH1 0x4 ADD PUSH2 0x2331 SWAP1 PUSH2 0x57FB JUMP JUMPDEST PUSH1 0x40 MLOAD DUP1 SWAP2 SUB SWAP1 REVERT JUMPDEST JUMPDEST DUP6 PUSH1 0x20 ADD CALLDATALOAD PUSH1 0x4 DUP8 DUP1 PUSH1 0x40 ADD SWAP1 PUSH2 0x2352 SWAP2 SWAP1 PUSH2 0x4D1F JUMP JUMPDEST PUSH1 0x40 MLOAD PUSH2 0x2360 SWAP3 SWAP2 SWAP1 PUSH2 0x4DB2 JUMP JUMPDEST SWAP1 DUP2 MSTORE PUSH1 0x20 ADD PUSH1 0x40 MLOAD DUP1 SWAP2 SUB SWAP1 KECCAK256 PUSH1 0x0 DUP9 PUSH1 0x0 ADD PUSH1 0x20 DUP2 ADD SWAP1 PUSH2 0x2383 SWAP2 SWAP1 PUSH2 0x4771 JUMP JUMPDEST PUSH20 0xFFFFFFFFFFFFFFFFFFFFFFFFFFFFFFFFFFFFFFFF AND PUSH20 0xFFFFFFFFFFFFFFFFFFFFFFFFFFFFFFFFFFFFFFFF AND DUP2 MSTORE PUSH1 0x20 ADD SWAP1 DUP2 MSTORE PUSH1 0x20 ADD PUSH1 0x0 KECCAK256 DUP2 SWAP1 SSTORE POP PUSH32 0x59D22F0EC9589B7A809AC3AB066E0DC96F05443380D1E565B7CC68A99DE96975 DUP7 PUSH1 0x0 ADD PUSH1 0x20 DUP2 ADD SWAP1 PUSH2 0x23F5 SWAP2 SWAP1 PUSH2 0x4771 JUMP JUMPDEST DUP8 PUSH1 0x20 ADD CALLDATALOAD DUP9 DUP1 PUSH1 0x40 ADD SWAP1 PUSH2 0x240A SWAP2 SWAP1 PUSH2 0x4D1F JUMP JUMPDEST PUSH1 0x40 MLOAD PUSH2 0x241A SWAP5 SWAP4 SWAP3 SWAP2 SWAP1 PUSH2 0x581B JUMP JUMPDEST PUSH1 0x40 MLOAD DUP1 SWAP2 SUB SWAP1 LOG1 POP POP PUSH2 0x242C PUSH2 0x3B72 JUMP JUMPDEST POP POP POP POP JUMP JUMPDEST PUSH1 0x3 DUP3 DUP1 MLOAD PUSH1 0x20 DUP2 ADD DUP3 ADD DUP1 MLOAD DUP5 DUP3 MSTORE PUSH1 0x20 DUP4 ADD PUSH1 0x20 DUP6 ADD KECCAK256 DUP2 DUP4 MSTORE DUP1 SWAP6 POP POP POP POP POP POP PUSH1 0x20 MSTORE DUP1 PUSH1 0x0 MSTORE PUSH1 0x40 PUSH1 0x0 KECCAK256 PUSH1 0x0 SWAP2 POP SWAP2 POP POP SLOAD DUP2 JUMP JUMPDEST PUSH32 0xA49807205CE4D355092EF5A8A18F56E8913CF4A201FBE287825B095693C21775 PUSH2 0x2497 DUP2 PUSH2 0x3946 JUMP JUMPDEST PUSH1 0x0 PUSH20 0xFFFFFFFFFFFFFFFFFFFFFFFFFFFFFFFFFFFFFFFF AND DUP4 PUSH20 0xFFFFFFFFFFFFFFFFFFFFFFFFFFFFFFFFFFFFFFFF AND SUB PUSH2 0x2506 JUMPI PUSH1 0x40 MLOAD PUSH32 0x8C379A000000000000000000000000000000000000000000000000000000000 DUP2 MSTORE PUSH1 0x4 ADD PUSH2 0x24FD SWAP1 PUSH2 0x58A7 JUMP JUMPDEST PUSH1 0x40 MLOAD DUP1 SWAP2 SUB SWAP1 REVERT JUMPDEST DUP4 PUSH20 0xFFFFFFFFFFFFFFFFFFFFFFFFFFFFFFFFFFFFFFFF AND PUSH4 0x95EA7B3 DUP5 DUP5 PUSH1 0x40 MLOAD DUP4 PUSH4 0xFFFFFFFF AND PUSH1 0xE0 SHL DUP2 MSTORE PUSH1 0x4 ADD PUSH2 0x2541 SWAP3 SWAP2 SWAP1 PUSH2 0x53FB JUMP JUMPDEST PUSH1 0x20 PUSH1 0x40 MLOAD DUP1 DUP4 SUB DUP2 PUSH1 0x0 DUP8 GAS CALL ISZERO DUP1 ISZERO PUSH2 0x2560 JUMPI RETURNDATASIZE PUSH1 0x0 DUP1 RETURNDATACOPY RETURNDATASIZE PUSH1 0x0 REVERT JUMPDEST POP POP POP POP PUSH1 0x40 MLOAD RETURNDATASIZE PUSH1 0x1F NOT PUSH1 0x1F DUP3 ADD AND DUP3 ADD DUP1 PUSH1 0x40 MSTORE POP DUP2 ADD SWAP1 PUSH2 0x2584 SWAP2 SWAP1 PUSH2 0x533C JUMP JUMPDEST POP POP POP POP POP JUMP JUMPDEST PUSH1 0x5 PUSH1 0x20 MSTORE DUP1 PUSH1 0x0 MSTORE PUSH1 0x40 PUSH1 0x0 KECCAK256 PUSH1 0x0 SWAP2 POP SLOAD SWAP1 PUSH2 0x100 EXP SWAP1 DIV PUSH1 0xFF AND DUP2 JUMP JUMPDEST PUSH32 0xA49807205CE4D355092EF5A8A18F56E8913CF4A201FBE287825B095693C21775 DUP2 JUMP JUMPDEST PUSH1 0x60 PUSH1 0x6 PUSH1 0x0 DUP7 DUP7 PUSH1 0x0 DUP2 DUP2 LT PUSH2 0x25E9 JUMPI PUSH2 0x25E8 PUSH2 0x48C7 JUMP JUMPDEST JUMPDEST SWAP1 POP PUSH1 0x20 MUL ADD PUSH1 0x20 DUP2 ADD SWAP1 PUSH2 0x25FE SWAP2 SWAP1 PUSH2 0x4771 JUMP JUMPDEST PUSH20 0xFFFFFFFFFFFFFFFFFFFFFFFFFFFFFFFFFFFFFFFF AND PUSH20 0xFFFFFFFFFFFFFFFFFFFFFFFFFFFFFFFFFFFFFFFF AND DUP2 MSTORE PUSH1 0x20 ADD SWAP1 DUP2 MSTORE PUSH1 0x20 ADD PUSH1 0x0 KECCAK256 PUSH1 0x0 SWAP1 SLOAD SWAP1 PUSH2 0x100 EXP SWAP1 DIV PUSH1 0xFF AND PUSH2 0x2685 JUMPI PUSH1 0x40 MLOAD PUSH32 0x8C379A000000000000000000000000000000000000000000000000000000000 DUP2 MSTORE PUSH1 0x4 ADD PUSH2 0x267C SWAP1 PUSH2 0x4979 JUMP JUMPDEST PUSH1 0x40 MLOAD DUP1 SWAP2 SUB SWAP1 REVERT JUMPDEST DUP2 ISZERO PUSH2 0x2715 JUMPI DUP6 PUSH20 0xFFFFFFFFFFFFFFFFFFFFFFFFFFFFFFFFFFFFFFFF AND PUSH4 0xD06CA61F DUP5 DUP8 DUP8 PUSH1 0x40 MLOAD DUP5 PUSH4 0xFFFFFFFF AND PUSH1 0xE0 SHL DUP2 MSTORE PUSH1 0x4 ADD PUSH2 0x26C8 SWAP4 SWAP3 SWAP2 SWAP1 PUSH2 0x4A5C JUMP JUMPDEST PUSH1 0x0 PUSH1 0x40 MLOAD DUP1 DUP4 SUB DUP2 DUP7 GAS STATICCALL ISZERO DUP1 ISZERO PUSH2 0x26E5 JUMPI RETURNDATASIZE PUSH1 0x0 DUP1 RETURNDATACOPY RETURNDATASIZE PUSH1 0x0 REVERT JUMPDEST POP POP POP POP PUSH1 0x40 MLOAD RETURNDATASIZE PUSH1 0x0 DUP3 RETURNDATACOPY RETURNDATASIZE PUSH1 0x1F NOT PUSH1 0x1F DUP3 ADD AND DUP3 ADD DUP1 PUSH1 0x40 MSTORE POP DUP2 ADD SWAP1 PUSH2 0x270E SWAP2 SWAP1 PUSH2 0x4B66 JUMP JUMPDEST SWAP1 POP PUSH2 0x279B JUMP JUMPDEST DUP6 PUSH20 0xFFFFFFFFFFFFFFFFFFFFFFFFFFFFFFFFFFFFFFFF AND PUSH4 0x1F00CA74 DUP5 DUP8 DUP8 PUSH1 0x40 MLOAD DUP5 PUSH4 0xFFFFFFFF AND PUSH1 0xE0 SHL DUP2 MSTORE PUSH1 0x4 ADD PUSH2 0x2752 SWAP4 SWAP3 SWAP2 SWAP1 PUSH2 0x4A5C JUMP JUMPDEST PUSH1 0x0 PUSH1 0x40 MLOAD DUP1 DUP4 SUB DUP2 DUP7 GAS STATICCALL ISZERO DUP1 ISZERO PUSH2 0x276F JUMPI RETURNDATASIZE PUSH1 0x0 DUP1 RETURNDATACOPY RETURNDATASIZE PUSH1 0x0 REVERT JUMPDEST POP POP POP POP PUSH1 0x40 MLOAD RETURNDATASIZE PUSH1 0x0 DUP3 RETURNDATACOPY RETURNDATASIZE PUSH1 0x1F NOT PUSH1 0x1F DUP3 ADD AND DUP3 ADD DUP1 PUSH1 0x40 MSTORE POP DUP2 ADD SWAP1 PUSH2 0x2798 SWAP2 SWAP1 PUSH2 0x4B66 JUMP JUMPDEST SWAP1 POP JUMPDEST SWAP6 SWAP5 POP POP POP POP POP JUMP JUMPDEST PUSH1 0x0 DUP1 PUSH1 0x0 DUP5 DUP2 MSTORE PUSH1 0x20 ADD SWAP1 DUP2 MSTORE PUSH1 0x20 ADD PUSH1 0x0 KECCAK256 PUSH1 0x0 ADD PUSH1 0x0 DUP4 PUSH20 0xFFFFFFFFFFFFFFFFFFFFFFFFFFFFFFFFFFFFFFFF AND PUSH20 0xFFFFFFFFFFFFFFFFFFFFFFFFFFFFFFFFFFFFFFFF AND DUP2 MSTORE PUSH1 0x20 ADD SWAP1 DUP2 MSTORE PUSH1 0x20 ADD PUSH1 0x0 KECCAK256 PUSH1 0x0 SWAP1 SLOAD SWAP1 PUSH2 0x100 EXP SWAP1 DIV PUSH1 0xFF AND SWAP1 POP SWAP3 SWAP2 POP POP JUMP JUMPDEST PUSH1 0x7 PUSH1 0x20 MSTORE DUP1 PUSH1 0x0 MSTORE PUSH1 0x40 PUSH1 0x0 KECCAK256 PUSH1 0x0 SWAP2 POP SLOAD SWAP1 PUSH2 0x100 EXP SWAP1 DIV PUSH1 0xFF AND DUP2 JUMP JUMPDEST PUSH1 0x2 DUP3 DUP1 MLOAD PUSH1 0x20 DUP2 ADD DUP3 ADD DUP1 MLOAD DUP5 DUP3 MSTORE PUSH1 0x20 DUP4 ADD PUSH1 0x20 DUP6 ADD KECCAK256 DUP2 DUP4 MSTORE DUP1 SWAP6 POP POP POP POP POP POP PUSH1 0x20 MSTORE DUP1 PUSH1 0x0 MSTORE PUSH1 0x40 PUSH1 0x0 KECCAK256 PUSH1 0x0 SWAP2 POP SWAP2 POP POP SLOAD DUP2 JUMP JUMPDEST PUSH1 0x0 DUP1 SHL DUP2 JUMP JUMPDEST PUSH32 0xC7EF086EBAC56F7E2A320076691A1D8B60903518618208753FF37FD1BDAF7892 DUP2 JUMP JUMPDEST PUSH32 0xB19546DFF01E856FB3F010C267A7B1C60363CF8A4664E21CC89C26224620214E PUSH2 0x28BE DUP2 PUSH2 0x3946 JUMP JUMPDEST PUSH1 0x5 PUSH1 0x0 DUP4 PUSH20 0xFFFFFFFFFFFFFFFFFFFFFFFFFFFFFFFFFFFFFFFF AND PUSH20 0xFFFFFFFFFFFFFFFFFFFFFFFFFFFFFFFFFFFFFFFF AND DUP2 MSTORE PUSH1 0x20 ADD SWAP1 DUP2 MSTORE PUSH1 0x20 ADD PUSH1 0x0 KECCAK256 PUSH1 0x0 SWAP1 SLOAD SWAP1 PUSH2 0x100 EXP SWAP1 DIV PUSH1 0xFF AND ISZERO PUSH1 0x5 PUSH1 0x0 DUP5 PUSH20 0xFFFFFFFFFFFFFFFFFFFFFFFFFFFFFFFFFFFFFFFF AND PUSH20 0xFFFFFFFFFFFFFFFFFFFFFFFFFFFFFFFFFFFFFFFF AND DUP2 MSTORE PUSH1 0x20 ADD SWAP1 DUP2 MSTORE PUSH1 0x20 ADD PUSH1 0x0 KECCAK256 PUSH1 0x0 PUSH2 0x100 EXP DUP2 SLOAD DUP2 PUSH1 0xFF MUL NOT AND SWAP1 DUP4 ISZERO ISZERO MUL OR SWAP1 SSTORE POP POP POP JUMP JUMPDEST PUSH32 0xB19546DFF01E856FB3F010C267A7B1C60363CF8A4664E21CC89C26224620214E PUSH2 0x2990 DUP2 PUSH2 0x3946 JUMP JUMPDEST PUSH1 0x9 PUSH1 0x0 SWAP1 SLOAD SWAP1 PUSH2 0x100 EXP SWAP1 DIV PUSH1 0xFF AND ISZERO PUSH1 0x9 PUSH1 0x0 PUSH2 0x100 EXP DUP2 SLOAD DUP2 PUSH1 0xFF MUL NOT AND SWAP1 DUP4 ISZERO ISZERO MUL OR SWAP1 SSTORE POP POP JUMP JUMPDEST PUSH1 0xA SLOAD DUP2 JUMP JUMPDEST PUSH1 0x6 PUSH1 0x20 MSTORE DUP1 PUSH1 0x0 MSTORE PUSH1 0x40 PUSH1 0x0 KECCAK256 PUSH1 0x0 SWAP2 POP SLOAD SWAP1 PUSH2 0x100 EXP SWAP1 DIV PUSH1 0xFF AND DUP2 JUMP JUMPDEST PUSH32 0xE4E7F79E1B816A8339A2C34D2D40C092E0F7B0AE1141E64B225671B4AF030F7D DUP2 JUMP JUMPDEST PUSH32 0x8CAD95687BA82C2CE50E74F7B754645E5117C3A5BEC8151C0726D5857980A866 DUP2 JUMP JUMPDEST PUSH1 0x0 PUSH32 0xB19546DFF01E856FB3F010C267A7B1C60363CF8A4664E21CC89C26224620214E PUSH2 0x2A57 DUP2 PUSH2 0x3946 JUMP JUMPDEST PUSH1 0x0 PUSH20 0xFFFFFFFFFFFFFFFFFFFFFFFFFFFFFFFFFFFFFFFF AND DUP4 PUSH20 0xFFFFFFFFFFFFFFFFFFFFFFFFFFFFFFFFFFFFFFFF AND SUB PUSH2 0x2AC6 JUMPI PUSH1 0x40 MLOAD PUSH32 0x8C379A000000000000000000000000000000000000000000000000000000000 DUP2 MSTORE PUSH1 0x4 ADD PUSH2 0x2ABD SWAP1 PUSH2 0x5913 JUMP JUMPDEST PUSH1 0x40 MLOAD DUP1 SWAP2 SUB SWAP1 REVERT JUMPDEST PUSH1 0x7 PUSH1 0x0 DUP5 PUSH20 0xFFFFFFFFFFFFFFFFFFFFFFFFFFFFFFFFFFFFFFFF AND PUSH20 0xFFFFFFFFFFFFFFFFFFFFFFFFFFFFFFFFFFFFFFFF AND DUP2 MSTORE PUSH1 0x20 ADD SWAP1 DUP2 MSTORE PUSH1 0x20 ADD PUSH1 0x0 KECCAK256 PUSH1 0x0 SWAP1 SLOAD SWAP1 PUSH2 0x100 EXP SWAP1 DIV PUSH1 0xFF AND PUSH2 0x2B52 JUMPI PUSH1 0x40 MLOAD PUSH32 0x8C379A000000000000000000000000000000000000000000000000000000000 DUP2 MSTORE PUSH1 0x4 ADD PUSH2 0x2B49 SWAP1 PUSH2 0x59A5 JUMP JUMPDEST PUSH1 0x40 MLOAD DUP1 SWAP2 SUB SWAP1 REVERT JUMPDEST PUSH1 0x0 DUP1 PUSH20 0xFFFFFFFFFFFFFFFFFFFFFFFFFFFFFFFFFFFFFFFF AND DUP7 PUSH20 0xFFFFFFFFFFFFFFFFFFFFFFFFFFFFFFFFFFFFFFFF AND SUB PUSH2 0x2C51 JUMPI DUP5 PUSH1 0xA SLOAD LT ISZERO PUSH2 0x2BCC JUMPI PUSH1 0x40 MLOAD PUSH32 0x8C379A000000000000000000000000000000000000000000000000000000000 DUP2 MSTORE PUSH1 0x4 ADD PUSH2 0x2BC3 SWAP1 PUSH2 0x5679 JUMP JUMPDEST PUSH1 0x40 MLOAD DUP1 SWAP2 SUB SWAP1 REVERT JUMPDEST DUP5 PUSH1 0xA SLOAD PUSH2 0x2BDA SWAP2 SWAP1 PUSH2 0x4893 JUMP JUMPDEST PUSH1 0xA DUP2 SWAP1 SSTORE POP DUP4 PUSH20 0xFFFFFFFFFFFFFFFFFFFFFFFFFFFFFFFFFFFFFFFF AND DUP6 PUSH1 0x40 MLOAD PUSH2 0x2C04 SWAP1 PUSH2 0x56BF JUMP JUMPDEST PUSH1 0x0 PUSH1 0x40 MLOAD DUP1 DUP4 SUB DUP2 DUP6 DUP8 GAS CALL SWAP3 POP POP POP RETURNDATASIZE DUP1 PUSH1 0x0 DUP2 EQ PUSH2 0x2C41 JUMPI PUSH1 0x40 MLOAD SWAP2 POP PUSH1 0x1F NOT PUSH1 0x3F RETURNDATASIZE ADD AND DUP3 ADD PUSH1 0x40 MSTORE RETURNDATASIZE DUP3 MSTORE RETURNDATASIZE PUSH1 0x0 PUSH1 0x20 DUP5 ADD RETURNDATACOPY PUSH2 0x2C46 JUMP JUMPDEST PUSH1 0x60 SWAP2 POP JUMPDEST POP POP DUP1 SWAP2 POP POP PUSH2 0x2D8E JUMP JUMPDEST DUP5 DUP7 PUSH20 0xFFFFFFFFFFFFFFFFFFFFFFFFFFFFFFFFFFFFFFFF AND PUSH4 0x70A08231 ADDRESS PUSH1 0x40 MLOAD DUP3 PUSH4 0xFFFFFFFF AND PUSH1 0xE0 SHL DUP2 MSTORE PUSH1 0x4 ADD PUSH2 0x2C8B SWAP2 SWAP1 PUSH2 0x56D4 JUMP JUMPDEST PUSH1 0x20 PUSH1 0x40 MLOAD DUP1 DUP4 SUB DUP2 DUP7 GAS STATICCALL ISZERO DUP1 ISZERO PUSH2 0x2CA8 JUMPI RETURNDATASIZE PUSH1 0x0 DUP1 RETURNDATACOPY RETURNDATASIZE PUSH1 0x0 REVERT JUMPDEST POP POP POP POP PUSH1 0x40 MLOAD RETURNDATASIZE PUSH1 0x1F NOT PUSH1 0x1F DUP3 ADD AND DUP3 ADD DUP1 PUSH1 0x40 MSTORE POP DUP2 ADD SWAP1 PUSH2 0x2CCC SWAP2 SWAP1 PUSH2 0x56EF JUMP JUMPDEST LT ISZERO PUSH2 0x2D0D JUMPI PUSH1 0x40 MLOAD PUSH32 0x8C379A000000000000000000000000000000000000000000000000000000000 DUP2 MSTORE PUSH1 0x4 ADD PUSH2 0x2D04 SWAP1 PUSH2 0x5A11 JUMP JUMPDEST PUSH1 0x40 MLOAD DUP1 SWAP2 SUB SWAP1 REVERT JUMPDEST DUP6 PUSH20 0xFFFFFFFFFFFFFFFFFFFFFFFFFFFFFFFFFFFFFFFF AND PUSH4 0xA9059CBB DUP6 DUP8 PUSH1 0x40 MLOAD DUP4 PUSH4 0xFFFFFFFF AND PUSH1 0xE0 SHL DUP2 MSTORE PUSH1 0x4 ADD PUSH2 0x2D48 SWAP3 SWAP2 SWAP1 PUSH2 0x53FB JUMP JUMPDEST PUSH1 0x20 PUSH1 0x40 MLOAD DUP1 DUP4 SUB DUP2 PUSH1 0x0 DUP8 GAS CALL ISZERO DUP1 ISZERO PUSH2 0x2D67 JUMPI RETURNDATASIZE PUSH1 0x0 DUP1 RETURNDATACOPY RETURNDATASIZE PUSH1 0x0 REVERT JUMPDEST POP POP POP POP PUSH1 0x40 MLOAD RETURNDATASIZE PUSH1 0x1F NOT PUSH1 0x1F DUP3 ADD AND DUP3 ADD DUP1 PUSH1 0x40 MSTORE POP DUP2 ADD SWAP1 PUSH2 0x2D8B SWAP2 SWAP1 PUSH2 0x533C JUMP JUMPDEST SWAP1 POP JUMPDEST DUP1 SWAP3 POP POP POP SWAP4 SWAP3 POP POP POP JUMP JUMPDEST PUSH2 0x2DA3 DUP3 PUSH2 0xACA JUMP JUMPDEST PUSH2 0x2DAC DUP2 PUSH2 0x3946 JUMP JUMPDEST PUSH2 0x2DB6 DUP4 DUP4 PUSH2 0x3A42 JUMP JUMPDEST POP POP POP JUMP JUMPDEST PUSH1 0x4 DUP3 DUP1 MLOAD PUSH1 0x20 DUP2 ADD DUP3 ADD DUP1 MLOAD DUP5 DUP3 MSTORE PUSH1 0x20 DUP4 ADD PUSH1 0x20 DUP6 ADD KECCAK256 DUP2 DUP4 MSTORE DUP1 SWAP6 POP POP POP POP POP POP PUSH1 0x20 MSTORE DUP1 PUSH1 0x0 MSTORE PUSH1 0x40 PUSH1 0x0 KECCAK256 PUSH1 0x0 SWAP2 POP SWAP2 POP POP SLOAD DUP2 JUMP JUMPDEST PUSH32 0xB19546DFF01E856FB3F010C267A7B1C60363CF8A4664E21CC89C26224620214E DUP2 JUMP JUMPDEST PUSH32 0xA49807205CE4D355092EF5A8A18F56E8913CF4A201FBE287825B095693C21775 PUSH2 0x2E44 DUP2 PUSH2 0x3946 JUMP JUMPDEST PUSH1 0x6 PUSH1 0x0 DUP4 PUSH20 0xFFFFFFFFFFFFFFFFFFFFFFFFFFFFFFFFFFFFFFFF AND PUSH20 0xFFFFFFFFFFFFFFFFFFFFFFFFFFFFFFFFFFFFFFFF AND DUP2 MSTORE PUSH1 0x20 ADD SWAP1 DUP2 MSTORE PUSH1 0x20 ADD PUSH1 0x0 KECCAK256 PUSH1 0x0 SWAP1 SLOAD SWAP1 PUSH2 0x100 EXP SWAP1 DIV PUSH1 0xFF AND ISZERO PUSH1 0x6 PUSH1 0x0 DUP5 PUSH20 0xFFFFFFFFFFFFFFFFFFFFFFFFFFFFFFFFFFFFFFFF AND PUSH20 0xFFFFFFFFFFFFFFFFFFFFFFFFFFFFFFFFFFFFFFFF AND DUP2 MSTORE PUSH1 0x20 ADD SWAP1 DUP2 MSTORE PUSH1 0x20 ADD PUSH1 0x0 KECCAK256 PUSH1 0x0 PUSH2 0x100 EXP DUP2 SLOAD DUP2 PUSH1 0xFF MUL NOT AND SWAP1 DUP4 ISZERO ISZERO MUL OR SWAP1 SSTORE POP POP POP JUMP JUMPDEST PUSH2 0x2EF4 PUSH2 0x3B23 JUMP JUMPDEST PUSH1 0x9 PUSH1 0x0 SWAP1 SLOAD SWAP1 PUSH2 0x100 EXP SWAP1 DIV PUSH1 0xFF AND PUSH2 0x2F43 JUMPI PUSH1 0x40 MLOAD PUSH32 0x8C379A000000000000000000000000000000000000000000000000000000000 DUP2 MSTORE PUSH1 0x4 ADD PUSH2 0x2F3A SWAP1 PUSH2 0x4C8D JUMP JUMPDEST PUSH1 0x40 MLOAD DUP1 SWAP2 SUB SWAP1 REVERT JUMPDEST PUSH1 0x6 PUSH1 0x0 DUP6 DUP1 PUSH1 0x40 ADD SWAP1 PUSH2 0x2F57 SWAP2 SWAP1 PUSH2 0x4CBC JUMP JUMPDEST PUSH1 0x1 DUP9 DUP1 PUSH1 0x40 ADD SWAP1 PUSH2 0x2F69 SWAP2 SWAP1 PUSH2 0x4CBC JUMP JUMPDEST SWAP1 POP PUSH2 0x2F75 SWAP2 SWAP1 PUSH2 0x4893 JUMP JUMPDEST DUP2 DUP2 LT PUSH2 0x2F85 JUMPI PUSH2 0x2F84 PUSH2 0x48C7 JUMP JUMPDEST JUMPDEST SWAP1 POP PUSH1 0x20 MUL ADD PUSH1 0x20 DUP2 ADD SWAP1 PUSH2 0x2F9A SWAP2 SWAP1 PUSH2 0x4771 JUMP JUMPDEST PUSH20 0xFFFFFFFFFFFFFFFFFFFFFFFFFFFFFFFFFFFFFFFF AND PUSH20 0xFFFFFFFFFFFFFFFFFFFFFFFFFFFFFFFFFFFFFFFF AND DUP2 MSTORE PUSH1 0x20 ADD SWAP1 DUP2 MSTORE PUSH1 0x20 ADD PUSH1 0x0 KECCAK256 PUSH1 0x0 SWAP1 SLOAD SWAP1 PUSH2 0x100 EXP SWAP1 DIV PUSH1 0xFF AND PUSH2 0x3021 JUMPI PUSH1 0x40 MLOAD PUSH32 0x8C379A000000000000000000000000000000000000000000000000000000000 DUP2 MSTORE PUSH1 0x4 ADD PUSH2 0x3018 SWAP1 PUSH2 0x4979 JUMP JUMPDEST PUSH1 0x40 MLOAD DUP1 SWAP2 SUB SWAP1 REVERT JUMPDEST PUSH1 0x0 PUSH1 0x3 DUP6 DUP1 PUSH1 0xA0 ADD SWAP1 PUSH2 0x3035 SWAP2 SWAP1 PUSH2 0x4D1F JUMP JUMPDEST PUSH1 0x40 MLOAD PUSH2 0x3043 SWAP3 SWAP2 SWAP1 PUSH2 0x4DB2 JUMP JUMPDEST SWAP1 DUP2 MSTORE PUSH1 0x20 ADD PUSH1 0x40 MLOAD DUP1 SWAP2 SUB SWAP1 KECCAK256 PUSH1 0x0 DUP7 DUP1 PUSH1 0x40 ADD SWAP1 PUSH2 0x3063 SWAP2 SWAP1 PUSH2 0x4CBC JUMP JUMPDEST PUSH1 0x1 DUP10 DUP1 PUSH1 0x40 ADD SWAP1 PUSH2 0x3075 SWAP2 SWAP1 PUSH2 0x4CBC JUMP JUMPDEST SWAP1 POP PUSH2 0x3081 SWAP2 SWAP1 PUSH2 0x4893 JUMP JUMPDEST DUP2 DUP2 LT PUSH2 0x3091 JUMPI PUSH2 0x3090 PUSH2 0x48C7 JUMP JUMPDEST JUMPDEST SWAP1 POP PUSH1 0x20 MUL ADD PUSH1 0x20 DUP2 ADD SWAP1 PUSH2 0x30A6 SWAP2 SWAP1 PUSH2 0x4771 JUMP JUMPDEST PUSH20 0xFFFFFFFFFFFFFFFFFFFFFFFFFFFFFFFFFFFFFFFF AND PUSH20 0xFFFFFFFFFFFFFFFFFFFFFFFFFFFFFFFFFFFFFFFF AND DUP2 MSTORE PUSH1 0x20 ADD SWAP1 DUP2 MSTORE PUSH1 0x20 ADD PUSH1 0x0 KECCAK256 SLOAD EQ PUSH2 0x3121 JUMPI PUSH1 0x40 MLOAD PUSH32 0x8C379A000000000000000000000000000000000000000000000000000000000 DUP2 MSTORE PUSH1 0x4 ADD PUSH2 0x3118 SWAP1 PUSH2 0x4E17 JUMP JUMPDEST PUSH1 0x40 MLOAD DUP1 SWAP2 SUB SWAP1 REVERT JUMPDEST PUSH1 0x0 PUSH32 0xC7EF086EBAC56F7E2A320076691A1D8B60903518618208753FF37FD1BDAF7892 DUP6 PUSH1 0x0 ADD PUSH1 0x20 DUP2 ADD SWAP1 PUSH2 0x3157 SWAP2 SWAP1 PUSH2 0x4771 JUMP JUMPDEST DUP7 PUSH1 0x20 ADD PUSH1 0x20 DUP2 ADD SWAP1 PUSH2 0x316A SWAP2 SWAP1 PUSH2 0x4EA3 JUMP JUMPDEST DUP8 DUP1 PUSH1 0x40 ADD SWAP1 PUSH2 0x317A SWAP2 SWAP1 PUSH2 0x4CBC JUMP JUMPDEST PUSH1 0x40 MLOAD PUSH1 0x20 ADD PUSH2 0x318B SWAP3 SWAP2 SWAP1 PUSH2 0x4F5F JUMP JUMPDEST PUSH1 0x40 MLOAD PUSH1 0x20 DUP2 DUP4 SUB SUB DUP2 MSTORE SWAP1 PUSH1 0x40 MSTORE DUP1 MLOAD SWAP1 PUSH1 0x20 ADD KECCAK256 DUP9 PUSH1 0x60 ADD CALLDATALOAD DUP10 PUSH1 0x80 ADD CALLDATALOAD DUP11 DUP1 PUSH1 0xA0 ADD SWAP1 PUSH2 0x31BB SWAP2 SWAP1 PUSH2 0x4D1F JUMP JUMPDEST PUSH1 0x40 MLOAD PUSH2 0x31C9 SWAP3 SWAP2 SWAP1 PUSH2 0x4FA8 JUMP JUMPDEST PUSH1 0x40 MLOAD DUP1 SWAP2 SUB SWAP1 KECCAK256 PUSH1 0x40 MLOAD PUSH1 0x20 ADD PUSH2 0x31E7 SWAP8 SWAP7 SWAP6 SWAP5 SWAP4 SWAP3 SWAP2 SWAP1 PUSH2 0x5A31 JUMP JUMPDEST PUSH1 0x40 MLOAD PUSH1 0x20 DUP2 DUP4 SUB SUB DUP2 MSTORE SWAP1 PUSH1 0x40 MSTORE DUP1 MLOAD SWAP1 PUSH1 0x20 ADD KECCAK256 SWAP1 POP PUSH1 0x0 PUSH1 0x1 PUSH1 0x8 SLOAD DUP4 PUSH1 0x40 MLOAD PUSH1 0x20 ADD PUSH2 0x3218 SWAP3 SWAP2 SWAP1 PUSH2 0x50EE JUMP JUMPDEST PUSH1 0x40 MLOAD PUSH1 0x20 DUP2 DUP4 SUB SUB DUP2 MSTORE SWAP1 PUSH1 0x40 MSTORE DUP1 MLOAD SWAP1 PUSH1 0x20 ADD KECCAK256 DUP7 DUP7 DUP7 PUSH1 0x40 MLOAD PUSH1 0x0 DUP2 MSTORE PUSH1 0x20 ADD PUSH1 0x40 MSTORE PUSH1 0x40 MLOAD PUSH2 0x324E SWAP5 SWAP4 SWAP3 SWAP2 SWAP1 PUSH2 0x5134 JUMP JUMPDEST PUSH1 0x20 PUSH1 0x40 MLOAD PUSH1 0x20 DUP2 SUB SWAP1 DUP1 DUP5 SUB SWAP1 DUP6 GAS STATICCALL ISZERO DUP1 ISZERO PUSH2 0x3270 JUMPI RETURNDATASIZE PUSH1 0x0 DUP1 RETURNDATACOPY RETURNDATASIZE PUSH1 0x0 REVERT JUMPDEST POP POP POP PUSH1 0x20 PUSH1 0x40 MLOAD SUB MLOAD SWAP1 POP PUSH1 0x0 PUSH20 0xFFFFFFFFFFFFFFFFFFFFFFFFFFFFFFFFFFFFFFFF AND DUP2 PUSH20 0xFFFFFFFFFFFFFFFFFFFFFFFFFFFFFFFFFFFFFFFF AND EQ ISZERO DUP1 ISZERO PUSH2 0x3302 JUMPI POP PUSH1 0x5 PUSH1 0x0 DUP3 PUSH20 0xFFFFFFFFFFFFFFFFFFFFFFFFFFFFFFFFFFFFFFFF AND PUSH20 0xFFFFFFFFFFFFFFFFFFFFFFFFFFFFFFFFFFFFFFFF AND DUP2 MSTORE PUSH1 0x20 ADD SWAP1 DUP2 MSTORE PUSH1 0x20 ADD PUSH1 0x0 KECCAK256 PUSH1 0x0 SWAP1 SLOAD SWAP1 PUSH2 0x100 EXP SWAP1 DIV PUSH1 0xFF AND JUMPDEST PUSH2 0x3341 JUMPI PUSH1 0x40 MLOAD PUSH32 0x8C379A000000000000000000000000000000000000000000000000000000000 DUP2 MSTORE PUSH1 0x4 ADD PUSH2 0x3338 SWAP1 PUSH2 0x51C5 JUMP JUMPDEST PUSH1 0x40 MLOAD DUP1 SWAP2 SUB SWAP1 REVERT JUMPDEST PUSH1 0x0 PUSH1 0x60 DUP8 DUP1 PUSH1 0x40 ADD SWAP1 PUSH2 0x3355 SWAP2 SWAP1 PUSH2 0x4CBC JUMP JUMPDEST PUSH1 0x0 DUP2 DUP2 LT PUSH2 0x3367 JUMPI PUSH2 0x3366 PUSH2 0x48C7 JUMP JUMPDEST JUMPDEST SWAP1 POP PUSH1 0x20 MUL ADD PUSH1 0x20 DUP2 ADD SWAP1 PUSH2 0x337C SWAP2 SWAP1 PUSH2 0x4771 JUMP JUMPDEST PUSH20 0xFFFFFFFFFFFFFFFFFFFFFFFFFFFFFFFFFFFFFFFF AND PUSH4 0x95EA7B3 DUP10 PUSH1 0x20 ADD PUSH1 0x20 DUP2 ADD SWAP1 PUSH2 0x33AA SWAP2 SWAP1 PUSH2 0x4EA3 JUMP JUMPDEST DUP11 PUSH1 0x60 ADD CALLDATALOAD PUSH1 0x40 MLOAD DUP4 PUSH4 0xFFFFFFFF AND PUSH1 0xE0 SHL DUP2 MSTORE PUSH1 0x4 ADD PUSH2 0x33CC SWAP3 SWAP2 SWAP1 PUSH2 0x53FB JUMP JUMPDEST PUSH1 0x20 PUSH1 0x40 MLOAD DUP1 DUP4 SUB DUP2 PUSH1 0x0 DUP8 GAS CALL ISZERO DUP1 ISZERO PUSH2 0x33EB JUMPI RETURNDATASIZE PUSH1 0x0 DUP1 RETURNDATACOPY RETURNDATASIZE PUSH1 0x0 REVERT JUMPDEST POP POP POP POP PUSH1 0x40 MLOAD RETURNDATASIZE PUSH1 0x1F NOT PUSH1 0x1F DUP3 ADD AND DUP3 ADD DUP1 PUSH1 0x40 MSTORE POP DUP2 ADD SWAP1 PUSH2 0x340F SWAP2 SWAP1 PUSH2 0x533C JUMP JUMPDEST PUSH2 0x344E JUMPI PUSH1 0x40 MLOAD PUSH32 0x8C379A000000000000000000000000000000000000000000000000000000000 DUP2 MSTORE PUSH1 0x4 ADD PUSH2 0x3445 SWAP1 PUSH2 0x5470 JUMP JUMPDEST PUSH1 0x40 MLOAD DUP1 SWAP2 SUB SWAP1 REVERT JUMPDEST DUP8 PUSH1 0x20 ADD PUSH1 0x20 DUP2 ADD SWAP1 PUSH2 0x3461 SWAP2 SWAP1 PUSH2 0x4EA3 JUMP JUMPDEST PUSH20 0xFFFFFFFFFFFFFFFFFFFFFFFFFFFFFFFFFFFFFFFF AND PUSH4 0xAD5C4648 PUSH1 0x40 MLOAD DUP2 PUSH4 0xFFFFFFFF AND PUSH1 0xE0 SHL DUP2 MSTORE PUSH1 0x4 ADD PUSH1 0x20 PUSH1 0x40 MLOAD DUP1 DUP4 SUB DUP2 DUP7 GAS STATICCALL ISZERO DUP1 ISZERO PUSH2 0x34AB JUMPI RETURNDATASIZE PUSH1 0x0 DUP1 RETURNDATACOPY RETURNDATASIZE PUSH1 0x0 REVERT JUMPDEST POP POP POP POP PUSH1 0x40 MLOAD RETURNDATASIZE PUSH1 0x1F NOT PUSH1 0x1F DUP3 ADD AND DUP3 ADD DUP1 PUSH1 0x40 MSTORE POP DUP2 ADD SWAP1 PUSH2 0x34CF SWAP2 SWAP1 PUSH2 0x51FA JUMP JUMPDEST PUSH20 0xFFFFFFFFFFFFFFFFFFFFFFFFFFFFFFFFFFFFFFFF AND DUP9 DUP1 PUSH1 0x40 ADD SWAP1 PUSH2 0x34F5 SWAP2 SWAP1 PUSH2 0x4CBC JUMP JUMPDEST PUSH1 0x1 DUP12 DUP1 PUSH1 0x40 ADD SWAP1 PUSH2 0x3507 SWAP2 SWAP1 PUSH2 0x4CBC JUMP JUMPDEST SWAP1 POP PUSH2 0x3513 SWAP2 SWAP1 PUSH2 0x4893 JUMP JUMPDEST DUP2 DUP2 LT PUSH2 0x3523 JUMPI PUSH2 0x3522 PUSH2 0x48C7 JUMP JUMPDEST JUMPDEST SWAP1 POP PUSH1 0x20 MUL ADD PUSH1 0x20 DUP2 ADD SWAP1 PUSH2 0x3538 SWAP2 SWAP1 PUSH2 0x4771 JUMP JUMPDEST PUSH20 0xFFFFFFFFFFFFFFFFFFFFFFFFFFFFFFFFFFFFFFFF AND SUB PUSH2 0x362F JUMPI DUP8 PUSH1 0x20 ADD PUSH1 0x20 DUP2 ADD SWAP1 PUSH2 0x3566 SWAP2 SWAP1 PUSH2 0x4EA3 JUMP JUMPDEST PUSH20 0xFFFFFFFFFFFFFFFFFFFFFFFFFFFFFFFFFFFFFFFF AND PUSH4 0x18CBAFE5 DUP10 PUSH1 0x60 ADD CALLDATALOAD DUP11 PUSH1 0x80 ADD CALLDATALOAD DUP12 DUP1 PUSH1 0x40 ADD SWAP1 PUSH2 0x359B SWAP2 SWAP1 PUSH2 0x4CBC JUMP JUMPDEST DUP14 PUSH1 0x0 ADD PUSH1 0x20 DUP2 ADD SWAP1 PUSH2 0x35AE SWAP2 SWAP1 PUSH2 0x4771 JUMP JUMPDEST PUSH1 0xF TIMESTAMP PUSH2 0x35BB SWAP2 SWAP1 PUSH2 0x3EA2 JUMP JUMPDEST PUSH1 0x40 MLOAD DUP8 PUSH4 0xFFFFFFFF AND PUSH1 0xE0 SHL DUP2 MSTORE PUSH1 0x4 ADD PUSH2 0x35DC SWAP7 SWAP6 SWAP5 SWAP4 SWAP3 SWAP2 SWAP1 PUSH2 0x5490 JUMP JUMPDEST PUSH1 0x0 PUSH1 0x40 MLOAD DUP1 DUP4 SUB DUP2 PUSH1 0x0 DUP8 GAS CALL ISZERO DUP1 ISZERO PUSH2 0x35FB JUMPI RETURNDATASIZE PUSH1 0x0 DUP1 RETURNDATACOPY RETURNDATASIZE PUSH1 0x0 REVERT JUMPDEST POP POP POP POP PUSH1 0x40 MLOAD RETURNDATASIZE PUSH1 0x0 DUP3 RETURNDATACOPY RETURNDATASIZE PUSH1 0x1F NOT PUSH1 0x1F DUP3 ADD AND DUP3 ADD DUP1 PUSH1 0x40 MSTORE POP DUP2 ADD SWAP1 PUSH2 0x3624 SWAP2 SWAP1 PUSH2 0x4B66 JUMP JUMPDEST SWAP1 POP PUSH1 0x1 SWAP2 POP PUSH2 0x3707 JUMP JUMPDEST DUP8 PUSH1 0x20 ADD PUSH1 0x20 DUP2 ADD SWAP1 PUSH2 0x3642 SWAP2 SWAP1 PUSH2 0x4EA3 JUMP JUMPDEST PUSH20 0xFFFFFFFFFFFFFFFFFFFFFFFFFFFFFFFFFFFFFFFF AND PUSH4 0x38ED1739 DUP10 PUSH1 0x60 ADD CALLDATALOAD DUP11 PUSH1 0x80 ADD CALLDATALOAD DUP12 DUP1 PUSH1 0x40 ADD SWAP1 PUSH2 0x3677 SWAP2 SWAP1 PUSH2 0x4CBC JUMP JUMPDEST DUP14 PUSH1 0x0 ADD PUSH1 0x20 DUP2 ADD SWAP1 PUSH2 0x368A SWAP2 SWAP1 PUSH2 0x4771 JUMP JUMPDEST PUSH1 0xF TIMESTAMP PUSH2 0x3697 SWAP2 SWAP1 PUSH2 0x3EA2 JUMP JUMPDEST PUSH1 0x40 MLOAD DUP8 PUSH4 0xFFFFFFFF AND PUSH1 0xE0 SHL DUP2 MSTORE PUSH1 0x4 ADD PUSH2 0x36B8 SWAP7 SWAP6 SWAP5 SWAP4 SWAP3 SWAP2 SWAP1 PUSH2 0x5490 JUMP JUMPDEST PUSH1 0x0 PUSH1 0x40 MLOAD DUP1 DUP4 SUB DUP2 PUSH1 0x0 DUP8 GAS CALL ISZERO DUP1 ISZERO PUSH2 0x36D7 JUMPI RETURNDATASIZE PUSH1 0x0 DUP1 RETURNDATACOPY RETURNDATASIZE PUSH1 0x0 REVERT JUMPDEST POP POP POP POP PUSH1 0x40 MLOAD RETURNDATASIZE PUSH1 0x0 DUP3 RETURNDATACOPY RETURNDATASIZE PUSH1 0x1F NOT PUSH1 0x1F DUP3 ADD AND DUP3 ADD DUP1 PUSH1 0x40 MSTORE POP DUP2 ADD SWAP1 PUSH2 0x3700 SWAP2 SWAP1 PUSH2 0x4B66 JUMP JUMPDEST SWAP1 POP PUSH1 0x1 SWAP2 POP JUMPDEST DUP2 PUSH2 0x3747 JUMPI PUSH1 0x40 MLOAD PUSH32 0x8C379A000000000000000000000000000000000000000000000000000000000 DUP2 MSTORE PUSH1 0x4 ADD PUSH2 0x373E SWAP1 PUSH2 0x5538 JUMP JUMPDEST PUSH1 0x40 MLOAD DUP1 SWAP2 SUB SWAP1 REVERT JUMPDEST DUP8 PUSH1 0x60 ADD CALLDATALOAD PUSH1 0x3 DUP10 DUP1 PUSH1 0xA0 ADD SWAP1 PUSH2 0x375E SWAP2 SWAP1 PUSH2 0x4D1F JUMP JUMPDEST PUSH1 0x40 MLOAD PUSH2 0x376C SWAP3 SWAP2 SWAP1 PUSH2 0x4DB2 JUMP JUMPDEST SWAP1 DUP2 MSTORE PUSH1 0x20 ADD PUSH1 0x40 MLOAD DUP1 SWAP2 SUB SWAP1 KECCAK256 PUSH1 0x0 DUP11 DUP1 PUSH1 0x40 ADD SWAP1 PUSH2 0x378C SWAP2 SWAP1 PUSH2 0x4CBC JUMP JUMPDEST PUSH1 0x1 DUP14 DUP1 PUSH1 0x40 ADD SWAP1 PUSH2 0x379E SWAP2 SWAP1 PUSH2 0x4CBC JUMP JUMPDEST SWAP1 POP PUSH2 0x37AA SWAP2 SWAP1 PUSH2 0x4893 JUMP JUMPDEST DUP2 DUP2 LT PUSH2 0x37BA JUMPI PUSH2 0x37B9 PUSH2 0x48C7 JUMP JUMPDEST JUMPDEST SWAP1 POP PUSH1 0x20 MUL ADD PUSH1 0x20 DUP2 ADD SWAP1 PUSH2 0x37CF SWAP2 SWAP1 PUSH2 0x4771 JUMP JUMPDEST PUSH20 0xFFFFFFFFFFFFFFFFFFFFFFFFFFFFFFFFFFFFFFFF AND PUSH20 0xFFFFFFFFFFFFFFFFFFFFFFFFFFFFFFFFFFFFFFFF AND DUP2 MSTORE PUSH1 0x20 ADD SWAP1 DUP2 MSTORE PUSH1 0x20 ADD PUSH1 0x0 KECCAK256 DUP2 SWAP1 SSTORE POP PUSH32 0x82FBF955E054E1EB2D30310D1F458663C12EA37F58476B487ED83247D3093750 DUP9 DUP1 PUSH1 0x40 ADD SWAP1 PUSH2 0x383E SWAP2 SWAP1 PUSH2 0x4CBC JUMP JUMPDEST PUSH1 0x1 DUP12 DUP1 PUSH1 0x40 ADD SWAP1 PUSH2 0x3850 SWAP2 SWAP1 PUSH2 0x4CBC JUMP JUMPDEST SWAP1 POP PUSH2 0x385C SWAP2 SWAP1 PUSH2 0x4893 JUMP JUMPDEST DUP2 DUP2 LT PUSH2 0x386C JUMPI PUSH2 0x386B PUSH2 0x48C7 JUMP JUMPDEST JUMPDEST SWAP1 POP PUSH1 0x20 MUL ADD PUSH1 0x20 DUP2 ADD SWAP1 PUSH2 0x3881 SWAP2 SWAP1 PUSH2 0x4771 JUMP JUMPDEST DUP10 PUSH1 0x60 ADD CALLDATALOAD DUP4 DUP12 PUSH1 0x0 ADD PUSH1 0x20 DUP2 ADD SWAP1 PUSH2 0x389A SWAP2 SWAP1 PUSH2 0x4771 JUMP JUMPDEST DUP13 DUP1 PUSH1 0xA0 ADD SWAP1 PUSH2 0x38AA SWAP2 SWAP1 PUSH2 0x4D1F JUMP JUMPDEST PUSH1 0x40 MLOAD PUSH2 0x38BC SWAP7 SWAP6 SWAP5 SWAP4 SWAP3 SWAP2 SWAP1 PUSH2 0x5AA0 JUMP JUMPDEST PUSH1 0x40 MLOAD DUP1 SWAP2 SUB SWAP1 LOG1 POP POP POP POP PUSH2 0x38D0 PUSH2 0x3B72 JUMP JUMPDEST POP POP POP POP JUMP JUMPDEST PUSH1 0x8 SLOAD DUP2 JUMP JUMPDEST PUSH1 0x0 PUSH32 0x1FFC9A700000000000000000000000000000000000000000000000000000000 PUSH28 0xFFFFFFFFFFFFFFFFFFFFFFFFFFFFFFFFFFFFFFFFFFFFFFFFFFFFFFFF NOT AND DUP3 PUSH28 0xFFFFFFFFFFFFFFFFFFFFFFFFFFFFFFFFFFFFFFFFFFFFFFFFFFFFFFFF NOT AND EQ SWAP1 POP SWAP2 SWAP1 POP JUMP JUMPDEST PUSH2 0x3957 DUP2 PUSH2 0x3952 PUSH2 0x3A3A JUMP JUMPDEST PUSH2 0x3B7B JUMP JUMPDEST POP JUMP JUMPDEST PUSH2 0x3964 DUP3 DUP3 PUSH2 0x27A4 JUMP JUMPDEST PUSH2 0x3A36 JUMPI PUSH1 0x1 PUSH1 0x0 DUP1 DUP5 DUP2 MSTORE PUSH1 0x20 ADD SWAP1 DUP2 MSTORE PUSH1 0x20 ADD PUSH1 0x0 KECCAK256 PUSH1 0x0 ADD PUSH1 0x0 DUP4 PUSH20 0xFFFFFFFFFFFFFFFFFFFFFFFFFFFFFFFFFFFFFFFF AND PUSH20 0xFFFFFFFFFFFFFFFFFFFFFFFFFFFFFFFFFFFFFFFF AND DUP2 MSTORE PUSH1 0x20 ADD SWAP1 DUP2 MSTORE PUSH1 0x20 ADD PUSH1 0x0 KECCAK256 PUSH1 0x0 PUSH2 0x100 EXP DUP2 SLOAD DUP2 PUSH1 0xFF MUL NOT AND SWAP1 DUP4 ISZERO ISZERO MUL OR SWAP1 SSTORE POP PUSH2 0x39DB PUSH2 0x3A3A JUMP JUMPDEST PUSH20 0xFFFFFFFFFFFFFFFFFFFFFFFFFFFFFFFFFFFFFFFF AND DUP2 PUSH20 0xFFFFFFFFFFFFFFFFFFFFFFFFFFFFFFFFFFFFFFFF AND DUP4 PUSH32 0x2F8788117E7EFF1D82E926EC794901D17C78024A50270940304540A733656F0D PUSH1 0x40 MLOAD PUSH1 0x40 MLOAD DUP1 SWAP2 SUB SWAP1 LOG4 JUMPDEST POP POP JUMP JUMPDEST PUSH1 0x0 CALLER SWAP1 POP SWAP1 JUMP JUMPDEST PUSH2 0x3A4C DUP3 DUP3 PUSH2 0x27A4 JUMP JUMPDEST ISZERO PUSH2 0x3B1F JUMPI PUSH1 0x0 DUP1 PUSH1 0x0 DUP5 DUP2 MSTORE PUSH1 0x20 ADD SWAP1 DUP2 MSTORE PUSH1 0x20 ADD PUSH1 0x0 KECCAK256 PUSH1 0x0 ADD PUSH1 0x0 DUP4 PUSH20 0xFFFFFFFFFFFFFFFFFFFFFFFFFFFFFFFFFFFFFFFF AND PUSH20 0xFFFFFFFFFFFFFFFFFFFFFFFFFFFFFFFFFFFFFFFF AND DUP2 MSTORE PUSH1 0x20 ADD SWAP1 DUP2 MSTORE PUSH1 0x20 ADD PUSH1 0x0 KECCAK256 PUSH1 0x0 PUSH2 0x100 EXP DUP2 SLOAD DUP2 PUSH1 0xFF MUL NOT AND SWAP1 DUP4 ISZERO ISZERO MUL OR SWAP1 SSTORE POP PUSH2 0x3AC4 PUSH2 0x3A3A JUMP JUMPDEST PUSH20 0xFFFFFFFFFFFFFFFFFFFFFFFFFFFFFFFFFFFFFFFF AND DUP2 PUSH20 0xFFFFFFFFFFFFFFFFFFFFFFFFFFFFFFFFFFFFFFFF AND DUP4 PUSH32 0xF6391F5C32D9C69D2A47EA670B442974B53935D1EDC7FD64EB21E047A839171B PUSH1 0x40 MLOAD PUSH1 0x40 MLOAD DUP1 SWAP2 SUB SWAP1 LOG4 JUMPDEST POP POP JUMP JUMPDEST PUSH1 0x2 PUSH1 0x1 SLOAD SUB PUSH2 0x3B68 JUMPI PUSH1 0x40 MLOAD PUSH32 0x8C379A000000000000000000000000000000000000000000000000000000000 DUP2 MSTORE PUSH1 0x4 ADD PUSH2 0x3B5F SWAP1 PUSH2 0x5B4F JUMP JUMPDEST PUSH1 0x40 MLOAD DUP1 SWAP2 SUB SWAP1 REVERT JUMPDEST PUSH1 0x2 PUSH1 0x1 DUP2 SWAP1 SSTORE POP JUMP JUMPDEST PUSH1 0x1 DUP1 DUP2 SWAP1 SSTORE POP JUMP JUMPDEST PUSH2 0x3B85 DUP3 DUP3 PUSH2 0x27A4 JUMP JUMPDEST PUSH2 0x3BFC JUMPI PUSH2 0x3B92 DUP2 PUSH2 0x3C00 JUMP JUMPDEST PUSH2 0x3BA0 DUP4 PUSH1 0x0 SHR PUSH1 0x20 PUSH2 0x3C2D JUMP JUMPDEST PUSH1 0x40 MLOAD PUSH1 0x20 ADD PUSH2 0x3BB1 SWAP3 SWAP2 SWAP1 PUSH2 0x5C6D JUMP JUMPDEST PUSH1 0x40 MLOAD PUSH1 0x20 DUP2 DUP4 SUB SUB DUP2 MSTORE SWAP1 PUSH1 0x40 MSTORE PUSH1 0x40 MLOAD PUSH32 0x8C379A000000000000000000000000000000000000000000000000000000000 DUP2 MSTORE PUSH1 0x4 ADD PUSH2 0x3BF3 SWAP2 SWAP1 PUSH2 0x5CE0 JUMP JUMPDEST PUSH1 0x40 MLOAD DUP1 SWAP2 SUB SWAP1 REVERT JUMPDEST POP POP JUMP JUMPDEST PUSH1 0x60 PUSH2 0x3C26 DUP3 PUSH20 0xFFFFFFFFFFFFFFFFFFFFFFFFFFFFFFFFFFFFFFFF AND PUSH1 0x14 PUSH1 0xFF AND PUSH2 0x3C2D JUMP JUMPDEST SWAP1 POP SWAP2 SWAP1 POP JUMP JUMPDEST PUSH1 0x60 PUSH1 0x0 PUSH1 0x2 DUP4 PUSH1 0x2 PUSH2 0x3C40 SWAP2 SWAP1 PUSH2 0x5D02 JUMP JUMPDEST PUSH2 0x3C4A SWAP2 SWAP1 PUSH2 0x3EA2 JUMP JUMPDEST PUSH8 0xFFFFFFFFFFFFFFFF DUP2 GT ISZERO PUSH2 0x3C63 JUMPI PUSH2 0x3C62 PUSH2 0x456D JUMP JUMPDEST JUMPDEST PUSH1 0x40 MLOAD SWAP1 DUP1 DUP3 MSTORE DUP1 PUSH1 0x1F ADD PUSH1 0x1F NOT AND PUSH1 0x20 ADD DUP3 ADD PUSH1 0x40 MSTORE DUP1 ISZERO PUSH2 0x3C95 JUMPI DUP2 PUSH1 0x20 ADD PUSH1 0x1 DUP3 MUL DUP1 CALLDATASIZE DUP4 CALLDATACOPY DUP1 DUP3 ADD SWAP2 POP POP SWAP1 POP JUMPDEST POP SWAP1 POP PUSH32 0x3000000000000000000000000000000000000000000000000000000000000000 DUP2 PUSH1 0x0 DUP2 MLOAD DUP2 LT PUSH2 0x3CCD JUMPI PUSH2 0x3CCC PUSH2 0x48C7 JUMP JUMPDEST JUMPDEST PUSH1 0x20 ADD ADD SWAP1 PUSH31 0xFFFFFFFFFFFFFFFFFFFFFFFFFFFFFFFFFFFFFFFFFFFFFFFFFFFFFFFFFFFFFF NOT AND SWAP1 DUP2 PUSH1 0x0 BYTE SWAP1 MSTORE8 POP PUSH32 0x7800000000000000000000000000000000000000000000000000000000000000 DUP2 PUSH1 0x1 DUP2 MLOAD DUP2 LT PUSH2 0x3D31 JUMPI PUSH2 0x3D30 PUSH2 0x48C7 JUMP JUMPDEST JUMPDEST PUSH1 0x20 ADD ADD SWAP1 PUSH31 0xFFFFFFFFFFFFFFFFFFFFFFFFFFFFFFFFFFFFFFFFFFFFFFFFFFFFFFFFFFFFFF NOT AND SWAP1 DUP2 PUSH1 0x0 BYTE SWAP1 MSTORE8 POP PUSH1 0x0 PUSH1 0x1 DUP5 PUSH1 0x2 PUSH2 0x3D71 SWAP2 SWAP1 PUSH2 0x5D02 JUMP JUMPDEST PUSH2 0x3D7B SWAP2 SWAP1 PUSH2 0x3EA2 JUMP JUMPDEST SWAP1 POP JUMPDEST PUSH1 0x1 DUP2 GT ISZERO PUSH2 0x3E1B JUMPI PUSH32 0x3031323334353637383961626364656600000000000000000000000000000000 PUSH1 0xF DUP7 AND PUSH1 0x10 DUP2 LT PUSH2 0x3DBD JUMPI PUSH2 0x3DBC PUSH2 0x48C7 JUMP JUMPDEST JUMPDEST BYTE PUSH1 0xF8 SHL DUP3 DUP3 DUP2 MLOAD DUP2 LT PUSH2 0x3DD4 JUMPI PUSH2 0x3DD3 PUSH2 0x48C7 JUMP JUMPDEST JUMPDEST PUSH1 0x20 ADD ADD SWAP1 PUSH31 0xFFFFFFFFFFFFFFFFFFFFFFFFFFFFFFFFFFFFFFFFFFFFFFFFFFFFFFFFFFFFFF NOT AND SWAP1 DUP2 PUSH1 0x0 BYTE SWAP1 MSTORE8 POP PUSH1 0x4 DUP6 SWAP1 SHR SWAP5 POP DUP1 PUSH2 0x3E14 SWAP1 PUSH2 0x5D44 JUMP JUMPDEST SWAP1 POP PUSH2 0x3D7E JUMP JUMPDEST POP PUSH1 0x0 DUP5 EQ PUSH2 0x3E5F JUMPI PUSH1 0x40 MLOAD PUSH32 0x8C379A000000000000000000000000000000000000000000000000000000000 DUP2 MSTORE PUSH1 0x4 ADD PUSH2 0x3E56 SWAP1 PUSH2 0x5DB9 JUMP JUMPDEST PUSH1 0x40 MLOAD DUP1 SWAP2 SUB SWAP1 REVERT JUMPDEST DUP1 SWAP2 POP POP SWAP3 SWAP2 POP POP JUMP JUMPDEST PUSH1 0x0 DUP2 SWAP1 POP SWAP2 SWAP1 POP JUMP JUMPDEST PUSH32 0x4E487B7100000000000000000000000000000000000000000000000000000000 PUSH1 0x0 MSTORE PUSH1 0x11 PUSH1 0x4 MSTORE PUSH1 0x24 PUSH1 0x0 REVERT JUMPDEST PUSH1 0x0 PUSH2 0x3EAD DUP3 PUSH2 0x3E69 JUMP JUMPDEST SWAP2 POP PUSH2 0x3EB8 DUP4 PUSH2 0x3E69 JUMP JUMPDEST SWAP3 POP DUP3 DUP3 ADD SWAP1 POP DUP1 DUP3 GT ISZERO PUSH2 0x3ED0 JUMPI PUSH2 0x3ECF PUSH2 0x3E73 JUMP JUMPDEST JUMPDEST SWAP3 SWAP2 POP POP JUMP JUMPDEST PUSH1 0x0 PUSH1 0x40 MLOAD SWAP1 POP SWAP1 JUMP JUMPDEST PUSH1 0x0 DUP1 REVERT JUMPDEST PUSH1 0x0 DUP1 REVERT JUMPDEST PUSH1 0x0 PUSH32 0xFFFFFFFF00000000000000000000000000000000000000000000000000000000 DUP3 AND SWAP1 POP SWAP2 SWAP1 POP JUMP JUMPDEST PUSH2 0x3F1F DUP2 PUSH2 0x3EEA JUMP JUMPDEST DUP2 EQ PUSH2 0x3F2A JUMPI PUSH1 0x0 DUP1 REVERT JUMPDEST POP JUMP JUMPDEST PUSH1 0x0 DUP2 CALLDATALOAD SWAP1 POP PUSH2 0x3F3C DUP2 PUSH2 0x3F16 JUMP JUMPDEST SWAP3 SWAP2 POP POP JUMP JUMPDEST PUSH1 0x0 PUSH1 0x20 DUP3 DUP5 SUB SLT ISZERO PUSH2 0x3F58 JUMPI PUSH2 0x3F57 PUSH2 0x3EE0 JUMP JUMPDEST JUMPDEST PUSH1 0x0 PUSH2 0x3F66 DUP5 DUP3 DUP6 ADD PUSH2 0x3F2D JUMP JUMPDEST SWAP2 POP POP SWAP3 SWAP2 POP POP JUMP JUMPDEST PUSH1 0x0 DUP2 ISZERO ISZERO SWAP1 POP SWAP2 SWAP1 POP JUMP JUMPDEST PUSH2 0x3F84 DUP2 PUSH2 0x3F6F JUMP JUMPDEST DUP3 MSTORE POP POP JUMP JUMPDEST PUSH1 0x0 PUSH1 0x20 DUP3 ADD SWAP1 POP PUSH2 0x3F9F PUSH1 0x0 DUP4 ADD DUP5 PUSH2 0x3F7B JUMP JUMPDEST SWAP3 SWAP2 POP POP JUMP JUMPDEST PUSH1 0x0 PUSH20 0xFFFFFFFFFFFFFFFFFFFFFFFFFFFFFFFFFFFFFFFF DUP3 AND SWAP1 POP SWAP2 SWAP1 POP JUMP JUMPDEST PUSH1 0x0 PUSH2 0x3FD0 DUP3 PUSH2 0x3FA5 JUMP JUMPDEST SWAP1 POP SWAP2 SWAP1 POP JUMP JUMPDEST PUSH1 0x0 PUSH2 0x3FE2 DUP3 PUSH2 0x3FC5 JUMP JUMPDEST SWAP1 POP SWAP2 SWAP1 POP JUMP JUMPDEST PUSH2 0x3FF2 DUP2 PUSH2 0x3FD7 JUMP JUMPDEST DUP2 EQ PUSH2 0x3FFD JUMPI PUSH1 0x0 DUP1 REVERT JUMPDEST POP JUMP JUMPDEST PUSH1 0x0 DUP2 CALLDATALOAD SWAP1 POP PUSH2 0x400F DUP2 PUSH2 0x3FE9 JUMP JUMPDEST SWAP3 SWAP2 POP POP JUMP JUMPDEST PUSH1 0x0 DUP1 REVERT JUMPDEST PUSH1 0x0 DUP1 REVERT JUMPDEST PUSH1 0x0 DUP1 REVERT JUMPDEST PUSH1 0x0 DUP1 DUP4 PUSH1 0x1F DUP5 ADD SLT PUSH2 0x403A JUMPI PUSH2 0x4039 PUSH2 0x4015 JUMP JUMPDEST JUMPDEST DUP3 CALLDATALOAD SWAP1 POP PUSH8 0xFFFFFFFFFFFFFFFF DUP2 GT ISZERO PUSH2 0x4057 JUMPI PUSH2 0x4056 PUSH2 0x401A JUMP JUMPDEST JUMPDEST PUSH1 0x20 DUP4 ADD SWAP2 POP DUP4 PUSH1 0x20 DUP3 MUL DUP4 ADD GT ISZERO PUSH2 0x4073 JUMPI PUSH2 0x4072 PUSH2 0x401F JUMP JUMPDEST JUMPDEST SWAP3 POP SWAP3 SWAP1 POP JUMP JUMPDEST PUSH2 0x4083 DUP2 PUSH2 0x3E69 JUMP JUMPDEST DUP2 EQ PUSH2 0x408E JUMPI PUSH1 0x0 DUP1 REVERT JUMPDEST POP JUMP JUMPDEST PUSH1 0x0 DUP2 CALLDATALOAD SWAP1 POP PUSH2 0x40A0 DUP2 PUSH2 0x407A JUMP JUMPDEST SWAP3 SWAP2 POP POP JUMP JUMPDEST PUSH2 0x40AF DUP2 PUSH2 0x3F6F JUMP JUMPDEST DUP2 EQ PUSH2 0x40BA JUMPI PUSH1 0x0 DUP1 REVERT JUMPDEST POP JUMP JUMPDEST PUSH1 0x0 DUP2 CALLDATALOAD SWAP1 POP PUSH2 0x40CC DUP2 PUSH2 0x40A6 JUMP JUMPDEST SWAP3 SWAP2 POP POP JUMP JUMPDEST PUSH1 0x0 DUP1 PUSH1 0x0 DUP1 PUSH1 0x0 PUSH1 0x80 DUP7 DUP9 SUB SLT ISZERO PUSH2 0x40EE JUMPI PUSH2 0x40ED PUSH2 0x3EE0 JUMP JUMPDEST JUMPDEST PUSH1 0x0 PUSH2 0x40FC DUP9 DUP3 DUP10 ADD PUSH2 0x4000 JUMP JUMPDEST SWAP6 POP POP PUSH1 0x20 DUP7 ADD CALLDATALOAD PUSH8 0xFFFFFFFFFFFFFFFF DUP2 GT ISZERO PUSH2 0x411D JUMPI PUSH2 0x411C PUSH2 0x3EE5 JUMP JUMPDEST JUMPDEST PUSH2 0x4129 DUP9 DUP3 DUP10 ADD PUSH2 0x4024 JUMP JUMPDEST SWAP5 POP SWAP5 POP POP PUSH1 0x40 PUSH2 0x413C DUP9 DUP3 DUP10 ADD PUSH2 0x4091 JUMP JUMPDEST SWAP3 POP POP PUSH1 0x60 PUSH2 0x414D DUP9 DUP3 DUP10 ADD PUSH2 0x40BD JUMP JUMPDEST SWAP2 POP POP SWAP3 SWAP6 POP SWAP3 SWAP6 SWAP1 SWAP4 POP JUMP JUMPDEST PUSH1 0x0 DUP2 MLOAD SWAP1 POP SWAP2 SWAP1 POP JUMP JUMPDEST PUSH1 0x0 DUP3 DUP3 MSTORE PUSH1 0x20 DUP3 ADD SWAP1 POP SWAP3 SWAP2 POP POP JUMP JUMPDEST PUSH1 0x0 DUP2 SWAP1 POP PUSH1 0x20 DUP3 ADD SWAP1 POP SWAP2 SWAP1 POP JUMP JUMPDEST PUSH2 0x418F DUP2 PUSH2 0x3E69 JUMP JUMPDEST DUP3 MSTORE POP POP JUMP JUMPDEST PUSH1 0x0 PUSH2 0x41A1 DUP4 DUP4 PUSH2 0x4186 JUMP JUMPDEST PUSH1 0x20 DUP4 ADD SWAP1 POP SWAP3 SWAP2 POP POP JUMP JUMPDEST PUSH1 0x0 PUSH1 0x20 DUP3 ADD SWAP1 POP SWAP2 SWAP1 POP JUMP JUMPDEST PUSH1 0x0 PUSH2 0x41C5 DUP3 PUSH2 0x415A JUMP JUMPDEST PUSH2 0x41CF DUP2 DUP6 PUSH2 0x4165 JUMP JUMPDEST SWAP4 POP PUSH2 0x41DA DUP4 PUSH2 0x4176 JUMP JUMPDEST DUP1 PUSH1 0x0 JUMPDEST DUP4 DUP2 LT ISZERO PUSH2 0x420B JUMPI DUP2 MLOAD PUSH2 0x41F2 DUP9 DUP3 PUSH2 0x4195 JUMP JUMPDEST SWAP8 POP PUSH2 0x41FD DUP4 PUSH2 0x41AD JUMP JUMPDEST SWAP3 POP POP PUSH1 0x1 DUP2 ADD SWAP1 POP PUSH2 0x41DE JUMP JUMPDEST POP DUP6 SWAP4 POP POP POP POP SWAP3 SWAP2 POP POP JUMP JUMPDEST PUSH1 0x0 PUSH1 0x20 DUP3 ADD SWAP1 POP DUP2 DUP2 SUB PUSH1 0x0 DUP4 ADD MSTORE PUSH2 0x4232 DUP2 DUP5 PUSH2 0x41BA JUMP JUMPDEST SWAP1 POP SWAP3 SWAP2 POP POP JUMP JUMPDEST PUSH1 0x0 DUP2 SWAP1 POP SWAP2 SWAP1 POP JUMP JUMPDEST PUSH2 0x424D DUP2 PUSH2 0x423A JUMP JUMPDEST DUP2 EQ PUSH2 0x4258 JUMPI PUSH1 0x0 DUP1 REVERT JUMPDEST POP JUMP JUMPDEST PUSH1 0x0 DUP2 CALLDATALOAD SWAP1 POP PUSH2 0x426A DUP2 PUSH2 0x4244 JUMP JUMPDEST SWAP3 SWAP2 POP POP JUMP JUMPDEST PUSH1 0x0 PUSH1 0x20 DUP3 DUP5 SUB SLT ISZERO PUSH2 0x4286 JUMPI PUSH2 0x4285 PUSH2 0x3EE0 JUMP JUMPDEST JUMPDEST PUSH1 0x0 PUSH2 0x4294 DUP5 DUP3 DUP6 ADD PUSH2 0x425B JUMP JUMPDEST SWAP2 POP POP SWAP3 SWAP2 POP POP JUMP JUMPDEST PUSH2 0x42A6 DUP2 PUSH2 0x423A JUMP JUMPDEST DUP3 MSTORE POP POP JUMP JUMPDEST PUSH1 0x0 PUSH1 0x20 DUP3 ADD SWAP1 POP PUSH2 0x42C1 PUSH1 0x0 DUP4 ADD DUP5 PUSH2 0x429D JUMP JUMPDEST SWAP3 SWAP2 POP POP JUMP JUMPDEST PUSH2 0x42D0 DUP2 PUSH2 0x3FC5 JUMP JUMPDEST DUP2 EQ PUSH2 0x42DB JUMPI PUSH1 0x0 DUP1 REVERT JUMPDEST POP JUMP JUMPDEST PUSH1 0x0 DUP2 CALLDATALOAD SWAP1 POP PUSH2 0x42ED DUP2 PUSH2 0x42C7 JUMP JUMPDEST SWAP3 SWAP2 POP POP JUMP JUMPDEST PUSH1 0x0 DUP1 PUSH1 0x40 DUP4 DUP6 SUB SLT ISZERO PUSH2 0x430A JUMPI PUSH2 0x4309 PUSH2 0x3EE0 JUMP JUMPDEST JUMPDEST PUSH1 0x0 PUSH2 0x4318 DUP6 DUP3 DUP7 ADD PUSH2 0x425B JUMP JUMPDEST SWAP3 POP POP PUSH1 0x20 PUSH2 0x4329 DUP6 DUP3 DUP7 ADD PUSH2 0x42DE JUMP JUMPDEST SWAP2 POP POP SWAP3 POP SWAP3 SWAP1 POP JUMP JUMPDEST PUSH1 0x0 DUP1 REVERT JUMPDEST PUSH1 0x0 PUSH1 0xA0 DUP3 DUP5 SUB SLT ISZERO PUSH2 0x434E JUMPI PUSH2 0x434D PUSH2 0x4333 JUMP JUMPDEST JUMPDEST DUP2 SWAP1 POP SWAP3 SWAP2 POP POP JUMP JUMPDEST PUSH1 0x0 PUSH1 0xFF DUP3 AND SWAP1 POP SWAP2 SWAP1 POP JUMP JUMPDEST PUSH2 0x436D DUP2 PUSH2 0x4357 JUMP JUMPDEST DUP2 EQ PUSH2 0x4378 JUMPI PUSH1 0x0 DUP1 REVERT JUMPDEST POP JUMP JUMPDEST PUSH1 0x0 DUP2 CALLDATALOAD SWAP1 POP PUSH2 0x438A DUP2 PUSH2 0x4364 JUMP JUMPDEST SWAP3 SWAP2 POP POP JUMP JUMPDEST PUSH1 0x0 DUP1 PUSH1 0x0 DUP1 PUSH1 0x80 DUP6 DUP8 SUB SLT ISZERO PUSH2 0x43AA JUMPI PUSH2 0x43A9 PUSH2 0x3EE0 JUMP JUMPDEST JUMPDEST PUSH1 0x0 DUP6 ADD CALLDATALOAD PUSH8 0xFFFFFFFFFFFFFFFF DUP2 GT ISZERO PUSH2 0x43C8 JUMPI PUSH2 0x43C7 PUSH2 0x3EE5 JUMP JUMPDEST JUMPDEST PUSH2 0x43D4 DUP8 DUP3 DUP9 ADD PUSH2 0x4338 JUMP JUMPDEST SWAP5 POP POP PUSH1 0x20 PUSH2 0x43E5 DUP8 DUP3 DUP9 ADD PUSH2 0x437B JUMP JUMPDEST SWAP4 POP POP PUSH1 0x40 PUSH2 0x43F6 DUP8 DUP3 DUP9 ADD PUSH2 0x425B JUMP JUMPDEST SWAP3 POP POP PUSH1 0x60 PUSH2 0x4407 DUP8 DUP3 DUP9 ADD PUSH2 0x425B JUMP JUMPDEST SWAP2 POP POP SWAP3 SWAP6 SWAP2 SWAP5 POP SWAP3 POP JUMP JUMPDEST PUSH1 0x0 PUSH1 0x80 DUP3 DUP5 SUB SLT ISZERO PUSH2 0x4429 JUMPI PUSH2 0x4428 PUSH2 0x4333 JUMP JUMPDEST JUMPDEST DUP2 SWAP1 POP SWAP3 SWAP2 POP POP JUMP JUMPDEST PUSH1 0x0 DUP1 PUSH1 0x0 DUP1 PUSH1 0x80 DUP6 DUP8 SUB SLT ISZERO PUSH2 0x444C JUMPI PUSH2 0x444B PUSH2 0x3EE0 JUMP JUMPDEST JUMPDEST PUSH1 0x0 DUP6 ADD CALLDATALOAD PUSH8 0xFFFFFFFFFFFFFFFF DUP2 GT ISZERO PUSH2 0x446A JUMPI PUSH2 0x4469 PUSH2 0x3EE5 JUMP JUMPDEST JUMPDEST PUSH2 0x4476 DUP8 DUP3 DUP9 ADD PUSH2 0x4413 JUMP JUMPDEST SWAP5 POP POP PUSH1 0x20 PUSH2 0x4487 DUP8 DUP3 DUP9 ADD PUSH2 0x437B JUMP JUMPDEST SWAP4 POP POP PUSH1 0x40 PUSH2 0x4498 DUP8 DUP3 DUP9 ADD PUSH2 0x425B JUMP JUMPDEST SWAP3 POP POP PUSH1 0x60 PUSH2 0x44A9 DUP8 DUP3 DUP9 ADD PUSH2 0x425B JUMP JUMPDEST SWAP2 POP POP SWAP3 SWAP6 SWAP2 SWAP5 POP SWAP3 POP JUMP JUMPDEST PUSH1 0x0 PUSH1 0x60 DUP3 DUP5 SUB SLT ISZERO PUSH2 0x44CB JUMPI PUSH2 0x44CA PUSH2 0x4333 JUMP JUMPDEST JUMPDEST DUP2 SWAP1 POP SWAP3 SWAP2 POP POP JUMP JUMPDEST PUSH1 0x0 DUP1 PUSH1 0x0 DUP1 PUSH1 0x80 DUP6 DUP8 SUB SLT ISZERO PUSH2 0x44EE JUMPI PUSH2 0x44ED PUSH2 0x3EE0 JUMP JUMPDEST JUMPDEST PUSH1 0x0 DUP6 ADD CALLDATALOAD PUSH8 0xFFFFFFFFFFFFFFFF DUP2 GT ISZERO PUSH2 0x450C JUMPI PUSH2 0x450B PUSH2 0x3EE5 JUMP JUMPDEST JUMPDEST PUSH2 0x4518 DUP8 DUP3 DUP9 ADD PUSH2 0x44B5 JUMP JUMPDEST SWAP5 POP POP PUSH1 0x20 PUSH2 0x4529 DUP8 DUP3 DUP9 ADD PUSH2 0x437B JUMP JUMPDEST SWAP4 POP POP PUSH1 0x40 PUSH2 0x453A DUP8 DUP3 DUP9 ADD PUSH2 0x425B JUMP JUMPDEST SWAP3 POP POP PUSH1 0x60 PUSH2 0x454B DUP8 DUP3 DUP9 ADD PUSH2 0x425B JUMP JUMPDEST SWAP2 POP POP SWAP3 SWAP6 SWAP2 SWAP5 POP SWAP3 POP JUMP JUMPDEST PUSH1 0x0 DUP1 REVERT JUMPDEST PUSH1 0x0 PUSH1 0x1F NOT PUSH1 0x1F DUP4 ADD AND SWAP1 POP SWAP2 SWAP1 POP JUMP JUMPDEST PUSH32 0x4E487B7100000000000000000000000000000000000000000000000000000000 PUSH1 0x0 MSTORE PUSH1 0x41 PUSH1 0x4 MSTORE PUSH1 0x24 PUSH1 0x0 REVERT JUMPDEST PUSH2 0x45A5 DUP3 PUSH2 0x455C JUMP JUMPDEST DUP2 ADD DUP2 DUP2 LT PUSH8 0xFFFFFFFFFFFFFFFF DUP3 GT OR ISZERO PUSH2 0x45C4 JUMPI PUSH2 0x45C3 PUSH2 0x456D JUMP JUMPDEST JUMPDEST DUP1 PUSH1 0x40 MSTORE POP POP POP JUMP JUMPDEST PUSH1 0x0 PUSH2 0x45D7 PUSH2 0x3ED6 JUMP JUMPDEST SWAP1 POP PUSH2 0x45E3 DUP3 DUP3 PUSH2 0x459C JUMP JUMPDEST SWAP2 SWAP1 POP JUMP JUMPDEST PUSH1 0x0 PUSH8 0xFFFFFFFFFFFFFFFF DUP3 GT ISZERO PUSH2 0x4603 JUMPI PUSH2 0x4602 PUSH2 0x456D JUMP JUMPDEST JUMPDEST PUSH2 0x460C DUP3 PUSH2 0x455C JUMP JUMPDEST SWAP1 POP PUSH1 0x20 DUP2 ADD SWAP1 POP SWAP2 SWAP1 POP JUMP JUMPDEST DUP3 DUP2 DUP4 CALLDATACOPY PUSH1 0x0 DUP4 DUP4 ADD MSTORE POP POP POP JUMP JUMPDEST PUSH1 0x0 PUSH2 0x463B PUSH2 0x4636 DUP5 PUSH2 0x45E8 JUMP JUMPDEST PUSH2 0x45CD JUMP JUMPDEST SWAP1 POP DUP3 DUP2 MSTORE PUSH1 0x20 DUP2 ADD DUP5 DUP5 DUP5 ADD GT ISZERO PUSH2 0x4657 JUMPI PUSH2 0x4656 PUSH2 0x4557 JUMP JUMPDEST JUMPDEST PUSH2 0x4662 DUP5 DUP3 DUP6 PUSH2 0x4619 JUMP JUMPDEST POP SWAP4 SWAP3 POP POP POP JUMP JUMPDEST PUSH1 0x0 DUP3 PUSH1 0x1F DUP4 ADD SLT PUSH2 0x467F JUMPI PUSH2 0x467E PUSH2 0x4015 JUMP JUMPDEST JUMPDEST DUP2 CALLDATALOAD PUSH2 0x468F DUP5 DUP3 PUSH1 0x20 DUP7 ADD PUSH2 0x4628 JUMP JUMPDEST SWAP2 POP POP SWAP3 SWAP2 POP POP JUMP JUMPDEST PUSH1 0x0 DUP1 PUSH1 0x40 DUP4 DUP6 SUB SLT ISZERO PUSH2 0x46AF JUMPI PUSH2 0x46AE PUSH2 0x3EE0 JUMP JUMPDEST JUMPDEST PUSH1 0x0 DUP4 ADD CALLDATALOAD PUSH8 0xFFFFFFFFFFFFFFFF DUP2 GT ISZERO PUSH2 0x46CD JUMPI PUSH2 0x46CC PUSH2 0x3EE5 JUMP JUMPDEST JUMPDEST PUSH2 0x46D9 DUP6 DUP3 DUP7 ADD PUSH2 0x466A JUMP JUMPDEST SWAP3 POP POP PUSH1 0x20 PUSH2 0x46EA DUP6 DUP3 DUP7 ADD PUSH2 0x42DE JUMP JUMPDEST SWAP2 POP POP SWAP3 POP SWAP3 SWAP1 POP JUMP JUMPDEST PUSH2 0x46FD DUP2 PUSH2 0x3E69 JUMP JUMPDEST DUP3 MSTORE POP POP JUMP JUMPDEST PUSH1 0x0 PUSH1 0x20 DUP3 ADD SWAP1 POP PUSH2 0x4718 PUSH1 0x0 DUP4 ADD DUP5 PUSH2 0x46F4 JUMP JUMPDEST SWAP3 SWAP2 POP POP JUMP JUMPDEST PUSH1 0x0 DUP1 PUSH1 0x0 PUSH1 0x60 DUP5 DUP7 SUB SLT ISZERO PUSH2 0x4737 JUMPI PUSH2 0x4736 PUSH2 0x3EE0 JUMP JUMPDEST JUMPDEST PUSH1 0x0 PUSH2 0x4745 DUP7 DUP3 DUP8 ADD PUSH2 0x42DE JUMP JUMPDEST SWAP4 POP POP PUSH1 0x20 PUSH2 0x4756 DUP7 DUP3 DUP8 ADD PUSH2 0x42DE JUMP JUMPDEST SWAP3 POP POP PUSH1 0x40 PUSH2 0x4767 DUP7 DUP3 DUP8 ADD PUSH2 0x4091 JUMP JUMPDEST SWAP2 POP POP SWAP3 POP SWAP3 POP SWAP3 JUMP JUMPDEST PUSH1 0x0 PUSH1 0x20 DUP3 DUP5 SUB SLT ISZERO PUSH2 0x4787 JUMPI PUSH2 0x4786 PUSH2 0x3EE0 JUMP JUMPDEST JUMPDEST PUSH1 0x0 PUSH2 0x4795 DUP5 DUP3 DUP6 ADD PUSH2 0x42DE JUMP JUMPDEST SWAP2 POP POP SWAP3 SWAP2 POP POP JUMP JUMPDEST PUSH1 0x0 DUP1 PUSH1 0x0 PUSH1 0x60 DUP5 DUP7 SUB SLT ISZERO PUSH2 0x47B7 JUMPI PUSH2 0x47B6 PUSH2 0x3EE0 JUMP JUMPDEST JUMPDEST PUSH1 0x0 PUSH2 0x47C5 DUP7 DUP3 DUP8 ADD PUSH2 0x42DE JUMP JUMPDEST SWAP4 POP POP PUSH1 0x20 PUSH2 0x47D6 DUP7 DUP3 DUP8 ADD PUSH2 0x4091 JUMP JUMPDEST SWAP3 POP POP PUSH1 0x40 PUSH2 0x47E7 DUP7 DUP3 DUP8 ADD PUSH2 0x42DE JUMP JUMPDEST SWAP2 POP POP SWAP3 POP SWAP3 POP SWAP3 JUMP JUMPDEST PUSH1 0x0 PUSH1 0xC0 DUP3 DUP5 SUB SLT ISZERO PUSH2 0x4807 JUMPI PUSH2 0x4806 PUSH2 0x4333 JUMP JUMPDEST JUMPDEST DUP2 SWAP1 POP SWAP3 SWAP2 POP POP JUMP JUMPDEST PUSH1 0x0 DUP1 PUSH1 0x0 DUP1 PUSH1 0x80 DUP6 DUP8 SUB SLT ISZERO PUSH2 0x482A JUMPI PUSH2 0x4829 PUSH2 0x3EE0 JUMP JUMPDEST JUMPDEST PUSH1 0x0 DUP6 ADD CALLDATALOAD PUSH8 0xFFFFFFFFFFFFFFFF DUP2 GT ISZERO PUSH2 0x4848 JUMPI PUSH2 0x4847 PUSH2 0x3EE5 JUMP JUMPDEST JUMPDEST PUSH2 0x4854 DUP8 DUP3 DUP9 ADD PUSH2 0x47F1 JUMP JUMPDEST SWAP5 POP POP PUSH1 0x20 PUSH2 0x4865 DUP8 DUP3 DUP9 ADD PUSH2 0x437B JUMP JUMPDEST SWAP4 POP POP PUSH1 0x40 PUSH2 0x4876 DUP8 DUP3 DUP9 ADD PUSH2 0x425B JUMP JUMPDEST SWAP3 POP POP PUSH1 0x60 PUSH2 0x4887 DUP8 DUP3 DUP9 ADD PUSH2 0x425B JUMP JUMPDEST SWAP2 POP POP SWAP3 SWAP6 SWAP2 SWAP5 POP SWAP3 POP JUMP JUMPDEST PUSH1 0x0 PUSH2 0x489E DUP3 PUSH2 0x3E69 JUMP JUMPDEST SWAP2 POP PUSH2 0x48A9 DUP4 PUSH2 0x3E69 JUMP JUMPDEST SWAP3 POP DUP3 DUP3 SUB SWAP1 POP DUP2 DUP2 GT ISZERO PUSH2 0x48C1 JUMPI PUSH2 0x48C0 PUSH2 0x3E73 JUMP JUMPDEST JUMPDEST SWAP3 SWAP2 POP POP JUMP JUMPDEST PUSH32 0x4E487B7100000000000000000000000000000000000000000000000000000000 PUSH1 0x0 MSTORE PUSH1 0x32 PUSH1 0x4 MSTORE PUSH1 0x24 PUSH1 0x0 REVERT JUMPDEST PUSH1 0x0 DUP3 DUP3 MSTORE PUSH1 0x20 DUP3 ADD SWAP1 POP SWAP3 SWAP2 POP POP JUMP JUMPDEST PUSH32 0x52616D70536572766963653A206173736574206973206E6F7420737570706F72 PUSH1 0x0 DUP3 ADD MSTORE PUSH32 0x7465640000000000000000000000000000000000000000000000000000000000 PUSH1 0x20 DUP3 ADD MSTORE POP JUMP JUMPDEST PUSH1 0x0 PUSH2 0x4963 PUSH1 0x23 DUP4 PUSH2 0x48F6 JUMP JUMPDEST SWAP2 POP PUSH2 0x496E DUP3 PUSH2 0x4907 JUMP JUMPDEST PUSH1 0x40 DUP3 ADD SWAP1 POP SWAP2 SWAP1 POP JUMP JUMPDEST PUSH1 0x0 PUSH1 0x20 DUP3 ADD SWAP1 POP DUP2 DUP2 SUB PUSH1 0x0 DUP4 ADD MSTORE PUSH2 0x4992 DUP2 PUSH2 0x4956 JUMP JUMPDEST SWAP1 POP SWAP2 SWAP1 POP JUMP JUMPDEST PUSH1 0x0 DUP3 DUP3 MSTORE PUSH1 0x20 DUP3 ADD SWAP1 POP SWAP3 SWAP2 POP POP JUMP JUMPDEST PUSH1 0x0 DUP2 SWAP1 POP SWAP2 SWAP1 POP JUMP JUMPDEST PUSH2 0x49BD DUP2 PUSH2 0x3FC5 JUMP JUMPDEST DUP3 MSTORE POP POP JUMP JUMPDEST PUSH1 0x0 PUSH2 0x49CF DUP4 DUP4 PUSH2 0x49B4 JUMP JUMPDEST PUSH1 0x20 DUP4 ADD SWAP1 POP SWAP3 SWAP2 POP POP JUMP JUMPDEST PUSH1 0x0 PUSH2 0x49EA PUSH1 0x20 DUP5 ADD DUP5 PUSH2 0x42DE JUMP JUMPDEST SWAP1 POP SWAP3 SWAP2 POP POP JUMP JUMPDEST PUSH1 0x0 PUSH1 0x20 DUP3 ADD SWAP1 POP SWAP2 SWAP1 POP JUMP JUMPDEST PUSH1 0x0 PUSH2 0x4A0B DUP4 DUP6 PUSH2 0x4999 JUMP JUMPDEST SWAP4 POP PUSH2 0x4A16 DUP3 PUSH2 0x49AA JUMP JUMPDEST DUP1 PUSH1 0x0 JUMPDEST DUP6 DUP2 LT ISZERO PUSH2 0x4A4F JUMPI PUSH2 0x4A2C DUP3 DUP5 PUSH2 0x49DB JUMP JUMPDEST PUSH2 0x4A36 DUP9 DUP3 PUSH2 0x49C3 JUMP JUMPDEST SWAP8 POP PUSH2 0x4A41 DUP4 PUSH2 0x49F2 JUMP JUMPDEST SWAP3 POP POP PUSH1 0x1 DUP2 ADD SWAP1 POP PUSH2 0x4A1A JUMP JUMPDEST POP DUP6 SWAP3 POP POP POP SWAP4 SWAP3 POP POP POP JUMP JUMPDEST PUSH1 0x0 PUSH1 0x40 DUP3 ADD SWAP1 POP PUSH2 0x4A71 PUSH1 0x0 DUP4 ADD DUP7 PUSH2 0x46F4 JUMP JUMPDEST DUP2 DUP2 SUB PUSH1 0x20 DUP4 ADD MSTORE PUSH2 0x4A84 DUP2 DUP5 DUP7 PUSH2 0x49FF JUMP JUMPDEST SWAP1 POP SWAP5 SWAP4 POP POP POP POP JUMP JUMPDEST PUSH1 0x0 PUSH8 0xFFFFFFFFFFFFFFFF DUP3 GT ISZERO PUSH2 0x4AA9 JUMPI PUSH2 0x4AA8 PUSH2 0x456D JUMP JUMPDEST JUMPDEST PUSH1 0x20 DUP3 MUL SWAP1 POP PUSH1 0x20 DUP2 ADD SWAP1 POP SWAP2 SWAP1 POP JUMP JUMPDEST PUSH1 0x0 DUP2 MLOAD SWAP1 POP PUSH2 0x4AC9 DUP2 PUSH2 0x407A JUMP JUMPDEST SWAP3 SWAP2 POP POP JUMP JUMPDEST PUSH1 0x0 PUSH2 0x4AE2 PUSH2 0x4ADD DUP5 PUSH2 0x4A8E JUMP JUMPDEST PUSH2 0x45CD JUMP JUMPDEST SWAP1 POP DUP1 DUP4 DUP3 MSTORE PUSH1 0x20 DUP3 ADD SWAP1 POP PUSH1 0x20 DUP5 MUL DUP4 ADD DUP6 DUP2 GT ISZERO PUSH2 0x4B05 JUMPI PUSH2 0x4B04 PUSH2 0x401F JUMP JUMPDEST JUMPDEST DUP4 JUMPDEST DUP2 DUP2 LT ISZERO PUSH2 0x4B2E JUMPI DUP1 PUSH2 0x4B1A DUP9 DUP3 PUSH2 0x4ABA JUMP JUMPDEST DUP5 MSTORE PUSH1 0x20 DUP5 ADD SWAP4 POP POP PUSH1 0x20 DUP2 ADD SWAP1 POP PUSH2 0x4B07 JUMP JUMPDEST POP POP POP SWAP4 SWAP3 POP POP POP JUMP JUMPDEST PUSH1 0x0 DUP3 PUSH1 0x1F DUP4 ADD SLT PUSH2 0x4B4D JUMPI PUSH2 0x4B4C PUSH2 0x4015 JUMP JUMPDEST JUMPDEST DUP2 MLOAD PUSH2 0x4B5D DUP5 DUP3 PUSH1 0x20 DUP7 ADD PUSH2 0x4ACF JUMP JUMPDEST SWAP2 POP POP SWAP3 SWAP2 POP POP JUMP JUMPDEST PUSH1 0x0 PUSH1 0x20 DUP3 DUP5 SUB SLT ISZERO PUSH2 0x4B7C JUMPI PUSH2 0x4B7B PUSH2 0x3EE0 JUMP JUMPDEST JUMPDEST PUSH1 0x0 DUP3 ADD MLOAD PUSH8 0xFFFFFFFFFFFFFFFF DUP2 GT ISZERO PUSH2 0x4B9A JUMPI PUSH2 0x4B99 PUSH2 0x3EE5 JUMP JUMPDEST JUMPDEST PUSH2 0x4BA6 DUP5 DUP3 DUP6 ADD PUSH2 0x4B38 JUMP JUMPDEST SWAP2 POP POP SWAP3 SWAP2 POP POP JUMP JUMPDEST PUSH32 0x416363657373436F6E74726F6C3A2063616E206F6E6C792072656E6F756E6365 PUSH1 0x0 DUP3 ADD MSTORE PUSH32 0x20726F6C657320666F722073656C660000000000000000000000000000000000 PUSH1 0x20 DUP3 ADD MSTORE POP JUMP JUMPDEST PUSH1 0x0 PUSH2 0x4C0B PUSH1 0x2F DUP4 PUSH2 0x48F6 JUMP JUMPDEST SWAP2 POP PUSH2 0x4C16 DUP3 PUSH2 0x4BAF JUMP JUMPDEST PUSH1 0x40 DUP3 ADD SWAP1 POP SWAP2 SWAP1 POP JUMP JUMPDEST PUSH1 0x0 PUSH1 0x20 DUP3 ADD SWAP1 POP DUP2 DUP2 SUB PUSH1 0x0 DUP4 ADD MSTORE PUSH2 0x4C3A DUP2 PUSH2 0x4BFE JUMP JUMPDEST SWAP1 POP SWAP2 SWAP1 POP JUMP JUMPDEST PUSH32 0x52616D70536572766963653A2053657276696365206973206F66660000000000 PUSH1 0x0 DUP3 ADD MSTORE POP JUMP JUMPDEST PUSH1 0x0 PUSH2 0x4C77 PUSH1 0x1B DUP4 PUSH2 0x48F6 JUMP JUMPDEST SWAP2 POP PUSH2 0x4C82 DUP3 PUSH2 0x4C41 JUMP JUMPDEST PUSH1 0x20 DUP3 ADD SWAP1 POP SWAP2 SWAP1 POP JUMP JUMPDEST PUSH1 0x0 PUSH1 0x20 DUP3 ADD SWAP1 POP DUP2 DUP2 SUB PUSH1 0x0 DUP4 ADD MSTORE PUSH2 0x4CA6 DUP2 PUSH2 0x4C6A JUMP JUMPDEST SWAP1 POP SWAP2 SWAP1 POP JUMP JUMPDEST PUSH1 0x0 DUP1 REVERT JUMPDEST PUSH1 0x0 DUP1 REVERT JUMPDEST PUSH1 0x0 DUP1 REVERT JUMPDEST PUSH1 0x0 DUP1 DUP4 CALLDATALOAD PUSH1 0x1 PUSH1 0x20 SUB DUP5 CALLDATASIZE SUB SUB DUP2 SLT PUSH2 0x4CD9 JUMPI PUSH2 0x4CD8 PUSH2 0x4CAD JUMP JUMPDEST JUMPDEST DUP1 DUP5 ADD SWAP3 POP DUP3 CALLDATALOAD SWAP2 POP PUSH8 0xFFFFFFFFFFFFFFFF DUP3 GT ISZERO PUSH2 0x4CFB JUMPI PUSH2 0x4CFA PUSH2 0x4CB2 JUMP JUMPDEST JUMPDEST PUSH1 0x20 DUP4 ADD SWAP3 POP PUSH1 0x20 DUP3 MUL CALLDATASIZE SUB DUP4 SGT ISZERO PUSH2 0x4D17 JUMPI PUSH2 0x4D16 PUSH2 0x4CB7 JUMP JUMPDEST JUMPDEST POP SWAP3 POP SWAP3 SWAP1 POP JUMP JUMPDEST PUSH1 0x0 DUP1 DUP4 CALLDATALOAD PUSH1 0x1 PUSH1 0x20 SUB DUP5 CALLDATASIZE SUB SUB DUP2 SLT PUSH2 0x4D3C JUMPI PUSH2 0x4D3B PUSH2 0x4CAD JUMP JUMPDEST JUMPDEST DUP1 DUP5 ADD SWAP3 POP DUP3 CALLDATALOAD SWAP2 POP PUSH8 0xFFFFFFFFFFFFFFFF DUP3 GT ISZERO PUSH2 0x4D5E JUMPI PUSH2 0x4D5D PUSH2 0x4CB2 JUMP JUMPDEST JUMPDEST PUSH1 0x20 DUP4 ADD SWAP3 POP PUSH1 0x1 DUP3 MUL CALLDATASIZE SUB DUP4 SGT ISZERO PUSH2 0x4D7A JUMPI PUSH2 0x4D79 PUSH2 0x4CB7 JUMP JUMPDEST JUMPDEST POP SWAP3 POP SWAP3 SWAP1 POP JUMP JUMPDEST PUSH1 0x0 DUP2 SWAP1 POP SWAP3 SWAP2 POP POP JUMP JUMPDEST PUSH1 0x0 PUSH2 0x4D99 DUP4 DUP6 PUSH2 0x4D82 JUMP JUMPDEST SWAP4 POP PUSH2 0x4DA6 DUP4 DUP6 DUP5 PUSH2 0x4619 JUMP JUMPDEST DUP3 DUP5 ADD SWAP1 POP SWAP4 SWAP3 POP POP POP JUMP JUMPDEST PUSH1 0x0 PUSH2 0x4DBF DUP3 DUP5 DUP7 PUSH2 0x4D8D JUMP JUMPDEST SWAP2 POP DUP2 SWAP1 POP SWAP4 SWAP3 POP POP POP JUMP JUMPDEST PUSH32 0x52616D70536572766963653A2074786964206973206578697374656400000000 PUSH1 0x0 DUP3 ADD MSTORE POP JUMP JUMPDEST PUSH1 0x0 PUSH2 0x4E01 PUSH1 0x1C DUP4 PUSH2 0x48F6 JUMP JUMPDEST SWAP2 POP PUSH2 0x4E0C DUP3 PUSH2 0x4DCB JUMP JUMPDEST PUSH1 0x20 DUP3 ADD SWAP1 POP SWAP2 SWAP1 POP JUMP JUMPDEST PUSH1 0x0 PUSH1 0x20 DUP3 ADD SWAP1 POP DUP2 DUP2 SUB PUSH1 0x0 DUP4 ADD MSTORE PUSH2 0x4E30 DUP2 PUSH2 0x4DF4 JUMP JUMPDEST SWAP1 POP SWAP2 SWAP1 POP JUMP JUMPDEST PUSH32 0x52616D70536572766963653A20616D6F756E7420697320696E76616C69640000 PUSH1 0x0 DUP3 ADD MSTORE POP JUMP JUMPDEST PUSH1 0x0 PUSH2 0x4E6D PUSH1 0x1E DUP4 PUSH2 0x48F6 JUMP JUMPDEST SWAP2 POP PUSH2 0x4E78 DUP3 PUSH2 0x4E37 JUMP JUMPDEST PUSH1 0x20 DUP3 ADD SWAP1 POP SWAP2 SWAP1 POP JUMP JUMPDEST PUSH1 0x0 PUSH1 0x20 DUP3 ADD SWAP1 POP DUP2 DUP2 SUB PUSH1 0x0 DUP4 ADD MSTORE PUSH2 0x4E9C DUP2 PUSH2 0x4E60 JUMP JUMPDEST SWAP1 POP SWAP2 SWAP1 POP JUMP JUMPDEST PUSH1 0x0 PUSH1 0x20 DUP3 DUP5 SUB SLT ISZERO PUSH2 0x4EB9 JUMPI PUSH2 0x4EB8 PUSH2 0x3EE0 JUMP JUMPDEST JUMPDEST PUSH1 0x0 PUSH2 0x4EC7 DUP5 DUP3 DUP6 ADD PUSH2 0x4000 JUMP JUMPDEST SWAP2 POP POP SWAP3 SWAP2 POP POP JUMP JUMPDEST PUSH1 0x0 DUP2 SWAP1 POP SWAP3 SWAP2 POP POP JUMP JUMPDEST PUSH2 0x4EE4 DUP2 PUSH2 0x3FC5 JUMP JUMPDEST DUP3 MSTORE POP POP JUMP JUMPDEST PUSH1 0x0 PUSH2 0x4EF6 DUP4 DUP4 PUSH2 0x4EDB JUMP JUMPDEST PUSH1 0x20 DUP4 ADD SWAP1 POP SWAP3 SWAP2 POP POP JUMP JUMPDEST PUSH1 0x0 PUSH2 0x4F0E DUP4 DUP6 PUSH2 0x4ED0 JUMP JUMPDEST SWAP4 POP PUSH2 0x4F19 DUP3 PUSH2 0x49AA JUMP JUMPDEST DUP1 PUSH1 0x0 JUMPDEST DUP6 DUP2 LT ISZERO PUSH2 0x4F52 JUMPI PUSH2 0x4F2F DUP3 DUP5 PUSH2 0x49DB JUMP JUMPDEST PUSH2 0x4F39 DUP9 DUP3 PUSH2 0x4EEA JUMP JUMPDEST SWAP8 POP PUSH2 0x4F44 DUP4 PUSH2 0x49F2 JUMP JUMPDEST SWAP3 POP POP PUSH1 0x1 DUP2 ADD SWAP1 POP PUSH2 0x4F1D JUMP JUMPDEST POP DUP6 SWAP3 POP POP POP SWAP4 SWAP3 POP POP POP JUMP JUMPDEST PUSH1 0x0 PUSH2 0x4F6C DUP3 DUP5 DUP7 PUSH2 0x4F02 JUMP JUMPDEST SWAP2 POP DUP2 SWAP1 POP SWAP4 SWAP3 POP POP POP JUMP JUMPDEST PUSH1 0x0 DUP2 SWAP1 POP SWAP3 SWAP2 POP POP JUMP JUMPDEST PUSH1 0x0 PUSH2 0x4F8F DUP4 DUP6 PUSH2 0x4F78 JUMP JUMPDEST SWAP4 POP PUSH2 0x4F9C DUP4 DUP6 DUP5 PUSH2 0x4619 JUMP JUMPDEST DUP3 DUP5 ADD SWAP1 POP SWAP4 SWAP3 POP POP POP JUMP JUMPDEST PUSH1 0x0 PUSH2 0x4FB5 DUP3 DUP5 DUP7 PUSH2 0x4F83 JUMP JUMPDEST SWAP2 POP DUP2 SWAP1 POP SWAP4 SWAP3 POP POP POP JUMP JUMPDEST PUSH1 0x0 DUP2 SWAP1 POP SWAP2 SWAP1 POP JUMP JUMPDEST PUSH1 0x0 PUSH2 0x4FE6 PUSH2 0x4FE1 PUSH2 0x4FDC DUP5 PUSH2 0x3FA5 JUMP JUMPDEST PUSH2 0x4FC1 JUMP JUMPDEST PUSH2 0x3FA5 JUMP JUMPDEST SWAP1 POP SWAP2 SWAP1 POP JUMP JUMPDEST PUSH1 0x0 PUSH2 0x4FF8 DUP3 PUSH2 0x4FCB JUMP JUMPDEST SWAP1 POP SWAP2 SWAP1 POP JUMP JUMPDEST PUSH1 0x0 PUSH2 0x500A DUP3 PUSH2 0x4FED JUMP JUMPDEST SWAP1 POP SWAP2 SWAP1 POP JUMP JUMPDEST PUSH2 0x501A DUP2 PUSH2 0x4FFF JUMP JUMPDEST DUP3 MSTORE POP POP JUMP JUMPDEST PUSH1 0x0 PUSH1 0xC0 DUP3 ADD SWAP1 POP PUSH2 0x5035 PUSH1 0x0 DUP4 ADD DUP10 PUSH2 0x429D JUMP JUMPDEST PUSH2 0x5042 PUSH1 0x20 DUP4 ADD DUP9 PUSH2 0x5011 JUMP JUMPDEST PUSH2 0x504F PUSH1 0x40 DUP4 ADD DUP8 PUSH2 0x429D JUMP JUMPDEST PUSH2 0x505C PUSH1 0x60 DUP4 ADD DUP7 PUSH2 0x46F4 JUMP JUMPDEST PUSH2 0x5069 PUSH1 0x80 DUP4 ADD DUP6 PUSH2 0x46F4 JUMP JUMPDEST PUSH2 0x5076 PUSH1 0xA0 DUP4 ADD DUP5 PUSH2 0x429D JUMP JUMPDEST SWAP8 SWAP7 POP POP POP POP POP POP POP JUMP JUMPDEST PUSH32 0x1901000000000000000000000000000000000000000000000000000000000000 PUSH1 0x0 DUP3 ADD MSTORE POP JUMP JUMPDEST PUSH1 0x0 PUSH2 0x50B7 PUSH1 0x2 DUP4 PUSH2 0x4D82 JUMP JUMPDEST SWAP2 POP PUSH2 0x50C2 DUP3 PUSH2 0x5081 JUMP JUMPDEST PUSH1 0x2 DUP3 ADD SWAP1 POP SWAP2 SWAP1 POP JUMP JUMPDEST PUSH1 0x0 DUP2 SWAP1 POP SWAP2 SWAP1 POP JUMP JUMPDEST PUSH2 0x50E8 PUSH2 0x50E3 DUP3 PUSH2 0x423A JUMP JUMPDEST PUSH2 0x50CD JUMP JUMPDEST DUP3 MSTORE POP POP JUMP JUMPDEST PUSH1 0x0 PUSH2 0x50F9 DUP3 PUSH2 0x50AA JUMP JUMPDEST SWAP2 POP PUSH2 0x5105 DUP3 DUP6 PUSH2 0x50D7 JUMP JUMPDEST PUSH1 0x20 DUP3 ADD SWAP2 POP PUSH2 0x5115 DUP3 DUP5 PUSH2 0x50D7 JUMP JUMPDEST PUSH1 0x20 DUP3 ADD SWAP2 POP DUP2 SWAP1 POP SWAP4 SWAP3 POP POP POP JUMP JUMPDEST PUSH2 0x512E DUP2 PUSH2 0x4357 JUMP JUMPDEST DUP3 MSTORE POP POP JUMP JUMPDEST PUSH1 0x0 PUSH1 0x80 DUP3 ADD SWAP1 POP PUSH2 0x5149 PUSH1 0x0 DUP4 ADD DUP8 PUSH2 0x429D JUMP JUMPDEST PUSH2 0x5156 PUSH1 0x20 DUP4 ADD DUP7 PUSH2 0x5125 JUMP JUMPDEST PUSH2 0x5163 PUSH1 0x40 DUP4 ADD DUP6 PUSH2 0x429D JUMP JUMPDEST PUSH2 0x5170 PUSH1 0x60 DUP4 ADD DUP5 PUSH2 0x429D JUMP JUMPDEST SWAP6 SWAP5 POP POP POP POP POP JUMP JUMPDEST PUSH32 0x52616D70536572766963653A20696E76616C6964207369676E61747572650000 PUSH1 0x0 DUP3 ADD MSTORE POP JUMP JUMPDEST PUSH1 0x0 PUSH2 0x51AF PUSH1 0x1E DUP4 PUSH2 0x48F6 JUMP JUMPDEST SWAP2 POP PUSH2 0x51BA DUP3 PUSH2 0x5179 JUMP JUMPDEST PUSH1 0x20 DUP3 ADD SWAP1 POP SWAP2 SWAP1 POP JUMP JUMPDEST PUSH1 0x0 PUSH1 0x20 DUP3 ADD SWAP1 POP DUP2 DUP2 SUB PUSH1 0x0 DUP4 ADD MSTORE PUSH2 0x51DE DUP2 PUSH2 0x51A2 JUMP JUMPDEST SWAP1 POP SWAP2 SWAP1 POP JUMP JUMPDEST PUSH1 0x0 DUP2 MLOAD SWAP1 POP PUSH2 0x51F4 DUP2 PUSH2 0x42C7 JUMP JUMPDEST SWAP3 SWAP2 POP POP JUMP JUMPDEST PUSH1 0x0 PUSH1 0x20 DUP3 DUP5 SUB SLT ISZERO PUSH2 0x5210 JUMPI PUSH2 0x520F PUSH2 0x3EE0 JUMP JUMPDEST JUMPDEST PUSH1 0x0 PUSH2 0x521E DUP5 DUP3 DUP6 ADD PUSH2 0x51E5 JUMP JUMPDEST SWAP2 POP POP SWAP3 SWAP2 POP POP JUMP JUMPDEST PUSH32 0x52616D70536572766963653A20616D6F756E742069732077726F6E6700000000 PUSH1 0x0 DUP3 ADD MSTORE POP JUMP JUMPDEST PUSH1 0x0 PUSH2 0x525D PUSH1 0x1C DUP4 PUSH2 0x48F6 JUMP JUMPDEST SWAP2 POP PUSH2 0x5268 DUP3 PUSH2 0x5227 JUMP JUMPDEST PUSH1 0x20 DUP3 ADD SWAP1 POP SWAP2 SWAP1 POP JUMP JUMPDEST PUSH1 0x0 PUSH1 0x20 DUP3 ADD SWAP1 POP DUP2 DUP2 SUB PUSH1 0x0 DUP4 ADD MSTORE PUSH2 0x528C DUP2 PUSH2 0x5250 JUMP JUMPDEST SWAP1 POP SWAP2 SWAP1 POP JUMP JUMPDEST PUSH2 0x529C DUP2 PUSH2 0x3FC5 JUMP JUMPDEST DUP3 MSTORE POP POP JUMP JUMPDEST PUSH1 0x0 PUSH1 0x80 DUP3 ADD SWAP1 POP PUSH2 0x52B7 PUSH1 0x0 DUP4 ADD DUP9 PUSH2 0x46F4 JUMP JUMPDEST DUP2 DUP2 SUB PUSH1 0x20 DUP4 ADD MSTORE PUSH2 0x52CA DUP2 DUP7 DUP9 PUSH2 0x49FF JUMP JUMPDEST SWAP1 POP PUSH2 0x52D9 PUSH1 0x40 DUP4 ADD DUP6 PUSH2 0x5293 JUMP JUMPDEST PUSH2 0x52E6 PUSH1 0x60 DUP4 ADD DUP5 PUSH2 0x46F4 JUMP JUMPDEST SWAP7 SWAP6 POP POP POP POP POP POP JUMP JUMPDEST PUSH1 0x0 PUSH1 0x60 DUP3 ADD SWAP1 POP PUSH2 0x5305 PUSH1 0x0 DUP4 ADD DUP7 PUSH2 0x5293 JUMP JUMPDEST PUSH2 0x5312 PUSH1 0x20 DUP4 ADD DUP6 PUSH2 0x5293 JUMP JUMPDEST PUSH2 0x531F PUSH1 0x40 DUP4 ADD DUP5 PUSH2 0x46F4 JUMP JUMPDEST SWAP5 SWAP4 POP POP POP POP JUMP JUMPDEST PUSH1 0x0 DUP2 MLOAD SWAP1 POP PUSH2 0x5336 DUP2 PUSH2 0x40A6 JUMP JUMPDEST SWAP3 SWAP2 POP POP JUMP JUMPDEST PUSH1 0x0 PUSH1 0x20 DUP3 DUP5 SUB SLT ISZERO PUSH2 0x5352 JUMPI PUSH2 0x5351 PUSH2 0x3EE0 JUMP JUMPDEST JUMPDEST PUSH1 0x0 PUSH2 0x5360 DUP5 DUP3 DUP6 ADD PUSH2 0x5327 JUMP JUMPDEST SWAP2 POP POP SWAP3 SWAP2 POP POP JUMP JUMPDEST PUSH32 0x52616D70536572766963653A204661696C6564205472616E7366657272696E67 PUSH1 0x0 DUP3 ADD MSTORE PUSH32 0x2066726F6D2063616C6C65720000000000000000000000000000000000000000 PUSH1 0x20 DUP3 ADD MSTORE POP JUMP JUMPDEST PUSH1 0x0 PUSH2 0x53C5 PUSH1 0x2C DUP4 PUSH2 0x48F6 JUMP JUMPDEST SWAP2 POP PUSH2 0x53D0 DUP3 PUSH2 0x5369 JUMP JUMPDEST PUSH1 0x40 DUP3 ADD SWAP1 POP SWAP2 SWAP1 POP JUMP JUMPDEST PUSH1 0x0 PUSH1 0x20 DUP3 ADD SWAP1 POP DUP2 DUP2 SUB PUSH1 0x0 DUP4 ADD MSTORE PUSH2 0x53F4 DUP2 PUSH2 0x53B8 JUMP JUMPDEST SWAP1 POP SWAP2 SWAP1 POP JUMP JUMPDEST PUSH1 0x0 PUSH1 0x40 DUP3 ADD SWAP1 POP PUSH2 0x5410 PUSH1 0x0 DUP4 ADD DUP6 PUSH2 0x5293 JUMP JUMPDEST PUSH2 0x541D PUSH1 0x20 DUP4 ADD DUP5 PUSH2 0x46F4 JUMP JUMPDEST SWAP4 SWAP3 POP POP POP JUMP JUMPDEST PUSH32 0x52616D70536572766963653A204661696C656420617070726F76616C00000000 PUSH1 0x0 DUP3 ADD MSTORE POP JUMP JUMPDEST PUSH1 0x0 PUSH2 0x545A PUSH1 0x1C DUP4 PUSH2 0x48F6 JUMP JUMPDEST SWAP2 POP PUSH2 0x5465 DUP3 PUSH2 0x5424 JUMP JUMPDEST PUSH1 0x20 DUP3 ADD SWAP1 POP SWAP2 SWAP1 POP JUMP JUMPDEST PUSH1 0x0 PUSH1 0x20 DUP3 ADD SWAP1 POP DUP2 DUP2 SUB PUSH1 0x0 DUP4 ADD MSTORE PUSH2 0x5489 DUP2 PUSH2 0x544D JUMP JUMPDEST SWAP1 POP SWAP2 SWAP1 POP JUMP JUMPDEST PUSH1 0x0 PUSH1 0xA0 DUP3 ADD SWAP1 POP PUSH2 0x54A5 PUSH1 0x0 DUP4 ADD DUP10 PUSH2 0x46F4 JUMP JUMPDEST PUSH2 0x54B2 PUSH1 0x20 DUP4 ADD DUP9 PUSH2 0x46F4 JUMP JUMPDEST DUP2 DUP2 SUB PUSH1 0x40 DUP4 ADD MSTORE PUSH2 0x54C5 DUP2 DUP7 DUP9 PUSH2 0x49FF JUMP JUMPDEST SWAP1 POP PUSH2 0x54D4 PUSH1 0x60 DUP4 ADD DUP6 PUSH2 0x5293 JUMP JUMPDEST PUSH2 0x54E1 PUSH1 0x80 DUP4 ADD DUP5 PUSH2 0x46F4 JUMP JUMPDEST SWAP8 SWAP7 POP POP POP POP POP POP POP JUMP JUMPDEST PUSH32 0x52616D70536572766963653A204661696C65642050726F63657373696E670000 PUSH1 0x0 DUP3 ADD MSTORE POP JUMP JUMPDEST PUSH1 0x0 PUSH2 0x5522 PUSH1 0x1E DUP4 PUSH2 0x48F6 JUMP JUMPDEST SWAP2 POP PUSH2 0x552D DUP3 PUSH2 0x54EC JUMP JUMPDEST PUSH1 0x20 DUP3 ADD SWAP1 POP SWAP2 SWAP1 POP JUMP JUMPDEST PUSH1 0x0 PUSH1 0x20 DUP3 ADD SWAP1 POP DUP2 DUP2 SUB PUSH1 0x0 DUP4 ADD MSTORE PUSH2 0x5551 DUP2 PUSH2 0x5515 JUMP JUMPDEST SWAP1 POP SWAP2 SWAP1 POP JUMP JUMPDEST PUSH1 0x0 PUSH2 0x5564 DUP4 DUP6 PUSH2 0x48F6 JUMP JUMPDEST SWAP4 POP PUSH2 0x5571 DUP4 DUP6 DUP5 PUSH2 0x4619 JUMP JUMPDEST PUSH2 0x557A DUP4 PUSH2 0x455C JUMP JUMPDEST DUP5 ADD SWAP1 POP SWAP4 SWAP3 POP POP POP JUMP JUMPDEST PUSH1 0x0 PUSH1 0x80 DUP3 ADD SWAP1 POP PUSH2 0x559A PUSH1 0x0 DUP4 ADD DUP9 PUSH2 0x5293 JUMP JUMPDEST PUSH2 0x55A7 PUSH1 0x20 DUP4 ADD DUP8 PUSH2 0x46F4 JUMP JUMPDEST DUP2 DUP2 SUB PUSH1 0x40 DUP4 ADD MSTORE PUSH2 0x55B9 DUP2 DUP7 PUSH2 0x41BA JUMP JUMPDEST SWAP1 POP DUP2 DUP2 SUB PUSH1 0x60 DUP4 ADD MSTORE PUSH2 0x55CE DUP2 DUP5 DUP7 PUSH2 0x5558 JUMP JUMPDEST SWAP1 POP SWAP7 SWAP6 POP POP POP POP POP POP JUMP JUMPDEST PUSH1 0x0 PUSH1 0xA0 DUP3 ADD SWAP1 POP PUSH2 0x55EF PUSH1 0x0 DUP4 ADD DUP9 PUSH2 0x429D JUMP JUMPDEST PUSH2 0x55FC PUSH1 0x20 DUP4 ADD DUP8 PUSH2 0x5293 JUMP JUMPDEST PUSH2 0x5609 PUSH1 0x40 DUP4 ADD DUP7 PUSH2 0x5293 JUMP JUMPDEST PUSH2 0x5616 PUSH1 0x60 DUP4 ADD DUP6 PUSH2 0x46F4 JUMP JUMPDEST PUSH2 0x5623 PUSH1 0x80 DUP4 ADD DUP5 PUSH2 0x429D JUMP JUMPDEST SWAP7 SWAP6 POP POP POP POP POP POP JUMP JUMPDEST PUSH32 0x52616D70536572766963653A206173736574206973206E6F7420656E6F756768 PUSH1 0x0 DUP3 ADD MSTORE POP JUMP JUMPDEST PUSH1 0x0 PUSH2 0x5663 PUSH1 0x20 DUP4 PUSH2 0x48F6 JUMP JUMPDEST SWAP2 POP PUSH2 0x566E DUP3 PUSH2 0x562D JUMP JUMPDEST PUSH1 0x20 DUP3 ADD SWAP1 POP SWAP2 SWAP1 POP JUMP JUMPDEST PUSH1 0x0 PUSH1 0x20 DUP3 ADD SWAP1 POP DUP2 DUP2 SUB PUSH1 0x0 DUP4 ADD MSTORE PUSH2 0x5692 DUP2 PUSH2 0x5656 JUMP JUMPDEST SWAP1 POP SWAP2 SWAP1 POP JUMP JUMPDEST POP JUMP JUMPDEST PUSH1 0x0 PUSH2 0x56A9 PUSH1 0x0 DUP4 PUSH2 0x4F78 JUMP JUMPDEST SWAP2 POP PUSH2 0x56B4 DUP3 PUSH2 0x5699 JUMP JUMPDEST PUSH1 0x0 DUP3 ADD SWAP1 POP SWAP2 SWAP1 POP JUMP JUMPDEST PUSH1 0x0 PUSH2 0x56CA DUP3 PUSH2 0x569C JUMP JUMPDEST SWAP2 POP DUP2 SWAP1 POP SWAP2 SWAP1 POP JUMP JUMPDEST PUSH1 0x0 PUSH1 0x20 DUP3 ADD SWAP1 POP PUSH2 0x56E9 PUSH1 0x0 DUP4 ADD DUP5 PUSH2 0x5293 JUMP JUMPDEST SWAP3 SWAP2 POP POP JUMP JUMPDEST PUSH1 0x0 PUSH1 0x20 DUP3 DUP5 SUB SLT ISZERO PUSH2 0x5705 JUMPI PUSH2 0x5704 PUSH2 0x3EE0 JUMP JUMPDEST JUMPDEST PUSH1 0x0 PUSH2 0x5713 DUP5 DUP3 DUP6 ADD PUSH2 0x4ABA JUMP JUMPDEST SWAP2 POP POP SWAP3 SWAP2 POP POP JUMP JUMPDEST PUSH1 0x0 PUSH1 0x80 DUP3 ADD SWAP1 POP PUSH2 0x5731 PUSH1 0x0 DUP4 ADD DUP9 PUSH2 0x5293 JUMP JUMPDEST PUSH2 0x573E PUSH1 0x20 DUP4 ADD DUP8 PUSH2 0x46F4 JUMP JUMPDEST PUSH2 0x574B PUSH1 0x40 DUP4 ADD DUP7 PUSH2 0x5293 JUMP JUMPDEST DUP2 DUP2 SUB PUSH1 0x60 DUP4 ADD MSTORE PUSH2 0x575E DUP2 DUP5 DUP7 PUSH2 0x5558 JUMP JUMPDEST SWAP1 POP SWAP7 SWAP6 POP POP POP POP POP POP JUMP JUMPDEST PUSH1 0x0 PUSH1 0x80 DUP3 ADD SWAP1 POP PUSH2 0x577F PUSH1 0x0 DUP4 ADD DUP8 PUSH2 0x429D JUMP JUMPDEST PUSH2 0x578C PUSH1 0x20 DUP4 ADD DUP7 PUSH2 0x5293 JUMP JUMPDEST PUSH2 0x5799 PUSH1 0x40 DUP4 ADD DUP6 PUSH2 0x46F4 JUMP JUMPDEST PUSH2 0x57A6 PUSH1 0x60 DUP4 ADD DUP5 PUSH2 0x429D JUMP JUMPDEST SWAP6 SWAP5 POP POP POP POP POP JUMP JUMPDEST PUSH32 0x52616D70536572766963653A204661696C6564205472616E7366657272696E67 PUSH1 0x0 DUP3 ADD MSTORE POP JUMP JUMPDEST PUSH1 0x0 PUSH2 0x57E5 PUSH1 0x20 DUP4 PUSH2 0x48F6 JUMP JUMPDEST SWAP2 POP PUSH2 0x57F0 DUP3 PUSH2 0x57AF JUMP JUMPDEST PUSH1 0x20 DUP3 ADD SWAP1 POP SWAP2 SWAP1 POP JUMP JUMPDEST PUSH1 0x0 PUSH1 0x20 DUP3 ADD SWAP1 POP DUP2 DUP2 SUB PUSH1 0x0 DUP4 ADD MSTORE PUSH2 0x5814 DUP2 PUSH2 0x57D8 JUMP JUMPDEST SWAP1 POP SWAP2 SWAP1 POP JUMP JUMPDEST PUSH1 0x0 PUSH1 0x60 DUP3 ADD SWAP1 POP PUSH2 0x5830 PUSH1 0x0 DUP4 ADD DUP8 PUSH2 0x5293 JUMP JUMPDEST PUSH2 0x583D PUSH1 0x20 DUP4 ADD DUP7 PUSH2 0x46F4 JUMP JUMPDEST DUP2 DUP2 SUB PUSH1 0x40 DUP4 ADD MSTORE PUSH2 0x5850 DUP2 DUP5 DUP7 PUSH2 0x5558 JUMP JUMPDEST SWAP1 POP SWAP6 SWAP5 POP POP POP POP POP JUMP JUMPDEST PUSH32 0x52616D70536572766963653A2077726F6E6720726F7574657200000000000000 PUSH1 0x0 DUP3 ADD MSTORE POP JUMP JUMPDEST PUSH1 0x0 PUSH2 0x5891 PUSH1 0x19 DUP4 PUSH2 0x48F6 JUMP JUMPDEST SWAP2 POP PUSH2 0x589C DUP3 PUSH2 0x585B JUMP JUMPDEST PUSH1 0x20 DUP3 ADD SWAP1 POP SWAP2 SWAP1 POP JUMP JUMPDEST PUSH1 0x0 PUSH1 0x20 DUP3 ADD SWAP1 POP DUP2 DUP2 SUB PUSH1 0x0 DUP4 ADD MSTORE PUSH2 0x58C0 DUP2 PUSH2 0x5884 JUMP JUMPDEST SWAP1 POP SWAP2 SWAP1 POP JUMP JUMPDEST PUSH32 0x52616D70536572766963653A20696E76616C6964207175657279000000000000 PUSH1 0x0 DUP3 ADD MSTORE POP JUMP JUMPDEST PUSH1 0x0 PUSH2 0x58FD PUSH1 0x1A DUP4 PUSH2 0x48F6 JUMP JUMPDEST SWAP2 POP PUSH2 0x5908 DUP3 PUSH2 0x58C7 JUMP JUMPDEST PUSH1 0x20 DUP3 ADD SWAP1 POP SWAP2 SWAP1 POP JUMP JUMPDEST PUSH1 0x0 PUSH1 0x20 DUP3 ADD SWAP1 POP DUP2 DUP2 SUB PUSH1 0x0 DUP4 ADD MSTORE PUSH2 0x592C DUP2 PUSH2 0x58F0 JUMP JUMPDEST SWAP1 POP SWAP2 SWAP1 POP JUMP JUMPDEST PUSH32 0x457363726F77536572766963653A2061646472657373206E6F7420696E206164 PUSH1 0x0 DUP3 ADD MSTORE PUSH32 0x6472657373426F6F6B0000000000000000000000000000000000000000000000 PUSH1 0x20 DUP3 ADD MSTORE POP JUMP JUMPDEST PUSH1 0x0 PUSH2 0x598F PUSH1 0x29 DUP4 PUSH2 0x48F6 JUMP JUMPDEST SWAP2 POP PUSH2 0x599A DUP3 PUSH2 0x5933 JUMP JUMPDEST PUSH1 0x40 DUP3 ADD SWAP1 POP SWAP2 SWAP1 POP JUMP JUMPDEST PUSH1 0x0 PUSH1 0x20 DUP3 ADD SWAP1 POP DUP2 DUP2 SUB PUSH1 0x0 DUP4 ADD MSTORE PUSH2 0x59BE DUP2 PUSH2 0x5982 JUMP JUMPDEST SWAP1 POP SWAP2 SWAP1 POP JUMP JUMPDEST PUSH32 0x52616D70536572766963653A20546F6B656E206973206E6F7420656E6F756768 PUSH1 0x0 DUP3 ADD MSTORE POP JUMP JUMPDEST PUSH1 0x0 PUSH2 0x59FB PUSH1 0x20 DUP4 PUSH2 0x48F6 JUMP JUMPDEST SWAP2 POP PUSH2 0x5A06 DUP3 PUSH2 0x59C5 JUMP JUMPDEST PUSH1 0x20 DUP3 ADD SWAP1 POP SWAP2 SWAP1 POP JUMP JUMPDEST PUSH1 0x0 PUSH1 0x20 DUP3 ADD SWAP1 POP DUP2 DUP2 SUB PUSH1 0x0 DUP4 ADD MSTORE PUSH2 0x5A2A DUP2 PUSH2 0x59EE JUMP JUMPDEST SWAP1 POP SWAP2 SWAP1 POP JUMP JUMPDEST PUSH1 0x0 PUSH1 0xE0 DUP3 ADD SWAP1 POP PUSH2 0x5A46 PUSH1 0x0 DUP4 ADD DUP11 PUSH2 0x429D JUMP JUMPDEST PUSH2 0x5A53 PUSH1 0x20 DUP4 ADD DUP10 PUSH2 0x5293 JUMP JUMPDEST PUSH2 0x5A60 PUSH1 0x40 DUP4 ADD DUP9 PUSH2 0x5011 JUMP JUMPDEST PUSH2 0x5A6D PUSH1 0x60 DUP4 ADD DUP8 PUSH2 0x429D JUMP JUMPDEST PUSH2 0x5A7A PUSH1 0x80 DUP4 ADD DUP7 PUSH2 0x46F4 JUMP JUMPDEST PUSH2 0x5A87 PUSH1 0xA0 DUP4 ADD DUP6 PUSH2 0x46F4 JUMP JUMPDEST PUSH2 0x5A94 PUSH1 0xC0 DUP4 ADD DUP5 PUSH2 0x429D JUMP JUMPDEST SWAP9 SWAP8 POP POP POP POP POP POP POP POP JUMP JUMPDEST PUSH1 0x0 PUSH1 0xA0 DUP3 ADD SWAP1 POP PUSH2 0x5AB5 PUSH1 0x0 DUP4 ADD DUP10 PUSH2 0x5293 JUMP JUMPDEST PUSH2 0x5AC2 PUSH1 0x20 DUP4 ADD DUP9 PUSH2 0x46F4 JUMP JUMPDEST DUP2 DUP2 SUB PUSH1 0x40 DUP4 ADD MSTORE PUSH2 0x5AD4 DUP2 DUP8 PUSH2 0x41BA JUMP JUMPDEST SWAP1 POP PUSH2 0x5AE3 PUSH1 0x60 DUP4 ADD DUP7 PUSH2 0x5293 JUMP JUMPDEST DUP2 DUP2 SUB PUSH1 0x80 DUP4 ADD MSTORE PUSH2 0x5AF6 DUP2 DUP5 DUP7 PUSH2 0x5558 JUMP JUMPDEST SWAP1 POP SWAP8 SWAP7 POP POP POP POP POP POP POP JUMP JUMPDEST PUSH32 0x5265656E7472616E637947756172643A207265656E7472616E742063616C6C00 PUSH1 0x0 DUP3 ADD MSTORE POP JUMP JUMPDEST PUSH1 0x0 PUSH2 0x5B39 PUSH1 0x1F DUP4 PUSH2 0x48F6 JUMP JUMPDEST SWAP2 POP PUSH2 0x5B44 DUP3 PUSH2 0x5B03 JUMP JUMPDEST PUSH1 0x20 DUP3 ADD SWAP1 POP SWAP2 SWAP1 POP JUMP JUMPDEST PUSH1 0x0 PUSH1 0x20 DUP3 ADD SWAP1 POP DUP2 DUP2 SUB PUSH1 0x0 DUP4 ADD MSTORE PUSH2 0x5B68 DUP2 PUSH2 0x5B2C JUMP JUMPDEST SWAP1 POP SWAP2 SWAP1 POP JUMP JUMPDEST PUSH32 0x416363657373436F6E74726F6C3A206163636F756E7420000000000000000000 PUSH1 0x0 DUP3 ADD MSTORE POP JUMP JUMPDEST PUSH1 0x0 PUSH2 0x5BA5 PUSH1 0x17 DUP4 PUSH2 0x4D82 JUMP JUMPDEST SWAP2 POP PUSH2 0x5BB0 DUP3 PUSH2 0x5B6F JUMP JUMPDEST PUSH1 0x17 DUP3 ADD SWAP1 POP SWAP2 SWAP1 POP JUMP JUMPDEST PUSH1 0x0 DUP2 MLOAD SWAP1 POP SWAP2 SWAP1 POP JUMP JUMPDEST PUSH1 0x0 JUMPDEST DUP4 DUP2 LT ISZERO PUSH2 0x5BE4 JUMPI DUP1 DUP3 ADD MLOAD DUP2 DUP5 ADD MSTORE PUSH1 0x20 DUP2 ADD SWAP1 POP PUSH2 0x5BC9 JUMP JUMPDEST PUSH1 0x0 DUP5 DUP5 ADD MSTORE POP POP POP POP JUMP JUMPDEST PUSH1 0x0 PUSH2 0x5BFB DUP3 PUSH2 0x5BBB JUMP JUMPDEST PUSH2 0x5C05 DUP2 DUP6 PUSH2 0x4D82 JUMP JUMPDEST SWAP4 POP PUSH2 0x5C15 DUP2 DUP6 PUSH1 0x20 DUP7 ADD PUSH2 0x5BC6 JUMP JUMPDEST DUP1 DUP5 ADD SWAP2 POP POP SWAP3 SWAP2 POP POP JUMP JUMPDEST PUSH32 0x206973206D697373696E6720726F6C6520000000000000000000000000000000 PUSH1 0x0 DUP3 ADD MSTORE POP JUMP JUMPDEST PUSH1 0x0 PUSH2 0x5C57 PUSH1 0x11 DUP4 PUSH2 0x4D82 JUMP JUMPDEST SWAP2 POP PUSH2 0x5C62 DUP3 PUSH2 0x5C21 JUMP JUMPDEST PUSH1 0x11 DUP3 ADD SWAP1 POP SWAP2 SWAP1 POP JUMP JUMPDEST PUSH1 0x0 PUSH2 0x5C78 DUP3 PUSH2 0x5B98 JUMP JUMPDEST SWAP2 POP PUSH2 0x5C84 DUP3 DUP6 PUSH2 0x5BF0 JUMP JUMPDEST SWAP2 POP PUSH2 0x5C8F DUP3 PUSH2 0x5C4A JUMP JUMPDEST SWAP2 POP PUSH2 0x5C9B DUP3 DUP5 PUSH2 0x5BF0 JUMP JUMPDEST SWAP2 POP DUP2 SWAP1 POP SWAP4 SWAP3 POP POP POP JUMP JUMPDEST PUSH1 0x0 PUSH2 0x5CB2 DUP3 PUSH2 0x5BBB JUMP JUMPDEST PUSH2 0x5CBC DUP2 DUP6 PUSH2 0x48F6 JUMP JUMPDEST SWAP4 POP PUSH2 0x5CCC DUP2 DUP6 PUSH1 0x20 DUP7 ADD PUSH2 0x5BC6 JUMP JUMPDEST PUSH2 0x5CD5 DUP2 PUSH2 0x455C JUMP JUMPDEST DUP5 ADD SWAP2 POP POP SWAP3 SWAP2 POP POP JUMP JUMPDEST PUSH1 0x0 PUSH1 0x20 DUP3 ADD SWAP1 POP DUP2 DUP2 SUB PUSH1 0x0 DUP4 ADD MSTORE PUSH2 0x5CFA DUP2 DUP5 PUSH2 0x5CA7 JUMP JUMPDEST SWAP1 POP SWAP3 SWAP2 POP POP JUMP JUMPDEST PUSH1 0x0 PUSH2 0x5D0D DUP3 PUSH2 0x3E69 JUMP JUMPDEST SWAP2 POP PUSH2 0x5D18 DUP4 PUSH2 0x3E69 JUMP JUMPDEST SWAP3 POP DUP3 DUP3 MUL PUSH2 0x5D26 DUP2 PUSH2 0x3E69 JUMP JUMPDEST SWAP2 POP DUP3 DUP3 DIV DUP5 EQ DUP4 ISZERO OR PUSH2 0x5D3D JUMPI PUSH2 0x5D3C PUSH2 0x3E73 JUMP JUMPDEST JUMPDEST POP SWAP3 SWAP2 POP POP JUMP JUMPDEST PUSH1 0x0 PUSH2 0x5D4F DUP3 PUSH2 0x3E69 JUMP JUMPDEST SWAP2 POP PUSH1 0x0 DUP3 SUB PUSH2 0x5D62 JUMPI PUSH2 0x5D61 PUSH2 0x3E73 JUMP JUMPDEST JUMPDEST PUSH1 0x1 DUP3 SUB SWAP1 POP SWAP2 SWAP1 POP JUMP JUMPDEST PUSH32 0x537472696E67733A20686578206C656E67746820696E73756666696369656E74 PUSH1 0x0 DUP3 ADD MSTORE POP JUMP JUMPDEST PUSH1 0x0 PUSH2 0x5DA3 PUSH1 0x20 DUP4 PUSH2 0x48F6 JUMP JUMPDEST SWAP2 POP PUSH2 0x5DAE DUP3 PUSH2 0x5D6D JUMP JUMPDEST PUSH1 0x20 DUP3 ADD SWAP1 POP SWAP2 SWAP1 POP JUMP JUMPDEST PUSH1 0x0 PUSH1 0x20 DUP3 ADD SWAP1 POP DUP2 DUP2 SUB PUSH1 0x0 DUP4 ADD MSTORE PUSH2 0x5DD2 DUP2 PUSH2 0x5D96 JUMP JUMPDEST SWAP1 POP SWAP2 SWAP1 POP JUMP INVALID LOG2 PUSH5 0x6970667358 0x22 SLT KECCAK256 SUB 0xBC BASEFEE 0x2F DUP9 CODESIZE GASPRICE CALLCODE CREATE2 REVERT 0x5E 0xA9 SWAP10 PUSH17 0x492F42EEA0BB028F134D102E26E267A475 CALLDATACOPY PUSH5 0x736F6C6343 STOP ADDMOD SLT STOP CALLER "
		},
		"gasEstimates": {
			"creation": {
				"codeDepositCost": "4815800",
				"executionCost": "infinite",
				"totalCost": "infinite"
			},
			"external": {
				"ADMIN_ROLE()": "418",
				"BUY_BY_SWAP_TYPE_HASH()": "441",
				"BUY_TYPE_HASH()": "374",
				"DEFAULT_ADMIN_ROLE()": "425",
				"DOMAIN_TYPE_HASH()": "396",
				"OWNER_ROLE()": "395",
				"SELL_BY_SWAP_TYPE_HASH()": "442",
				"SELL_TYPE_HASH()": "375",
				"addressBook(address)": "2891",
				"approveRouter(address,address,uint256)": "infinite",
				"balance()": "2518",
				"buy((address,address,uint256,string),uint8,bytes32,bytes32)": "infinite",
				"buyBySwap((address,address,address[],uint256,uint256,string),uint8,bytes32,bytes32)": "infinite",
				"buyGetPrice(address,address[],uint256,bool)": "infinite",
				"buyTx(string,address)": "infinite",
				"domainSeparator()": "2561",
				"forceTransfer(address,uint256,address)": "infinite",
				"getRoleAdmin(bytes32)": "infinite",
				"grantRole(bytes32,address)": "infinite",
				"hasRole(bytes32,address)": "3273",
				"renounceRole(bytes32,address)": "infinite",
				"revokeRole(bytes32,address)": "infinite",
				"sell((address,uint256,string),uint8,bytes32,bytes32)": "infinite",
				"sellBySwap((address,address[],uint256,uint256,string),uint8,bytes32,bytes32)": "infinite",
				"sellGetPrice(address,address[],uint256,bool)": "infinite",
				"sellTx(string,address)": "infinite",
				"serviceActive()": "2517",
				"signers(address)": "2912",
				"supportedAssets(address)": "2956",
				"supportsInterface(bytes4)": "774",
				"swapTx(string,address)": "infinite",
				"updateAsset(address)": "infinite",
				"updateService()": "infinite",
				"updateSigner(address)": "infinite"
			}
		},
		"methodIdentifiers": {
			"ADMIN_ROLE()": "75b238fc",
			"BUY_BY_SWAP_TYPE_HASH()": "a26d1c5f",
			"BUY_TYPE_HASH()": "c0744c2d",
			"DEFAULT_ADMIN_ROLE()": "a217fddf",
			"DOMAIN_TYPE_HASH()": "c0993eea",
			"OWNER_ROLE()": "e58378bb",
			"SELL_BY_SWAP_TYPE_HASH()": "27ff50a1",
			"SELL_TYPE_HASH()": "2bf570d3",
			"addressBook(address)": "9590cf28",
			"approveRouter(address,address,uint256)": "53c2ddf1",
			"balance()": "b69ef8a8",
			"buy((address,address,uint256,string),uint8,bytes32,bytes32)": "489cd997",
			"buyBySwap((address,address,address[],uint256,uint256,string),uint8,bytes32,bytes32)": "f43af8b4",
			"buyGetPrice(address,address[],uint256,bool)": "0e7a426f",
			"buyTx(string,address)": "99a1fff1",
			"domainSeparator()": "f698da25",
			"forceTransfer(address,uint256,address)": "c274734e",
			"getRoleAdmin(bytes32)": "248a9ca3",
			"grantRole(bytes32,address)": "2f2ff15d",
			"hasRole(bytes32,address)": "91d14854",
			"renounceRole(bytes32,address)": "36568abe",
			"revokeRole(bytes32,address)": "d547741f",
			"sell((address,uint256,string),uint8,bytes32,bytes32)": "4a37326b",
			"sellBySwap((address,address[],uint256,uint256,string),uint8,bytes32,bytes32)": "38067ce4",
			"sellGetPrice(address,address[],uint256,bool)": "76cf396d",
			"sellTx(string,address)": "d6461274",
			"serviceActive()": "4105a203",
			"signers(address)": "736c0d5b",
			"supportedAssets(address)": "bd81579e",
			"supportsInterface(bytes4)": "01ffc9a7",
			"swapTx(string,address)": "5297fc0f",
			"updateAsset(address)": "f141b52b",
			"updateService()": "b65054cd",
			"updateSigner(address)": "a7ecd37e"
		}
	},
	"abi": [
		{
			"inputs": [],
			"stateMutability": "nonpayable",
			"type": "constructor"
		},
		{
			"anonymous": false,
			"inputs": [
				{
					"indexed": false,
					"internalType": "address",
					"name": "token",
					"type": "address"
				},
				{
					"indexed": false,
					"internalType": "uint256",
					"name": "amount",
					"type": "uint256"
				},
				{
					"indexed": false,
					"internalType": "string",
					"name": "txid",
					"type": "string"
				}
			],
			"name": "Purchased",
			"type": "event"
		},
		{
			"anonymous": false,
			"inputs": [
				{
					"indexed": true,
					"internalType": "bytes32",
					"name": "role",
					"type": "bytes32"
				},
				{
					"indexed": true,
					"internalType": "bytes32",
					"name": "previousAdminRole",
					"type": "bytes32"
				},
				{
					"indexed": true,
					"internalType": "bytes32",
					"name": "newAdminRole",
					"type": "bytes32"
				}
			],
			"name": "RoleAdminChanged",
			"type": "event"
		},
		{
			"anonymous": false,
			"inputs": [
				{
					"indexed": true,
					"internalType": "bytes32",
					"name": "role",
					"type": "bytes32"
				},
				{
					"indexed": true,
					"internalType": "address",
					"name": "account",
					"type": "address"
				},
				{
					"indexed": true,
					"internalType": "address",
					"name": "sender",
					"type": "address"
				}
			],
			"name": "RoleGranted",
			"type": "event"
		},
		{
			"anonymous": false,
			"inputs": [
				{
					"indexed": true,
					"internalType": "bytes32",
					"name": "role",
					"type": "bytes32"
				},
				{
					"indexed": true,
					"internalType": "address",
					"name": "account",
					"type": "address"
				},
				{
					"indexed": true,
					"internalType": "address",
					"name": "sender",
					"type": "address"
				}
			],
			"name": "RoleRevoked",
			"type": "event"
		},
		{
			"anonymous": false,
			"inputs": [
				{
					"indexed": false,
					"internalType": "address",
					"name": "token",
					"type": "address"
				},
				{
					"indexed": false,
					"internalType": "uint256",
					"name": "amount",
					"type": "uint256"
				},
				{
					"indexed": false,
					"internalType": "address",
					"name": "receiver",
					"type": "address"
				},
				{
					"indexed": false,
					"internalType": "string",
					"name": "txid",
					"type": "string"
				}
			],
			"name": "Sold",
			"type": "event"
		},
		{
			"anonymous": false,
			"inputs": [
				{
					"indexed": false,
					"internalType": "address",
					"name": "token",
					"type": "address"
				},
				{
					"indexed": false,
					"internalType": "uint256",
					"name": "amount",
					"type": "uint256"
				},
				{
					"indexed": false,
					"internalType": "uint256[]",
					"name": "amounts",
					"type": "uint256[]"
				},
				{
					"indexed": false,
					"internalType": "string",
					"name": "txid",
					"type": "string"
				}
			],
			"name": "SwapAndPurchased",
			"type": "event"
		},
		{
			"anonymous": false,
			"inputs": [
				{
					"indexed": false,
					"internalType": "address",
					"name": "token",
					"type": "address"
				},
				{
					"indexed": false,
					"internalType": "uint256",
					"name": "amount",
					"type": "uint256"
				},
				{
					"indexed": false,
					"internalType": "uint256[]",
					"name": "amounts",
					"type": "uint256[]"
				},
				{
					"indexed": false,
					"internalType": "address",
					"name": "receiver",
					"type": "address"
				},
				{
					"indexed": false,
					"internalType": "string",
					"name": "txid",
					"type": "string"
				}
			],
			"name": "SwapAndSold",
			"type": "event"
		},
		{
			"inputs": [],
			"name": "ADMIN_ROLE",
			"outputs": [
				{
					"internalType": "bytes32",
					"name": "",
					"type": "bytes32"
				}
			],
			"stateMutability": "view",
			"type": "function"
		},
		{
			"inputs": [],
			"name": "BUY_BY_SWAP_TYPE_HASH",
			"outputs": [
				{
					"internalType": "bytes32",
					"name": "",
					"type": "bytes32"
				}
			],
			"stateMutability": "view",
			"type": "function"
		},
		{
			"inputs": [],
			"name": "BUY_TYPE_HASH",
			"outputs": [
				{
					"internalType": "bytes32",
					"name": "",
					"type": "bytes32"
				}
			],
			"stateMutability": "view",
			"type": "function"
		},
		{
			"inputs": [],
			"name": "DEFAULT_ADMIN_ROLE",
			"outputs": [
				{
					"internalType": "bytes32",
					"name": "",
					"type": "bytes32"
				}
			],
			"stateMutability": "view",
			"type": "function"
		},
		{
			"inputs": [],
			"name": "DOMAIN_TYPE_HASH",
			"outputs": [
				{
					"internalType": "bytes32",
					"name": "",
					"type": "bytes32"
				}
			],
			"stateMutability": "view",
			"type": "function"
		},
		{
			"inputs": [],
			"name": "OWNER_ROLE",
			"outputs": [
				{
					"internalType": "bytes32",
					"name": "",
					"type": "bytes32"
				}
			],
			"stateMutability": "view",
			"type": "function"
		},
		{
			"inputs": [],
			"name": "SELL_BY_SWAP_TYPE_HASH",
			"outputs": [
				{
					"internalType": "bytes32",
					"name": "",
					"type": "bytes32"
				}
			],
			"stateMutability": "view",
			"type": "function"
		},
		{
			"inputs": [],
			"name": "SELL_TYPE_HASH",
			"outputs": [
				{
					"internalType": "bytes32",
					"name": "",
					"type": "bytes32"
				}
			],
			"stateMutability": "view",
			"type": "function"
		},
		{
			"inputs": [
				{
					"internalType": "address",
					"name": "",
					"type": "address"
				}
			],
			"name": "addressBook",
			"outputs": [
				{
					"internalType": "bool",
					"name": "",
					"type": "bool"
				}
			],
			"stateMutability": "view",
			"type": "function"
		},
		{
			"inputs": [
				{
					"internalType": "address",
					"name": "token",
					"type": "address"
				},
				{
					"internalType": "address",
					"name": "router",
					"type": "address"
				},
				{
					"internalType": "uint256",
					"name": "amount",
					"type": "uint256"
				}
			],
			"name": "approveRouter",
			"outputs": [],
			"stateMutability": "nonpayable",
			"type": "function"
		},
		{
			"inputs": [],
			"name": "balance",
			"outputs": [
				{
					"internalType": "uint256",
					"name": "",
					"type": "uint256"
				}
			],
			"stateMutability": "view",
			"type": "function"
		},
		{
			"inputs": [
				{
					"components": [
						{
							"internalType": "address",
							"name": "receiver",
							"type": "address"
						},
						{
							"internalType": "address",
							"name": "token",
							"type": "address"
						},
						{
							"internalType": "uint256",
							"name": "amount",
							"type": "uint256"
						},
						{
							"internalType": "string",
							"name": "txId",
							"type": "string"
						}
					],
					"internalType": "struct IRampService.BuyRequest",
					"name": "request",
					"type": "tuple"
				},
				{
					"internalType": "uint8",
					"name": "v",
					"type": "uint8"
				},
				{
					"internalType": "bytes32",
					"name": "r",
					"type": "bytes32"
				},
				{
					"internalType": "bytes32",
					"name": "s",
					"type": "bytes32"
				}
			],
			"name": "buy",
			"outputs": [],
			"stateMutability": "nonpayable",
			"type": "function"
		},
		{
			"inputs": [
				{
					"components": [
						{
							"internalType": "address",
							"name": "receiver",
							"type": "address"
						},
						{
							"internalType": "contract IUniswapV2Router02",
							"name": "router",
							"type": "address"
						},
						{
							"internalType": "address[]",
							"name": "path",
							"type": "address[]"
						},
						{
							"internalType": "uint256",
							"name": "amount",
							"type": "uint256"
						},
						{
							"internalType": "uint256",
							"name": "minAmountOut",
							"type": "uint256"
						},
						{
							"internalType": "string",
							"name": "txId",
							"type": "string"
						}
					],
					"internalType": "struct IRampService.BuyBySwapRequest",
					"name": "request",
					"type": "tuple"
				},
				{
					"internalType": "uint8",
					"name": "v",
					"type": "uint8"
				},
				{
					"internalType": "bytes32",
					"name": "r",
					"type": "bytes32"
				},
				{
					"internalType": "bytes32",
					"name": "s",
					"type": "bytes32"
				}
			],
			"name": "buyBySwap",
			"outputs": [],
			"stateMutability": "nonpayable",
			"type": "function"
		},
		{
			"inputs": [
				{
					"internalType": "contract IUniswapV2Router02",
					"name": "router",
					"type": "address"
				},
				{
					"internalType": "address[]",
					"name": "path",
					"type": "address[]"
				},
				{
					"internalType": "uint256",
					"name": "amount",
					"type": "uint256"
				},
				{
					"internalType": "bool",
					"name": "exactIn",
					"type": "bool"
				}
			],
			"name": "buyGetPrice",
			"outputs": [
				{
					"internalType": "uint256[]",
					"name": "amounts",
					"type": "uint256[]"
				}
			],
			"stateMutability": "view",
			"type": "function"
		},
		{
			"inputs": [
				{
					"internalType": "string",
					"name": "",
					"type": "string"
				},
				{
					"internalType": "address",
					"name": "",
					"type": "address"
				}
			],
			"name": "buyTx",
			"outputs": [
				{
					"internalType": "uint256",
					"name": "",
					"type": "uint256"
				}
			],
			"stateMutability": "view",
			"type": "function"
		},
		{
			"inputs": [],
			"name": "domainSeparator",
			"outputs": [
				{
					"internalType": "bytes32",
					"name": "",
					"type": "bytes32"
				}
			],
			"stateMutability": "view",
			"type": "function"
		},
		{
			"inputs": [
				{
					"internalType": "address",
					"name": "token",
					"type": "address"
				},
				{
					"internalType": "uint256",
					"name": "amount",
					"type": "uint256"
				},
				{
					"internalType": "address",
					"name": "receiver",
					"type": "address"
				}
			],
			"name": "forceTransfer",
			"outputs": [
				{
					"internalType": "bool",
					"name": "",
					"type": "bool"
				}
			],
			"stateMutability": "nonpayable",
			"type": "function"
		},
		{
			"inputs": [
				{
					"internalType": "bytes32",
					"name": "role",
					"type": "bytes32"
				}
			],
			"name": "getRoleAdmin",
			"outputs": [
				{
					"internalType": "bytes32",
					"name": "",
					"type": "bytes32"
				}
			],
			"stateMutability": "view",
			"type": "function"
		},
		{
			"inputs": [
				{
					"internalType": "bytes32",
					"name": "role",
					"type": "bytes32"
				},
				{
					"internalType": "address",
					"name": "account",
					"type": "address"
				}
			],
			"name": "grantRole",
			"outputs": [],
			"stateMutability": "nonpayable",
			"type": "function"
		},
		{
			"inputs": [
				{
					"internalType": "bytes32",
					"name": "role",
					"type": "bytes32"
				},
				{
					"internalType": "address",
					"name": "account",
					"type": "address"
				}
			],
			"name": "hasRole",
			"outputs": [
				{
					"internalType": "bool",
					"name": "",
					"type": "bool"
				}
			],
			"stateMutability": "view",
			"type": "function"
		},
		{
			"inputs": [
				{
					"internalType": "bytes32",
					"name": "role",
					"type": "bytes32"
				},
				{
					"internalType": "address",
					"name": "account",
					"type": "address"
				}
			],
			"name": "renounceRole",
			"outputs": [],
			"stateMutability": "nonpayable",
			"type": "function"
		},
		{
			"inputs": [
				{
					"internalType": "bytes32",
					"name": "role",
					"type": "bytes32"
				},
				{
					"internalType": "address",
					"name": "account",
					"type": "address"
				}
			],
			"name": "revokeRole",
			"outputs": [],
			"stateMutability": "nonpayable",
			"type": "function"
		},
		{
			"inputs": [
				{
					"components": [
						{
							"internalType": "address",
							"name": "token",
							"type": "address"
						},
						{
							"internalType": "uint256",
							"name": "amount",
							"type": "uint256"
						},
						{
							"internalType": "string",
							"name": "txId",
							"type": "string"
						}
					],
					"internalType": "struct IRampService.SellRequest",
					"name": "request",
					"type": "tuple"
				},
				{
					"internalType": "uint8",
					"name": "v",
					"type": "uint8"
				},
				{
					"internalType": "bytes32",
					"name": "r",
					"type": "bytes32"
				},
				{
					"internalType": "bytes32",
					"name": "s",
					"type": "bytes32"
				}
			],
			"name": "sell",
			"outputs": [],
			"stateMutability": "payable",
			"type": "function"
		},
		{
			"inputs": [
				{
					"components": [
						{
							"internalType": "contract IUniswapV2Router02",
							"name": "router",
							"type": "address"
						},
						{
							"internalType": "address[]",
							"name": "path",
							"type": "address[]"
						},
						{
							"internalType": "uint256",
							"name": "amount",
							"type": "uint256"
						},
						{
							"internalType": "uint256",
							"name": "minAmountOut",
							"type": "uint256"
						},
						{
							"internalType": "string",
							"name": "txId",
							"type": "string"
						}
					],
					"internalType": "struct IRampService.SellBySwapRequest",
					"name": "request",
					"type": "tuple"
				},
				{
					"internalType": "uint8",
					"name": "v",
					"type": "uint8"
				},
				{
					"internalType": "bytes32",
					"name": "r",
					"type": "bytes32"
				},
				{
					"internalType": "bytes32",
					"name": "s",
					"type": "bytes32"
				}
			],
			"name": "sellBySwap",
			"outputs": [],
			"stateMutability": "payable",
			"type": "function"
		},
		{
			"inputs": [
				{
					"internalType": "contract IUniswapV2Router02",
					"name": "router",
					"type": "address"
				},
				{
					"internalType": "address[]",
					"name": "path",
					"type": "address[]"
				},
				{
					"internalType": "uint256",
					"name": "amount",
					"type": "uint256"
				},
				{
					"internalType": "bool",
					"name": "exactIn",
					"type": "bool"
				}
			],
			"name": "sellGetPrice",
			"outputs": [
				{
					"internalType": "uint256[]",
					"name": "amounts",
					"type": "uint256[]"
				}
			],
			"stateMutability": "view",
			"type": "function"
		},
		{
			"inputs": [
				{
					"internalType": "string",
					"name": "",
					"type": "string"
				},
				{
					"internalType": "address",
					"name": "",
					"type": "address"
				}
			],
			"name": "sellTx",
			"outputs": [
				{
					"internalType": "uint256",
					"name": "",
					"type": "uint256"
				}
			],
			"stateMutability": "view",
			"type": "function"
		},
		{
			"inputs": [],
			"name": "serviceActive",
			"outputs": [
				{
					"internalType": "bool",
					"name": "",
					"type": "bool"
				}
			],
			"stateMutability": "view",
			"type": "function"
		},
		{
			"inputs": [
				{
					"internalType": "address",
					"name": "",
					"type": "address"
				}
			],
			"name": "signers",
			"outputs": [
				{
					"internalType": "bool",
					"name": "",
					"type": "bool"
				}
			],
			"stateMutability": "view",
			"type": "function"
		},
		{
			"inputs": [
				{
					"internalType": "address",
					"name": "",
					"type": "address"
				}
			],
			"name": "supportedAssets",
			"outputs": [
				{
					"internalType": "bool",
					"name": "",
					"type": "bool"
				}
			],
			"stateMutability": "view",
			"type": "function"
		},
		{
			"inputs": [
				{
					"internalType": "bytes4",
					"name": "interfaceId",
					"type": "bytes4"
				}
			],
			"name": "supportsInterface",
			"outputs": [
				{
					"internalType": "bool",
					"name": "",
					"type": "bool"
				}
			],
			"stateMutability": "view",
			"type": "function"
		},
		{
			"inputs": [
				{
					"internalType": "string",
					"name": "",
					"type": "string"
				},
				{
					"internalType": "address",
					"name": "",
					"type": "address"
				}
			],
			"name": "swapTx",
			"outputs": [
				{
					"internalType": "uint256",
					"name": "",
					"type": "uint256"
				}
			],
			"stateMutability": "view",
			"type": "function"
		},
		{
			"inputs": [
				{
					"internalType": "address",
					"name": "asset",
					"type": "address"
				}
			],
			"name": "updateAsset",
			"outputs": [],
			"stateMutability": "nonpayable",
			"type": "function"
		},
		{
			"inputs": [],
			"name": "updateService",
			"outputs": [],
			"stateMutability": "nonpayable",
			"type": "function"
		},
		{
			"inputs": [
				{
					"internalType": "address",
					"name": "signer",
					"type": "address"
				}
			],
			"name": "updateSigner",
			"outputs": [],
			"stateMutability": "nonpayable",
			"type": "function"
		},
		{
			"stateMutability": "payable",
			"type": "receive"
		}
	]
}